{
  "address": "0xB5A30f572dFcB400dd8068f5FFE7A96f2c372Be8",
  "abi": [
    {
      "inputs": [
        {
          "internalType": "address",
          "name": "_umi",
          "type": "address"
        }
      ],
      "stateMutability": "nonpayable",
      "type": "constructor"
    },
    {
      "anonymous": false,
      "inputs": [
        {
          "indexed": true,
          "internalType": "address",
          "name": "owner",
          "type": "address"
        },
        {
          "indexed": true,
          "internalType": "address",
          "name": "approved",
          "type": "address"
        },
        {
          "indexed": true,
          "internalType": "uint256",
          "name": "tokenId",
          "type": "uint256"
        }
      ],
      "name": "Approval",
      "type": "event"
    },
    {
      "anonymous": false,
      "inputs": [
        {
          "indexed": true,
          "internalType": "address",
          "name": "owner",
          "type": "address"
        },
        {
          "indexed": true,
          "internalType": "address",
          "name": "operator",
          "type": "address"
        },
        {
          "indexed": false,
          "internalType": "bool",
          "name": "approved",
          "type": "bool"
        }
      ],
      "name": "ApprovalForAll",
      "type": "event"
    },
    {
      "anonymous": false,
      "inputs": [
        {
          "indexed": true,
          "internalType": "address",
          "name": "previousOwner",
          "type": "address"
        },
        {
          "indexed": true,
          "internalType": "address",
          "name": "newOwner",
          "type": "address"
        }
      ],
      "name": "OwnershipTransferred",
      "type": "event"
    },
    {
      "anonymous": false,
      "inputs": [
        {
          "indexed": true,
          "internalType": "address",
          "name": "from",
          "type": "address"
        },
        {
          "indexed": true,
          "internalType": "address",
          "name": "to",
          "type": "address"
        },
        {
          "indexed": true,
          "internalType": "uint256",
          "name": "tokenId",
          "type": "uint256"
        }
      ],
      "name": "Transfer",
      "type": "event"
    },
    {
      "inputs": [
        {
          "internalType": "uint256",
          "name": "",
          "type": "uint256"
        }
      ],
      "name": "adviceList",
      "outputs": [
        {
          "internalType": "string",
          "name": "",
          "type": "string"
        }
      ],
      "stateMutability": "view",
      "type": "function"
    },
    {
      "inputs": [
        {
          "internalType": "address",
          "name": "to",
          "type": "address"
        },
        {
          "internalType": "uint256",
          "name": "tokenId",
          "type": "uint256"
        }
      ],
      "name": "approve",
      "outputs": [],
      "stateMutability": "nonpayable",
      "type": "function"
    },
    {
      "inputs": [
        {
          "internalType": "address",
          "name": "owner",
          "type": "address"
        }
      ],
      "name": "balanceOf",
      "outputs": [
        {
          "internalType": "uint256",
          "name": "",
          "type": "uint256"
        }
      ],
      "stateMutability": "view",
      "type": "function"
    },
    {
      "inputs": [
        {
          "internalType": "uint256",
          "name": "",
          "type": "uint256"
        }
      ],
      "name": "bdayCount",
      "outputs": [
        {
          "internalType": "string",
          "name": "",
          "type": "string"
        }
      ],
      "stateMutability": "view",
      "type": "function"
    },
    {
      "inputs": [],
      "name": "createNFT",
      "outputs": [
        {
          "internalType": "uint256",
          "name": "",
          "type": "uint256"
        }
      ],
      "stateMutability": "nonpayable",
      "type": "function"
    },
    {
      "inputs": [],
      "name": "generateAdvice",
      "outputs": [
        {
          "internalType": "string",
          "name": "",
          "type": "string"
        }
      ],
      "stateMutability": "view",
      "type": "function"
    },
    {
      "inputs": [
        {
          "internalType": "uint256",
          "name": "tokenId",
          "type": "uint256"
        }
      ],
      "name": "getApproved",
      "outputs": [
        {
          "internalType": "address",
          "name": "",
          "type": "address"
        }
      ],
      "stateMutability": "view",
      "type": "function"
    },
    {
      "inputs": [
        {
          "internalType": "address",
          "name": "owner",
          "type": "address"
        },
        {
          "internalType": "address",
          "name": "operator",
          "type": "address"
        }
      ],
      "name": "isApprovedForAll",
      "outputs": [
        {
          "internalType": "bool",
          "name": "",
          "type": "bool"
        }
      ],
      "stateMutability": "view",
      "type": "function"
    },
    {
      "inputs": [],
      "name": "name",
      "outputs": [
        {
          "internalType": "string",
          "name": "",
          "type": "string"
        }
      ],
      "stateMutability": "view",
      "type": "function"
    },
    {
      "inputs": [],
      "name": "owner",
      "outputs": [
        {
          "internalType": "address",
          "name": "",
          "type": "address"
        }
      ],
      "stateMutability": "view",
      "type": "function"
    },
    {
      "inputs": [
        {
          "internalType": "uint256",
          "name": "tokenId",
          "type": "uint256"
        }
      ],
      "name": "ownerOf",
      "outputs": [
        {
          "internalType": "address",
          "name": "",
          "type": "address"
        }
      ],
      "stateMutability": "view",
      "type": "function"
    },
    {
      "inputs": [
        {
          "internalType": "uint256",
          "name": "_seed",
          "type": "uint256"
        }
      ],
      "name": "randomCoord",
      "outputs": [
        {
          "internalType": "string",
          "name": "coords",
          "type": "string"
        }
      ],
      "stateMutability": "view",
      "type": "function"
    },
    {
      "inputs": [],
      "name": "randomNumCircle",
      "outputs": [
        {
          "internalType": "uint256",
          "name": "",
          "type": "uint256"
        }
      ],
      "stateMutability": "view",
      "type": "function"
    },
    {
      "inputs": [
        {
          "internalType": "uint256",
          "name": "_seed",
          "type": "uint256"
        }
      ],
      "name": "randomRadius",
      "outputs": [
        {
          "internalType": "string",
          "name": "",
          "type": "string"
        }
      ],
      "stateMutability": "view",
      "type": "function"
    },
    {
      "inputs": [],
      "name": "renounceOwnership",
      "outputs": [],
      "stateMutability": "nonpayable",
      "type": "function"
    },
    {
      "inputs": [
        {
          "internalType": "address",
          "name": "from",
          "type": "address"
        },
        {
          "internalType": "address",
          "name": "to",
          "type": "address"
        },
        {
          "internalType": "uint256",
          "name": "tokenId",
          "type": "uint256"
        }
      ],
      "name": "safeTransferFrom",
      "outputs": [],
      "stateMutability": "nonpayable",
      "type": "function"
    },
    {
      "inputs": [
        {
          "internalType": "address",
          "name": "from",
          "type": "address"
        },
        {
          "internalType": "address",
          "name": "to",
          "type": "address"
        },
        {
          "internalType": "uint256",
          "name": "tokenId",
          "type": "uint256"
        },
        {
          "internalType": "bytes",
          "name": "_data",
          "type": "bytes"
        }
      ],
      "name": "safeTransferFrom",
      "outputs": [],
      "stateMutability": "nonpayable",
      "type": "function"
    },
    {
      "inputs": [
        {
          "internalType": "address",
          "name": "operator",
          "type": "address"
        },
        {
          "internalType": "bool",
          "name": "approved",
          "type": "bool"
        }
      ],
      "name": "setApprovalForAll",
      "outputs": [],
      "stateMutability": "nonpayable",
      "type": "function"
    },
    {
      "inputs": [
        {
          "internalType": "bytes4",
          "name": "interfaceId",
          "type": "bytes4"
        }
      ],
      "name": "supportsInterface",
      "outputs": [
        {
          "internalType": "bool",
          "name": "",
          "type": "bool"
        }
      ],
      "stateMutability": "view",
      "type": "function"
    },
    {
      "inputs": [],
      "name": "symbol",
      "outputs": [
        {
          "internalType": "string",
          "name": "",
          "type": "string"
        }
      ],
      "stateMutability": "view",
      "type": "function"
    },
    {
      "inputs": [
        {
          "internalType": "uint256",
          "name": "tokenId",
          "type": "uint256"
        }
      ],
      "name": "tokenURI",
      "outputs": [
        {
          "internalType": "string",
          "name": "",
          "type": "string"
        }
      ],
      "stateMutability": "view",
      "type": "function"
    },
    {
      "inputs": [
        {
          "internalType": "address",
          "name": "from",
          "type": "address"
        },
        {
          "internalType": "address",
          "name": "to",
          "type": "address"
        },
        {
          "internalType": "uint256",
          "name": "tokenId",
          "type": "uint256"
        }
      ],
      "name": "transferFrom",
      "outputs": [],
      "stateMutability": "nonpayable",
      "type": "function"
    },
    {
      "inputs": [
        {
          "internalType": "address",
          "name": "newOwner",
          "type": "address"
        }
      ],
      "name": "transferOwnership",
      "outputs": [],
      "stateMutability": "nonpayable",
      "type": "function"
    },
    {
      "inputs": [],
      "name": "umi",
      "outputs": [
        {
          "internalType": "address",
          "name": "",
          "type": "address"
        }
      ],
      "stateMutability": "view",
      "type": "function"
    }
  ],
  "transactionHash": "0xc94c9bc605b5991cefc2978efe007bc1d764da016efed60dac9aa3191177cc83",
  "args": [
    "0x22724d4Aae7aEfeC6CD63a71aDe0FC929329Af46"
  ],
  "solcInputHash": "c8636892a644d78a44974fa8c74aafff",
  "bytecode": "0x608060405260405180608001604052806040518060400160405280601581526020017f596f7572206d6f746865722069732072696768742e00000000000000000000008152508152602001604051806060016040528060218152602001620052ec6021913981526020016040518060600160405280602a81526020016200530d602a913981526020016040518060400160405280600a81526020017f42652074686520656c6600000000000000000000000000000000000000000000815250815250600a906004620000d392919062000796565b506040518061028001604052806040518060400160405280600381526020017f317374000000000000000000000000000000000000000000000000000000000081525081526020016040518060400160405280600381526020017f326e64000000000000000000000000000000000000000000000000000000000081525081526020016040518060400160405280600381526020017f337264000000000000000000000000000000000000000000000000000000000081525081526020016040518060400160405280600381526020017f347468000000000000000000000000000000000000000000000000000000000081525081526020016040518060400160405280600381526020017f357468000000000000000000000000000000000000000000000000000000000081525081526020016040518060400160405280600381526020017f367468000000000000000000000000000000000000000000000000000000000081525081526020016040518060400160405280600381526020017f377468000000000000000000000000000000000000000000000000000000000081525081526020016040518060400160405280600381526020017f387468000000000000000000000000000000000000000000000000000000000081525081526020016040518060400160405280600381526020017f397468000000000000000000000000000000000000000000000000000000000081525081526020016040518060400160405280600481526020017f313074680000000000000000000000000000000000000000000000000000000081525081526020016040518060400160405280600481526020017f313174680000000000000000000000000000000000000000000000000000000081525081526020016040518060400160405280600481526020017f313274680000000000000000000000000000000000000000000000000000000081525081526020016040518060400160405280600481526020017f313374680000000000000000000000000000000000000000000000000000000081525081526020016040518060400160405280600481526020017f313474680000000000000000000000000000000000000000000000000000000081525081526020016040518060400160405280600481526020017f313574680000000000000000000000000000000000000000000000000000000081525081526020016040518060400160405280600481526020017f313674680000000000000000000000000000000000000000000000000000000081525081526020016040518060400160405280600481526020017f313774680000000000000000000000000000000000000000000000000000000081525081526020016040518060400160405280600481526020017f313874680000000000000000000000000000000000000000000000000000000081525081526020016040518060400160405280600481526020017f313974680000000000000000000000000000000000000000000000000000000081525081526020016040518060400160405280600481526020017f3230746800000000000000000000000000000000000000000000000000000000815250815250600e9060146200058c929190620007f0565b503480156200059a57600080fd5b5060405162005337380380620053378339818101604052810190620005c091906200097f565b6040518060400160405280600381526020017f556d6900000000000000000000000000000000000000000000000000000000008152506040518060400160405280600381526020017f554d4900000000000000000000000000000000000000000000000000000000008152508160009080519060200190620006449291906200084a565b5080600190805190602001906200065d9291906200084a565b5050506200068062000674620006c860201b60201c565b620006d060201b60201c565b80600960006101000a81548173ffffffffffffffffffffffffffffffffffffffff021916908373ffffffffffffffffffffffffffffffffffffffff1602179055505062000a5e565b600033905090565b6000600760009054906101000a900473ffffffffffffffffffffffffffffffffffffffff16905081600760006101000a81548173ffffffffffffffffffffffffffffffffffffffff021916908373ffffffffffffffffffffffffffffffffffffffff1602179055508173ffffffffffffffffffffffffffffffffffffffff168173ffffffffffffffffffffffffffffffffffffffff167f8be0079c531659141344cd1fd0a4f28419497f9722a3daafe3b4186f6b6457e060405160405180910390a35050565b8260048101928215620007dd579160200282015b82811115620007dc578251829080519060200190620007cb9291906200084a565b5091602001919060010190620007aa565b5b509050620007ec9190620008db565b5090565b826014810192821562000837579160200282015b8281111562000836578251829080519060200190620008259291906200084a565b509160200191906001019062000804565b5b509050620008469190620008db565b5090565b8280546200085890620009df565b90600052602060002090601f0160209004810192826200087c5760008555620008c8565b82601f106200089757805160ff1916838001178555620008c8565b82800160010185558215620008c8579182015b82811115620008c7578251825591602001919060010190620008aa565b5b509050620008d7919062000903565b5090565b5b80821115620008ff5760008181620008f5919062000922565b50600101620008dc565b5090565b5b808211156200091e57600081600090555060010162000904565b5090565b5080546200093090620009df565b6000825580601f1062000944575062000965565b601f01602090049060005260206000209081019062000964919062000903565b5b50565b600081519050620009798162000a44565b92915050565b6000602082840312156200099257600080fd5b6000620009a28482850162000968565b91505092915050565b6000620009b882620009bf565b9050919050565b600073ffffffffffffffffffffffffffffffffffffffff82169050919050565b60006002820490506001821680620009f857607f821691505b6020821081141562000a0f5762000a0e62000a15565b5b50919050565b7f4e487b7100000000000000000000000000000000000000000000000000000000600052602260045260246000fd5b62000a4f81620009ab565b811462000a5b57600080fd5b50565b61487e8062000a6e6000396000f3fe608060405234801561001057600080fd5b50600436106101585760003560e01c80638a97ec2a116100c3578063b8e4e77f1161007c578063b8e4e77f146103c7578063c87b56dd146103f7578063c906689d14610427578063e985e9c514610445578063f2b57a7614610475578063f2fde38b146104a557610158565b80638a97ec2a146103175780638da5cb5b1461033557806394dd453a1461035357806395d89b4114610371578063a22cb4651461038f578063b88d4fde146103ab57610158565b806323b872dd1161011557806323b872dd1461025757806342842e0e146102735780634fc465191461028f5780636352211e146102ad57806370a08231146102dd578063715018a61461030d57610158565b806301ffc9a71461015d578063046a53341461018d57806306fdde03146101bd578063081812fc146101db578063095ea7b31461020b5780631d3b8b1714610227575b600080fd5b61017760048036038101906101729190612d83565b6104c1565b604051610184919061376a565b60405180910390f35b6101a760048036038101906101a29190612dd5565b6105a3565b6040516101b49190613785565b60405180910390f35b6101c56106a6565b6040516101d29190613785565b60405180910390f35b6101f560048036038101906101f09190612dd5565b610738565b6040516102029190613703565b60405180910390f35b61022560048036038101906102209190612d47565b6107bd565b005b610241600480360381019061023c9190612dd5565b6108d5565b60405161024e9190613785565b60405180910390f35b610271600480360381019061026c9190612c41565b610978565b005b61028d60048036038101906102889190612c41565b6109d8565b005b6102976109f8565b6040516102a49190613785565b60405180910390f35b6102c760048036038101906102c29190612dd5565b610b2a565b6040516102d49190613703565b60405180910390f35b6102f760048036038101906102f29190612bdc565b610bdc565b60405161030491906139e7565b60405180910390f35b610315610c94565b005b61031f610d1c565b60405161032c91906139e7565b60405180910390f35b61033d610e28565b60405161034a9190613703565b60405180910390f35b61035b610e52565b6040516103689190613703565b60405180910390f35b610379610e78565b6040516103869190613785565b60405180910390f35b6103a960048036038101906103a49190612d0b565b610f0a565b005b6103c560048036038101906103c09190612c90565b61108b565b005b6103e160048036038101906103dc9190612dd5565b6110ed565b6040516103ee9190613785565b60405180910390f35b610411600480360381019061040c9190612dd5565b611168565b60405161041e9190613785565b60405180910390f35b61042f6112ba565b60405161043c91906139e7565b60405180910390f35b61045f600480360381019061045a9190612c05565b611329565b60405161046c919061376a565b60405180910390f35b61048f600480360381019061048a9190612dd5565b6113bd565b60405161049c9190613785565b60405180910390f35b6104bf60048036038101906104ba9190612bdc565b611460565b005b60007f80ac58cd000000000000000000000000000000000000000000000000000000007bffffffffffffffffffffffffffffffffffffffffffffffffffffffff1916827bffffffffffffffffffffffffffffffffffffffffffffffffffffffff1916148061058c57507f5b5e139f000000000000000000000000000000000000000000000000000000007bffffffffffffffffffffffffffffffffffffffffffffffffffffffff1916827bffffffffffffffffffffffffffffffffffffffffffffffffffffffff1916145b8061059c575061059b82611558565b5b9050919050565b6060600061060e61015e4442600960009054906101000a900473ffffffffffffffffffffffffffffffffffffffff16876040516020016105e694939291906136b5565b6040516020818303038152906040528051906020012060001c6106099190613d99565b6115c2565b9050600061067961015e4345600960009054906101000a900473ffffffffffffffffffffffffffffffffffffffff168860405160200161065194939291906136b5565b6040516020818303038152906040528051906020012060001c6106749190613d99565b6115c2565b9050818160405160200161068e92919061358a565b60405160208183030381529060405292505050919050565b6060600080546106b590613cbf565b80601f01602080910402602001604051908101604052809291908181526020018280546106e190613cbf565b801561072e5780601f106107035761010080835404028352916020019161072e565b820191906000526020600020905b81548152906001019060200180831161071157829003601f168201915b5050505050905090565b600061074382611797565b610782576040517f08c379a000000000000000000000000000000000000000000000000000000000815260040161077990613927565b60405180910390fd5b6004600083815260200190815260200160002060009054906101000a900473ffffffffffffffffffffffffffffffffffffffff169050919050565b60006107c882610b2a565b90508073ffffffffffffffffffffffffffffffffffffffff168373ffffffffffffffffffffffffffffffffffffffff161415610839576040517f08c379a0000000000000000000000000000000000000000000000000000000008152600401610830906139a7565b60405180910390fd5b8073ffffffffffffffffffffffffffffffffffffffff16610858611803565b73ffffffffffffffffffffffffffffffffffffffff161480610887575061088681610881611803565b611329565b5b6108c6576040517f08c379a00000000000000000000000000000000000000000000000000000000081526004016108bd90613867565b60405180910390fd5b6108d0838361180b565b505050565b600e81601481106108e557600080fd5b0160009150905080546108f790613cbf565b80601f016020809104026020016040519081016040528092919081815260200182805461092390613cbf565b80156109705780601f1061094557610100808354040283529160200191610970565b820191906000526020600020905b81548152906001019060200180831161095357829003601f168201915b505050505081565b610989610983611803565b826118c4565b6109c8576040517f08c379a00000000000000000000000000000000000000000000000000000000081526004016109bf906139c7565b60405180910390fd5b6109d38383836119a2565b505050565b6109f38383836040518060200160405280600081525061108b565b505050565b6060600060044442600960009054906101000a900473ffffffffffffffffffffffffffffffffffffffff16604051602001610a3593929190613678565b6040516020818303038152906040528051906020012060001c610a589190613d99565b90506000600a8260048110610a96577f4e487b7100000000000000000000000000000000000000000000000000000000600052603260045260246000fd5b018054610aa290613cbf565b80601f0160208091040260200160405190810160405280929190818152602001828054610ace90613cbf565b8015610b1b5780601f10610af057610100808354040283529160200191610b1b565b820191906000526020600020905b815481529060010190602001808311610afe57829003601f168201915b50505050509050809250505090565b6000806002600084815260200190815260200160002060009054906101000a900473ffffffffffffffffffffffffffffffffffffffff169050600073ffffffffffffffffffffffffffffffffffffffff168173ffffffffffffffffffffffffffffffffffffffff161415610bd3576040517f08c379a0000000000000000000000000000000000000000000000000000000008152600401610bca906138a7565b60405180910390fd5b80915050919050565b60008073ffffffffffffffffffffffffffffffffffffffff168273ffffffffffffffffffffffffffffffffffffffff161415610c4d576040517f08c379a0000000000000000000000000000000000000000000000000000000008152600401610c4490613887565b60405180910390fd5b600360008373ffffffffffffffffffffffffffffffffffffffff1673ffffffffffffffffffffffffffffffffffffffff168152602001908152602001600020549050919050565b610c9c611803565b73ffffffffffffffffffffffffffffffffffffffff16610cba610e28565b73ffffffffffffffffffffffffffffffffffffffff1614610d10576040517f08c379a0000000000000000000000000000000000000000000000000000000008152600401610d0790613947565b60405180910390fd5b610d1a6000611bfe565b565b6000610d26611803565b73ffffffffffffffffffffffffffffffffffffffff16610d44610e28565b73ffffffffffffffffffffffffffffffffffffffff1614610d9a576040517f08c379a0000000000000000000000000000000000000000000000000000000008152600401610d9190613947565b60405180910390fd5b610da46008611cc4565b6000610db06008611cda565b9050610dbb81611ce8565b6000610dc5611d81565b90506000610dd282611e70565b9050610e00600960009054906101000a900473ffffffffffffffffffffffffffffffffffffffff1684611f09565b610e1f83610e1a83600187610e159190613bc8565b611f27565b61213a565b82935050505090565b6000600760009054906101000a900473ffffffffffffffffffffffffffffffffffffffff16905090565b600960009054906101000a900473ffffffffffffffffffffffffffffffffffffffff1681565b606060018054610e8790613cbf565b80601f0160208091040260200160405190810160405280929190818152602001828054610eb390613cbf565b8015610f005780601f10610ed557610100808354040283529160200191610f00565b820191906000526020600020905b815481529060010190602001808311610ee357829003601f168201915b5050505050905090565b610f12611803565b73ffffffffffffffffffffffffffffffffffffffff168273ffffffffffffffffffffffffffffffffffffffff161415610f80576040517f08c379a0000000000000000000000000000000000000000000000000000000008152600401610f7790613827565b60405180910390fd5b8060056000610f8d611803565b73ffffffffffffffffffffffffffffffffffffffff1673ffffffffffffffffffffffffffffffffffffffff16815260200190815260200160002060008473ffffffffffffffffffffffffffffffffffffffff1673ffffffffffffffffffffffffffffffffffffffff16815260200190815260200160002060006101000a81548160ff0219169083151502179055508173ffffffffffffffffffffffffffffffffffffffff1661103a611803565b73ffffffffffffffffffffffffffffffffffffffff167f17307eab39ab6107e8899845ad3d59bd9653f200f220920489ca2b5937696c318360405161107f919061376a565b60405180910390a35050565b61109c611096611803565b836118c4565b6110db576040517f08c379a00000000000000000000000000000000000000000000000000000000081526004016110d2906139c7565b60405180910390fd5b6110e7848484846121ae565b50505050565b6060611161600a60734442600960009054906101000a900473ffffffffffffffffffffffffffffffffffffffff168760405160200161112f94939291906136b5565b6040516020818303038152906040528051906020012060001c6111529190613d99565b61115c9190613ab0565b6115c2565b9050919050565b606061117382611797565b6111b2576040517f08c379a00000000000000000000000000000000000000000000000000000000081526004016111a990613907565b60405180910390fd5b60006006600084815260200190815260200160002080546111d290613cbf565b80601f01602080910402602001604051908101604052809291908181526020018280546111fe90613cbf565b801561124b5780601f106112205761010080835404028352916020019161124b565b820191906000526020600020905b81548152906001019060200180831161122e57829003601f168201915b50505050509050600061125c61220a565b90506000815114156112725781925050506112b5565b6000825111156112a757808260405160200161128f92919061347e565b604051602081830303815290604052925050506112b5565b6112b084612221565b925050505b919050565b6000600160034442600960009054906101000a900473ffffffffffffffffffffffffffffffffffffffff166040516020016112f793929190613678565b6040516020818303038152906040528051906020012060001c61131a9190613d99565b6113249190613ab0565b905090565b6000600560008473ffffffffffffffffffffffffffffffffffffffff1673ffffffffffffffffffffffffffffffffffffffff16815260200190815260200160002060008373ffffffffffffffffffffffffffffffffffffffff1673ffffffffffffffffffffffffffffffffffffffff16815260200190815260200160002060009054906101000a900460ff16905092915050565b600a81600481106113cd57600080fd5b0160009150905080546113df90613cbf565b80601f016020809104026020016040519081016040528092919081815260200182805461140b90613cbf565b80156114585780601f1061142d57610100808354040283529160200191611458565b820191906000526020600020905b81548152906001019060200180831161143b57829003601f168201915b505050505081565b611468611803565b73ffffffffffffffffffffffffffffffffffffffff16611486610e28565b73ffffffffffffffffffffffffffffffffffffffff16146114dc576040517f08c379a00000000000000000000000000000000000000000000000000000000081526004016114d390613947565b60405180910390fd5b600073ffffffffffffffffffffffffffffffffffffffff168173ffffffffffffffffffffffffffffffffffffffff16141561154c576040517f08c379a0000000000000000000000000000000000000000000000000000000008152600401611543906137c7565b60405180910390fd5b61155581611bfe565b50565b60007f01ffc9a7000000000000000000000000000000000000000000000000000000007bffffffffffffffffffffffffffffffffffffffffffffffffffffffff1916827bffffffffffffffffffffffffffffffffffffffffffffffffffffffff1916149050919050565b6060600082141561160a576040518060400160405280600181526020017f30000000000000000000000000000000000000000000000000000000000000008152509050611792565b600082905060005b6000821461163c57808061162590613d22565b915050600a826116359190613b3d565b9150611612565b60008167ffffffffffffffff81111561167e577f4e487b7100000000000000000000000000000000000000000000000000000000600052604160045260246000fd5b6040519080825280601f01601f1916602001820160405280156116b05781602001600182028036833780820191505090505b50905060008290505b6000861461178a576001816116ce9190613bc8565b90506000600a80886116e09190613b3d565b6116ea9190613b6e565b876116f59190613bc8565b60306117019190613b06565b905060008160f81b905080848481518110611745577f4e487b7100000000000000000000000000000000000000000000000000000000600052603260045260246000fd5b60200101907effffffffffffffffffffffffffffffffffffffffffffffffffffffffffffff1916908160001a905350600a886117819190613b3d565b975050506116b9565b819450505050505b919050565b60008073ffffffffffffffffffffffffffffffffffffffff166002600084815260200190815260200160002060009054906101000a900473ffffffffffffffffffffffffffffffffffffffff1673ffffffffffffffffffffffffffffffffffffffff1614159050919050565b600033905090565b816004600083815260200190815260200160002060006101000a81548173ffffffffffffffffffffffffffffffffffffffff021916908373ffffffffffffffffffffffffffffffffffffffff160217905550808273ffffffffffffffffffffffffffffffffffffffff1661187e83610b2a565b73ffffffffffffffffffffffffffffffffffffffff167f8c5be1e5ebec7d5bd14f71427d1e84f3dd0314c0f7b2291e5b200ac8c7c3b92560405160405180910390a45050565b60006118cf82611797565b61190e576040517f08c379a000000000000000000000000000000000000000000000000000000000815260040161190590613847565b60405180910390fd5b600061191983610b2a565b90508073ffffffffffffffffffffffffffffffffffffffff168473ffffffffffffffffffffffffffffffffffffffff16148061198857508373ffffffffffffffffffffffffffffffffffffffff1661197084610738565b73ffffffffffffffffffffffffffffffffffffffff16145b8061199957506119988185611329565b5b91505092915050565b8273ffffffffffffffffffffffffffffffffffffffff166119c282610b2a565b73ffffffffffffffffffffffffffffffffffffffff1614611a18576040517f08c379a0000000000000000000000000000000000000000000000000000000008152600401611a0f90613967565b60405180910390fd5b600073ffffffffffffffffffffffffffffffffffffffff168273ffffffffffffffffffffffffffffffffffffffff161415611a88576040517f08c379a0000000000000000000000000000000000000000000000000000000008152600401611a7f90613807565b60405180910390fd5b611a938383836122c8565b611a9e60008261180b565b6001600360008573ffffffffffffffffffffffffffffffffffffffff1673ffffffffffffffffffffffffffffffffffffffff1681526020019081526020016000206000828254611aee9190613bc8565b925050819055506001600360008473ffffffffffffffffffffffffffffffffffffffff1673ffffffffffffffffffffffffffffffffffffffff1681526020019081526020016000206000828254611b459190613ab0565b92505081905550816002600083815260200190815260200160002060006101000a81548173ffffffffffffffffffffffffffffffffffffffff021916908373ffffffffffffffffffffffffffffffffffffffff160217905550808273ffffffffffffffffffffffffffffffffffffffff168473ffffffffffffffffffffffffffffffffffffffff167fddf252ad1be2c89b69c2b068fc378daa952ba7f163c4a11628f55a4df523b3ef60405160405180910390a4505050565b6000600760009054906101000a900473ffffffffffffffffffffffffffffffffffffffff16905081600760006101000a81548173ffffffffffffffffffffffffffffffffffffffff021916908373ffffffffffffffffffffffffffffffffffffffff1602179055508173ffffffffffffffffffffffffffffffffffffffff168173ffffffffffffffffffffffffffffffffffffffff167f8be0079c531659141344cd1fd0a4f28419497f9722a3daafe3b4186f6b6457e060405160405180910390a35050565b6001816000016000828254019250508190555050565b600081600001549050919050565b611d7e81604051602401611cfc91906139e7565b6040516020818303038152906040527ff5b1bba9000000000000000000000000000000000000000000000000000000007bffffffffffffffffffffffffffffffffffffffffffffffffffffffff19166020820180517bffffffffffffffffffffffffffffffffffffffffffffffffffffffff83818316178352505050506122cd565b50565b6060604051602001611d92906135cf565b604051602081830303815290604052905080604051602001611db491906134f5565b604051602081830303815290604052905060005b6003811015611e16576000611ddc826122f6565b90508281604051602001611df192919061347e565b6040516020818303038152906040529250508080611e0e90613d22565b915050611dc8565b506000611e216109f8565b9050600081604051602001611e3691906135e4565b60405160208183030381529060405290508281604051602001611e5a9291906134a2565b6040516020818303038152906040529250505090565b606060006040518060400160405280601a81526020017f646174613a696d6167652f7376672b786d6c3b6261736536342c00000000000081525090506000611ed684604051602001611ec29190613467565b60405160208183030381529060405261233d565b905060008282604051602001611eed92919061347e565b6040516020818303038152906040529050809350505050919050565b611f238282604051806020016040528060008152506124e8565b5050565b60608060138311611ffd57600e8360148110611f6c577f4e487b7100000000000000000000000000000000000000000000000000000000600052603260045260246000fd5b018054611f7890613cbf565b80601f0160208091040260200160405190810160405280929190818152602001828054611fa490613cbf565b8015611ff15780601f10611fc657610100808354040283529160200191611ff1565b820191906000526020600020905b815481529060010190602001808311611fd457829003601f168201915b505050505090506120e6565b6014831015801561200f575060638311155b156120a3576000600a846120239190613b3d565b90506000600a856120349190613d99565b905061203f826115c2565b600e8260148110612079577f4e487b7100000000000000000000000000000000000000000000000000000000600052603260045260246000fd5b0160405160200161208b9291906134d1565b604051602081830303815290604052925050506120e5565b606483106120e4576040518060400160405280600381526020017f39392b000000000000000000000000000000000000000000000000000000000081525090505b5b5b6121128182866040516020016120fe93929190613517565b60405160208183030381529060405261233d565b6040516020016121229190613656565b60405160208183030381529060405291505092915050565b61214382611797565b612182576040517f08c379a0000000000000000000000000000000000000000000000000000000008152600401612179906138c7565b60405180910390fd5b806006600084815260200190815260200160002090805190602001906121a9929190612a68565b505050565b6121b98484846119a2565b6121c584848484612543565b612204576040517f08c379a00000000000000000000000000000000000000000000000000000000081526004016121fb906137a7565b60405180910390fd5b50505050565b606060405180602001604052806000815250905090565b606061222c82611797565b61226b576040517f08c379a000000000000000000000000000000000000000000000000000000000815260040161226290613987565b60405180910390fd5b600061227561220a565b9050600081511161229557604051806020016040528060008152506122c0565b8061229f846126da565b6040516020016122b092919061347e565b6040516020818303038152906040525b915050919050565b505050565b60008151905060006a636f6e736f6c652e6c6f679050602083016000808483855afa5050505050565b60606000612303836105a3565b90506000612310846110ed565b90508181604051602001612325929190613611565b60405160208183030381529060405292505050919050565b6060600082511415612360576040518060200160405280600081525090506124e3565b6000604051806060016040528060408152602001614809604091399050600060036002855161238f9190613ab0565b6123999190613b3d565b60046123a59190613b6e565b905060006020826123b69190613ab0565b67ffffffffffffffff8111156123f5577f4e487b7100000000000000000000000000000000000000000000000000000000600052604160045260246000fd5b6040519080825280601f01601f1916602001820160405280156124275781602001600182028036833780820191505090505b509050818152600183018586518101602084015b818310156124a2576003830192508251603f8160121c1685015160f81b8252600182019150603f81600c1c1685015160f81b8252600182019150603f8160061c1685015160f81b8252600182019150603f811685015160f81b82526001820191505061243b565b6003895106600181146124bc57600281146124cc576124d7565b613d3d60f01b60028303526124d7565b603d60f81b60018303525b50505050508093505050505b919050565b6124f28383612887565b6124ff6000848484612543565b61253e576040517f08c379a0000000000000000000000000000000000000000000000000000000008152600401612535906137a7565b60405180910390fd5b505050565b60006125648473ffffffffffffffffffffffffffffffffffffffff16612a55565b156126cd578373ffffffffffffffffffffffffffffffffffffffff1663150b7a0261258d611803565b8786866040518563ffffffff1660e01b81526004016125af949392919061371e565b602060405180830381600087803b1580156125c957600080fd5b505af19250505080156125fa57506040513d601f19601f820116820180604052508101906125f79190612dac565b60015b61267d573d806000811461262a576040519150601f19603f3d011682016040523d82523d6000602084013e61262f565b606091505b50600081511415612675576040517f08c379a000000000000000000000000000000000000000000000000000000000815260040161266c906137a7565b60405180910390fd5b805181602001fd5b63150b7a0260e01b7bffffffffffffffffffffffffffffffffffffffffffffffffffffffff1916817bffffffffffffffffffffffffffffffffffffffffffffffffffffffff1916149150506126d2565b600190505b949350505050565b60606000821415612722576040518060400160405280600181526020017f30000000000000000000000000000000000000000000000000000000000000008152509050612882565b600082905060005b6000821461275457808061273d90613d22565b915050600a8261274d9190613b3d565b915061272a565b60008167ffffffffffffffff811115612796577f4e487b7100000000000000000000000000000000000000000000000000000000600052604160045260246000fd5b6040519080825280601f01601f1916602001820160405280156127c85781602001600182028036833780820191505090505b5090505b6000851461287b576001826127e19190613bc8565b9150600a856127f09190613d99565b60306127fc9190613ab0565b60f81b818381518110612838577f4e487b7100000000000000000000000000000000000000000000000000000000600052603260045260246000fd5b60200101907effffffffffffffffffffffffffffffffffffffffffffffffffffffffffffff1916908160001a905350600a856128749190613b3d565b94506127cc565b8093505050505b919050565b600073ffffffffffffffffffffffffffffffffffffffff168273ffffffffffffffffffffffffffffffffffffffff1614156128f7576040517f08c379a00000000000000000000000000000000000000000000000000000000081526004016128ee906138e7565b60405180910390fd5b61290081611797565b15612940576040517f08c379a0000000000000000000000000000000000000000000000000000000008152600401612937906137e7565b60405180910390fd5b61294c600083836122c8565b6001600360008473ffffffffffffffffffffffffffffffffffffffff1673ffffffffffffffffffffffffffffffffffffffff168152602001908152602001600020600082825461299c9190613ab0565b92505081905550816002600083815260200190815260200160002060006101000a81548173ffffffffffffffffffffffffffffffffffffffff021916908373ffffffffffffffffffffffffffffffffffffffff160217905550808273ffffffffffffffffffffffffffffffffffffffff16600073ffffffffffffffffffffffffffffffffffffffff167fddf252ad1be2c89b69c2b068fc378daa952ba7f163c4a11628f55a4df523b3ef60405160405180910390a45050565b600080823b905060008111915050919050565b828054612a7490613cbf565b90600052602060002090601f016020900481019282612a965760008555612add565b82601f10612aaf57805160ff1916838001178555612add565b82800160010185558215612add579182015b82811115612adc578251825591602001919060010190612ac1565b5b509050612aea9190612aee565b5090565b5b80821115612b07576000816000905550600101612aef565b5090565b6000612b1e612b1984613a27565b613a02565b905082815260208101848484011115612b3657600080fd5b612b41848285613c7d565b509392505050565b600081359050612b58816147ac565b92915050565b600081359050612b6d816147c3565b92915050565b600081359050612b82816147da565b92915050565b600081519050612b97816147da565b92915050565b600082601f830112612bae57600080fd5b8135612bbe848260208601612b0b565b91505092915050565b600081359050612bd6816147f1565b92915050565b600060208284031215612bee57600080fd5b6000612bfc84828501612b49565b91505092915050565b60008060408385031215612c1857600080fd5b6000612c2685828601612b49565b9250506020612c3785828601612b49565b9150509250929050565b600080600060608486031215612c5657600080fd5b6000612c6486828701612b49565b9350506020612c7586828701612b49565b9250506040612c8686828701612bc7565b9150509250925092565b60008060008060808587031215612ca657600080fd5b6000612cb487828801612b49565b9450506020612cc587828801612b49565b9350506040612cd687828801612bc7565b925050606085013567ffffffffffffffff811115612cf357600080fd5b612cff87828801612b9d565b91505092959194509250565b60008060408385031215612d1e57600080fd5b6000612d2c85828601612b49565b9250506020612d3d85828601612b5e565b9150509250929050565b60008060408385031215612d5a57600080fd5b6000612d6885828601612b49565b9250506020612d7985828601612bc7565b9150509250929050565b600060208284031215612d9557600080fd5b6000612da384828501612b73565b91505092915050565b600060208284031215612dbe57600080fd5b6000612dcc84828501612b88565b91505092915050565b600060208284031215612de757600080fd5b6000612df584828501612bc7565b91505092915050565b612e0781613bfc565b82525050565b612e1e612e1982613bfc565b613d6b565b82525050565b612e2d81613c0e565b82525050565b6000612e3e82613a6d565b612e488185613a83565b9350612e58818560208601613c8c565b612e6181613e86565b840191505092915050565b6000612e7782613a78565b612e818185613a94565b9350612e91818560208601613c8c565b612e9a81613e86565b840191505092915050565b6000612eb082613a78565b612eba8185613aa5565b9350612eca818560208601613c8c565b80840191505092915050565b60008154612ee381613cbf565b612eed8186613aa5565b94506001821660008114612f085760018114612f1957612f4c565b60ff19831686528186019350612f4c565b612f2285613a58565b60005b83811015612f4457815481890152600182019150602081019050612f25565b838801955050505b50505092915050565b6000612f62604783613aa5565b9150612f6d82613ea4565b604782019050919050565b6000612f85600683613aa5565b9150612f9082613f19565b600682019050919050565b6000612fa8600983613aa5565b9150612fb382613f42565b600982019050919050565b6000612fcb600b83613aa5565b9150612fd682613f6b565b600b82019050919050565b6000612fee603283613a94565b9150612ff982613f94565b604082019050919050565b6000613011602683613a94565b915061301c82613fe3565b604082019050919050565b6000613034600483613aa5565b915061303f82614032565b600482019050919050565b6000613057604f83613aa5565b91506130628261405b565b604f82019050919050565b600061307a601c83613a94565b9150613085826140d0565b602082019050919050565b600061309d600483613aa5565b91506130a8826140f9565b600482019050919050565b60006130c0602483613a94565b91506130cb82614122565b604082019050919050565b60006130e3601983613a94565b91506130ee82614171565b602082019050919050565b6000613106602c83613a94565b91506131118261419a565b604082019050919050565b6000613129605383613aa5565b9150613134826141e9565b605382019050919050565b600061314c600683613aa5565b91506131578261425e565b600682019050919050565b600061316f603883613a94565b915061317a82614287565b604082019050919050565b6000613192600183613aa5565b915061319d826142d6565b600182019050919050565b60006131b5602a83613a94565b91506131c0826142ff565b604082019050919050565b60006131d8602983613a94565b91506131e38261434e565b604082019050919050565b60006131fb602e83613a94565b91506132068261439d565b604082019050919050565b600061321e600b83613aa5565b9150613229826143ec565b600b82019050919050565b6000613241604f83613aa5565b915061324c82614415565b604f82019050919050565b6000613264600283613aa5565b915061326f8261448a565b600282019050919050565b6000613287600783613aa5565b9150613292826144b3565b600782019050919050565b60006132aa602083613a94565b91506132b5826144dc565b602082019050919050565b60006132cd603183613a94565b91506132d882614505565b604082019050919050565b60006132f0602c83613a94565b91506132fb82614554565b604082019050919050565b6000613313602083613a94565b915061331e826145a3565b602082019050919050565b6000613336602983613a94565b9150613341826145cc565b604082019050919050565b6000613359602f83613a94565b91506133648261461b565b604082019050919050565b600061337c602183613a94565b91506133878261466a565b604082019050919050565b600061339f601d83613aa5565b91506133aa826146b9565b601d82019050919050565b60006133c2603183613a94565b91506133cd826146e2565b604082019050919050565b60006133e5601683613aa5565b91506133f082614731565b601682019050919050565b6000613408600e83613aa5565b91506134138261475a565b600e82019050919050565b600061342b600683613aa5565b915061343682614783565b600682019050919050565b61344a81613c66565b82525050565b61346161345c82613c66565b613d8f565b82525050565b60006134738284612ea5565b915081905092915050565b600061348a8285612ea5565b91506134968284612ea5565b91508190509392505050565b60006134ae8285612ea5565b91506134ba8284612ea5565b91506134c58261341e565b91508190509392505050565b60006134dd8285612ea5565b91506134e98284612ed6565b91508190509392505050565b60006135018284612ea5565b915061350c82613234565b915081905092915050565b600061352282612f9b565b915061352d8261313f565b91506135398286612ea5565b9150613544826133fb565b915061354f82612f55565b915061355b8285612ea5565b915061356682612fbe565b91506135728284612ea5565b915061357d82613257565b9150819050949350505050565b600061359582613027565b91506135a18285612ea5565b91506135ac82612f78565b91506135b88284612ea5565b91506135c382613185565b91508190509392505050565b60006135da8261304a565b9150819050919050565b60006135ef8261311c565b91506135fb8284612ea5565b91506136068261327a565b915081905092915050565b600061361c82613211565b91506136288285612ea5565b915061363382613090565b915061363f8284612ea5565b915061364a826133d8565b91508190509392505050565b600061366182613392565b915061366d8284612ea5565b915081905092915050565b60006136848286613450565b6020820191506136948285613450565b6020820191506136a48284612e0d565b601482019150819050949350505050565b60006136c18287613450565b6020820191506136d18286613450565b6020820191506136e18285612e0d565b6014820191506136f18284613450565b60208201915081905095945050505050565b60006020820190506137186000830184612dfe565b92915050565b60006080820190506137336000830187612dfe565b6137406020830186612dfe565b61374d6040830185613441565b818103606083015261375f8184612e33565b905095945050505050565b600060208201905061377f6000830184612e24565b92915050565b6000602082019050818103600083015261379f8184612e6c565b905092915050565b600060208201905081810360008301526137c081612fe1565b9050919050565b600060208201905081810360008301526137e081613004565b9050919050565b600060208201905081810360008301526138008161306d565b9050919050565b60006020820190508181036000830152613820816130b3565b9050919050565b60006020820190508181036000830152613840816130d6565b9050919050565b60006020820190508181036000830152613860816130f9565b9050919050565b6000602082019050818103600083015261388081613162565b9050919050565b600060208201905081810360008301526138a0816131a8565b9050919050565b600060208201905081810360008301526138c0816131cb565b9050919050565b600060208201905081810360008301526138e0816131ee565b9050919050565b600060208201905081810360008301526139008161329d565b9050919050565b60006020820190508181036000830152613920816132c0565b9050919050565b60006020820190508181036000830152613940816132e3565b9050919050565b6000602082019050818103600083015261396081613306565b9050919050565b6000602082019050818103600083015261398081613329565b9050919050565b600060208201905081810360008301526139a08161334c565b9050919050565b600060208201905081810360008301526139c08161336f565b9050919050565b600060208201905081810360008301526139e0816133b5565b9050919050565b60006020820190506139fc6000830184613441565b92915050565b6000613a0c613a1d565b9050613a188282613cf1565b919050565b6000604051905090565b600067ffffffffffffffff821115613a4257613a41613e57565b5b613a4b82613e86565b9050602081019050919050565b60008190508160005260206000209050919050565b600081519050919050565b600081519050919050565b600082825260208201905092915050565b600082825260208201905092915050565b600081905092915050565b6000613abb82613c66565b9150613ac683613c66565b9250827fffffffffffffffffffffffffffffffffffffffffffffffffffffffffffffffff03821115613afb57613afa613dca565b5b828201905092915050565b6000613b1182613c70565b9150613b1c83613c70565b92508260ff03821115613b3257613b31613dca565b5b828201905092915050565b6000613b4882613c66565b9150613b5383613c66565b925082613b6357613b62613df9565b5b828204905092915050565b6000613b7982613c66565b9150613b8483613c66565b9250817fffffffffffffffffffffffffffffffffffffffffffffffffffffffffffffffff0483118215151615613bbd57613bbc613dca565b5b828202905092915050565b6000613bd382613c66565b9150613bde83613c66565b925082821015613bf157613bf0613dca565b5b828203905092915050565b6000613c0782613c46565b9050919050565b60008115159050919050565b60007fffffffff0000000000000000000000000000000000000000000000000000000082169050919050565b600073ffffffffffffffffffffffffffffffffffffffff82169050919050565b6000819050919050565b600060ff82169050919050565b82818337600083830152505050565b60005b83811015613caa578082015181840152602081019050613c8f565b83811115613cb9576000848401525b50505050565b60006002820490506001821680613cd757607f821691505b60208210811415613ceb57613cea613e28565b5b50919050565b613cfa82613e86565b810181811067ffffffffffffffff82111715613d1957613d18613e57565b5b80604052505050565b6000613d2d82613c66565b91507fffffffffffffffffffffffffffffffffffffffffffffffffffffffffffffffff821415613d6057613d5f613dca565b5b600182019050919050565b6000613d7682613d7d565b9050919050565b6000613d8882613e97565b9050919050565b6000819050919050565b6000613da482613c66565b9150613daf83613c66565b925082613dbf57613dbe613df9565b5b828206905092915050565b7f4e487b7100000000000000000000000000000000000000000000000000000000600052601160045260246000fd5b7f4e487b7100000000000000000000000000000000000000000000000000000000600052601260045260246000fd5b7f4e487b7100000000000000000000000000000000000000000000000000000000600052602260045260246000fd5b7f4e487b7100000000000000000000000000000000000000000000000000000000600052604160045260246000fd5b6000601f19601f8301169050919050565b60008160601b9050919050565b7f222c20226465736372697074696f6e223a22556e736f6c69636974656420616460008201527f76696365206f6e20796f75722062697274686461792e222c202261747472696260208201527f75746573223a2200000000000000000000000000000000000000000000000000604082015250565b7f222063793d220000000000000000000000000000000000000000000000000000600082015250565b7f7b226e616d65223a220000000000000000000000000000000000000000000000600082015250565b7f222c22696d616765223a22000000000000000000000000000000000000000000600082015250565b7f4552433732313a207472616e7366657220746f206e6f6e20455243373231526560008201527f63656976657220696d706c656d656e7465720000000000000000000000000000602082015250565b7f4f776e61626c653a206e6577206f776e657220697320746865207a65726f206160008201527f6464726573730000000000000000000000000000000000000000000000000000602082015250565b7f63783d2200000000000000000000000000000000000000000000000000000000600082015250565b7f3c7376672077696474683d2233353022206865696768743d223335302220666960008201527f6c6c3d2022626c61636b2220786d6c6e733d22687474703a2f2f7777772e773360208201527f2e6f72672f323030302f737667223e0000000000000000000000000000000000604082015250565b7f4552433732313a20746f6b656e20616c7265616479206d696e74656400000000600082015250565b7f20723d2200000000000000000000000000000000000000000000000000000000600082015250565b7f4552433732313a207472616e7366657220746f20746865207a65726f2061646460008201527f7265737300000000000000000000000000000000000000000000000000000000602082015250565b7f4552433732313a20617070726f766520746f2063616c6c657200000000000000600082015250565b7f4552433732313a206f70657261746f7220717565727920666f72206e6f6e657860008201527f697374656e7420746f6b656e0000000000000000000000000000000000000000602082015250565b7f3c7465787420783d223530252220793d223530252220646f6d696e616e742d6260008201527f6173656c696e653d226d6964646c652220746578742d616e63686f723d226d6960208201527f64646c652220636c6173733d2262617365223e00000000000000000000000000604082015250565b7f4861707079200000000000000000000000000000000000000000000000000000600082015250565b7f4552433732313a20617070726f76652063616c6c6572206973206e6f74206f7760008201527f6e6572206e6f7220617070726f76656420666f7220616c6c0000000000000000602082015250565b7f2200000000000000000000000000000000000000000000000000000000000000600082015250565b7f4552433732313a2062616c616e636520717565727920666f7220746865207a6560008201527f726f206164647265737300000000000000000000000000000000000000000000602082015250565b7f4552433732313a206f776e657220717565727920666f72206e6f6e657869737460008201527f656e7420746f6b656e0000000000000000000000000000000000000000000000602082015250565b7f45524337323155524953746f726167653a2055524920736574206f66206e6f6e60008201527f6578697374656e7420746f6b656e000000000000000000000000000000000000602082015250565b7f3c673e3c636972636c6520000000000000000000000000000000000000000000600082015250565b7f3c7374796c653e2e62617365207b2066696c6c3a20626c61636b3b20666f6e7460008201527f2d66616d696c793a2073616e732d73657269663b20666f6e742d73697a653a2060208201527f313470783b207d3c2f7374796c653e0000000000000000000000000000000000604082015250565b7f227d000000000000000000000000000000000000000000000000000000000000600082015250565b7f3c2f746578743e00000000000000000000000000000000000000000000000000600082015250565b7f4552433732313a206d696e7420746f20746865207a65726f2061646472657373600082015250565b7f45524337323155524953746f726167653a2055524920717565727920666f722060008201527f6e6f6e6578697374656e7420746f6b656e000000000000000000000000000000602082015250565b7f4552433732313a20617070726f76656420717565727920666f72206e6f6e657860008201527f697374656e7420746f6b656e0000000000000000000000000000000000000000602082015250565b7f4f776e61626c653a2063616c6c6572206973206e6f7420746865206f776e6572600082015250565b7f4552433732313a207472616e73666572206f6620746f6b656e2074686174206960008201527f73206e6f74206f776e0000000000000000000000000000000000000000000000602082015250565b7f4552433732314d657461646174613a2055524920717565727920666f72206e6f60008201527f6e6578697374656e7420746f6b656e0000000000000000000000000000000000602082015250565b7f4552433732313a20617070726f76616c20746f2063757272656e74206f776e6560008201527f7200000000000000000000000000000000000000000000000000000000000000602082015250565b7f646174613a6170706c69636174696f6e2f6a736f6e3b6261736536342c000000600082015250565b7f4552433732313a207472616e736665722063616c6c6572206973206e6f74206f60008201527f776e6572206e6f7220617070726f766564000000000000000000000000000000602082015250565b7f222066696c6c3d2223464643413432222f3e3c2f673e00000000000000000000600082015250565b7f2042697274686461792c20556d69000000000000000000000000000000000000600082015250565b7f3c2f7376673e0000000000000000000000000000000000000000000000000000600082015250565b6147b581613bfc565b81146147c057600080fd5b50565b6147cc81613c0e565b81146147d757600080fd5b50565b6147e381613c1a565b81146147ee57600080fd5b50565b6147fa81613c66565b811461480557600080fd5b5056fe4142434445464748494a4b4c4d4e4f505152535455565758595a6162636465666768696a6b6c6d6e6f707172737475767778797a303132333435363738392b2fa2646970667358221220372da0a192aaa7f4179e0cdd41ed5f019533e2766611de0f023dc0abc0c2106264736f6c63430008040033456e746875736961736d20697320776f72746820323520495120706f696e74732e537472696374207769746820796f757273656c662c20666f72676976696e67206f66206f74686572732e",
  "devdoc": {
    "kind": "dev",
    "methods": {
      "approve(address,uint256)": {
        "details": "See {IERC721-approve}."
      },
      "balanceOf(address)": {
        "details": "See {IERC721-balanceOf}."
      },
      "getApproved(uint256)": {
        "details": "See {IERC721-getApproved}."
      },
      "isApprovedForAll(address,address)": {
        "details": "See {IERC721-isApprovedForAll}."
      },
      "name()": {
        "details": "See {IERC721Metadata-name}."
      },
      "owner()": {
        "details": "Returns the address of the current owner."
      },
      "ownerOf(uint256)": {
        "details": "See {IERC721-ownerOf}."
      },
      "renounceOwnership()": {
        "details": "Leaves the contract without owner. It will not be possible to call `onlyOwner` functions anymore. Can only be called by the current owner. NOTE: Renouncing ownership will leave the contract without an owner, thereby removing any functionality that is only available to the owner."
      },
      "safeTransferFrom(address,address,uint256)": {
        "details": "See {IERC721-safeTransferFrom}."
      },
      "safeTransferFrom(address,address,uint256,bytes)": {
        "details": "See {IERC721-safeTransferFrom}."
      },
      "setApprovalForAll(address,bool)": {
        "details": "See {IERC721-setApprovalForAll}."
      },
      "supportsInterface(bytes4)": {
        "details": "See {IERC165-supportsInterface}."
      },
      "symbol()": {
        "details": "See {IERC721Metadata-symbol}."
      },
      "tokenURI(uint256)": {
        "details": "See {IERC721Metadata-tokenURI}."
      },
      "transferFrom(address,address,uint256)": {
        "details": "See {IERC721-transferFrom}."
      },
      "transferOwnership(address)": {
        "details": "Transfers ownership of the contract to a new account (`newOwner`). Can only be called by the current owner."
      }
    },
    "version": 1
  },
  "userdoc": {
    "kind": "user",
    "methods": {},
    "version": 1
  },
  "storageLayout": {
    "storage": [
      {
        "astId": 129,
        "contract": "contracts/Umi.sol:Umi",
        "label": "_name",
        "offset": 0,
        "slot": "0",
        "type": "t_string_storage"
      },
      {
        "astId": 131,
        "contract": "contracts/Umi.sol:Umi",
        "label": "_symbol",
        "offset": 0,
        "slot": "1",
        "type": "t_string_storage"
      },
      {
        "astId": 135,
        "contract": "contracts/Umi.sol:Umi",
        "label": "_owners",
        "offset": 0,
        "slot": "2",
        "type": "t_mapping(t_uint256,t_address)"
      },
      {
        "astId": 139,
        "contract": "contracts/Umi.sol:Umi",
        "label": "_balances",
        "offset": 0,
        "slot": "3",
        "type": "t_mapping(t_address,t_uint256)"
      },
      {
        "astId": 143,
        "contract": "contracts/Umi.sol:Umi",
        "label": "_tokenApprovals",
        "offset": 0,
        "slot": "4",
        "type": "t_mapping(t_uint256,t_address)"
      },
      {
        "astId": 149,
        "contract": "contracts/Umi.sol:Umi",
        "label": "_operatorApprovals",
        "offset": 0,
        "slot": "5",
        "type": "t_mapping(t_address,t_mapping(t_address,t_bool))"
      },
      {
        "astId": 1066,
        "contract": "contracts/Umi.sol:Umi",
        "label": "_tokenURIs",
        "offset": 0,
        "slot": "6",
        "type": "t_mapping(t_uint256,t_string_storage)"
      },
      {
        "astId": 7,
        "contract": "contracts/Umi.sol:Umi",
        "label": "_owner",
        "offset": 0,
        "slot": "7",
        "type": "t_address"
      },
      {
        "astId": 1908,
        "contract": "contracts/Umi.sol:Umi",
        "label": "_tokenIds",
        "offset": 0,
        "slot": "8",
        "type": "t_struct(Counter)1533_storage"
      },
      {
        "astId": 1910,
        "contract": "contracts/Umi.sol:Umi",
        "label": "umi",
        "offset": 0,
        "slot": "9",
        "type": "t_address"
      },
      {
        "astId": 1935,
        "contract": "contracts/Umi.sol:Umi",
        "label": "adviceList",
        "offset": 0,
        "slot": "10",
        "type": "t_array(t_string_storage)4_storage"
      },
      {
        "astId": 1960,
        "contract": "contracts/Umi.sol:Umi",
        "label": "bdayCount",
        "offset": 0,
        "slot": "14",
        "type": "t_array(t_string_storage)20_storage"
      }
    ],
    "types": {
      "t_address": {
        "encoding": "inplace",
        "label": "address",
        "numberOfBytes": "20"
      },
      "t_array(t_string_storage)20_storage": {
        "base": "t_string_storage",
        "encoding": "inplace",
        "label": "string[20]",
        "numberOfBytes": "640"
      },
      "t_array(t_string_storage)4_storage": {
        "base": "t_string_storage",
        "encoding": "inplace",
        "label": "string[4]",
        "numberOfBytes": "128"
      },
      "t_bool": {
        "encoding": "inplace",
        "label": "bool",
        "numberOfBytes": "1"
      },
      "t_mapping(t_address,t_bool)": {
        "encoding": "mapping",
        "key": "t_address",
        "label": "mapping(address => bool)",
        "numberOfBytes": "32",
        "value": "t_bool"
      },
      "t_mapping(t_address,t_mapping(t_address,t_bool))": {
        "encoding": "mapping",
        "key": "t_address",
        "label": "mapping(address => mapping(address => bool))",
        "numberOfBytes": "32",
        "value": "t_mapping(t_address,t_bool)"
      },
      "t_mapping(t_address,t_uint256)": {
        "encoding": "mapping",
        "key": "t_address",
        "label": "mapping(address => uint256)",
        "numberOfBytes": "32",
        "value": "t_uint256"
      },
      "t_mapping(t_uint256,t_address)": {
        "encoding": "mapping",
        "key": "t_uint256",
        "label": "mapping(uint256 => address)",
        "numberOfBytes": "32",
        "value": "t_address"
      },
      "t_mapping(t_uint256,t_string_storage)": {
        "encoding": "mapping",
        "key": "t_uint256",
        "label": "mapping(uint256 => string)",
        "numberOfBytes": "32",
        "value": "t_string_storage"
      },
      "t_string_storage": {
        "encoding": "bytes",
        "label": "string",
        "numberOfBytes": "32"
      },
      "t_struct(Counter)1533_storage": {
        "encoding": "inplace",
        "label": "struct Counters.Counter",
        "members": [
          {
            "astId": 1532,
            "contract": "contracts/Umi.sol:Umi",
            "label": "_value",
            "offset": 0,
            "slot": "0",
            "type": "t_uint256"
          }
        ],
        "numberOfBytes": "32"
      },
      "t_uint256": {
        "encoding": "inplace",
        "label": "uint256",
        "numberOfBytes": "32"
      }
    }
  }
}