{
  "_format": "hh-sol-artifact-1",
  "contractName": "Umi",
  "sourceName": "contracts/Umi.sol",
  "abi": [
    {
      "inputs": [
        {
          "internalType": "address",
          "name": "_umi",
          "type": "address"
        }
      ],
      "stateMutability": "nonpayable",
      "type": "constructor"
    },
    {
      "anonymous": false,
      "inputs": [
        {
          "indexed": true,
          "internalType": "address",
          "name": "owner",
          "type": "address"
        },
        {
          "indexed": true,
          "internalType": "address",
          "name": "approved",
          "type": "address"
        },
        {
          "indexed": true,
          "internalType": "uint256",
          "name": "tokenId",
          "type": "uint256"
        }
      ],
      "name": "Approval",
      "type": "event"
    },
    {
      "anonymous": false,
      "inputs": [
        {
          "indexed": true,
          "internalType": "address",
          "name": "owner",
          "type": "address"
        },
        {
          "indexed": true,
          "internalType": "address",
          "name": "operator",
          "type": "address"
        },
        {
          "indexed": false,
          "internalType": "bool",
          "name": "approved",
          "type": "bool"
        }
      ],
      "name": "ApprovalForAll",
      "type": "event"
    },
    {
      "anonymous": false,
      "inputs": [
        {
          "indexed": true,
          "internalType": "address",
          "name": "previousOwner",
          "type": "address"
        },
        {
          "indexed": true,
          "internalType": "address",
          "name": "newOwner",
          "type": "address"
        }
      ],
      "name": "OwnershipTransferred",
      "type": "event"
    },
    {
      "anonymous": false,
      "inputs": [
        {
          "indexed": true,
          "internalType": "address",
          "name": "from",
          "type": "address"
        },
        {
          "indexed": true,
          "internalType": "address",
          "name": "to",
          "type": "address"
        },
        {
          "indexed": true,
          "internalType": "uint256",
          "name": "tokenId",
          "type": "uint256"
        }
      ],
      "name": "Transfer",
      "type": "event"
    },
    {
      "inputs": [
        {
          "internalType": "uint256",
          "name": "",
          "type": "uint256"
        }
      ],
      "name": "adviceList",
      "outputs": [
        {
          "internalType": "string",
          "name": "",
          "type": "string"
        }
      ],
      "stateMutability": "view",
      "type": "function"
    },
    {
      "inputs": [
        {
          "internalType": "address",
          "name": "to",
          "type": "address"
        },
        {
          "internalType": "uint256",
          "name": "tokenId",
          "type": "uint256"
        }
      ],
      "name": "approve",
      "outputs": [],
      "stateMutability": "nonpayable",
      "type": "function"
    },
    {
      "inputs": [
        {
          "internalType": "address",
          "name": "owner",
          "type": "address"
        }
      ],
      "name": "balanceOf",
      "outputs": [
        {
          "internalType": "uint256",
          "name": "",
          "type": "uint256"
        }
      ],
      "stateMutability": "view",
      "type": "function"
    },
    {
      "inputs": [
        {
          "internalType": "uint256",
          "name": "",
          "type": "uint256"
        }
      ],
      "name": "bdayCount",
      "outputs": [
        {
          "internalType": "string",
          "name": "",
          "type": "string"
        }
      ],
      "stateMutability": "view",
      "type": "function"
    },
    {
      "inputs": [],
      "name": "createNFT",
      "outputs": [
        {
          "internalType": "uint256",
          "name": "",
          "type": "uint256"
        }
      ],
      "stateMutability": "nonpayable",
      "type": "function"
    },
    {
      "inputs": [],
      "name": "generateAdvice",
      "outputs": [
        {
          "internalType": "string",
          "name": "",
          "type": "string"
        }
      ],
      "stateMutability": "view",
      "type": "function"
    },
    {
      "inputs": [
        {
          "internalType": "uint256",
          "name": "tokenId",
          "type": "uint256"
        }
      ],
      "name": "getApproved",
      "outputs": [
        {
          "internalType": "address",
          "name": "",
          "type": "address"
        }
      ],
      "stateMutability": "view",
      "type": "function"
    },
    {
      "inputs": [
        {
          "internalType": "address",
          "name": "owner",
          "type": "address"
        },
        {
          "internalType": "address",
          "name": "operator",
          "type": "address"
        }
      ],
      "name": "isApprovedForAll",
      "outputs": [
        {
          "internalType": "bool",
          "name": "",
          "type": "bool"
        }
      ],
      "stateMutability": "view",
      "type": "function"
    },
    {
      "inputs": [],
      "name": "name",
      "outputs": [
        {
          "internalType": "string",
          "name": "",
          "type": "string"
        }
      ],
      "stateMutability": "view",
      "type": "function"
    },
    {
      "inputs": [],
      "name": "owner",
      "outputs": [
        {
          "internalType": "address",
          "name": "",
          "type": "address"
        }
      ],
      "stateMutability": "view",
      "type": "function"
    },
    {
      "inputs": [
        {
          "internalType": "uint256",
          "name": "tokenId",
          "type": "uint256"
        }
      ],
      "name": "ownerOf",
      "outputs": [
        {
          "internalType": "address",
          "name": "",
          "type": "address"
        }
      ],
      "stateMutability": "view",
      "type": "function"
    },
    {
      "inputs": [
        {
          "internalType": "uint256",
          "name": "_seed",
          "type": "uint256"
        }
      ],
      "name": "randomCoord",
      "outputs": [
        {
          "internalType": "string",
          "name": "coords",
          "type": "string"
        }
      ],
      "stateMutability": "view",
      "type": "function"
    },
    {
      "inputs": [
        {
          "internalType": "uint256",
          "name": "_seed",
          "type": "uint256"
        }
      ],
      "name": "randomRadius",
      "outputs": [
        {
          "internalType": "string",
          "name": "",
          "type": "string"
        }
      ],
      "stateMutability": "view",
      "type": "function"
    },
    {
      "inputs": [],
      "name": "renounceOwnership",
      "outputs": [],
      "stateMutability": "nonpayable",
      "type": "function"
    },
    {
      "inputs": [
        {
          "internalType": "address",
          "name": "from",
          "type": "address"
        },
        {
          "internalType": "address",
          "name": "to",
          "type": "address"
        },
        {
          "internalType": "uint256",
          "name": "tokenId",
          "type": "uint256"
        }
      ],
      "name": "safeTransferFrom",
      "outputs": [],
      "stateMutability": "nonpayable",
      "type": "function"
    },
    {
      "inputs": [
        {
          "internalType": "address",
          "name": "from",
          "type": "address"
        },
        {
          "internalType": "address",
          "name": "to",
          "type": "address"
        },
        {
          "internalType": "uint256",
          "name": "tokenId",
          "type": "uint256"
        },
        {
          "internalType": "bytes",
          "name": "_data",
          "type": "bytes"
        }
      ],
      "name": "safeTransferFrom",
      "outputs": [],
      "stateMutability": "nonpayable",
      "type": "function"
    },
    {
      "inputs": [
        {
          "internalType": "address",
          "name": "operator",
          "type": "address"
        },
        {
          "internalType": "bool",
          "name": "approved",
          "type": "bool"
        }
      ],
      "name": "setApprovalForAll",
      "outputs": [],
      "stateMutability": "nonpayable",
      "type": "function"
    },
    {
      "inputs": [
        {
          "internalType": "bytes4",
          "name": "interfaceId",
          "type": "bytes4"
        }
      ],
      "name": "supportsInterface",
      "outputs": [
        {
          "internalType": "bool",
          "name": "",
          "type": "bool"
        }
      ],
      "stateMutability": "view",
      "type": "function"
    },
    {
      "inputs": [],
      "name": "symbol",
      "outputs": [
        {
          "internalType": "string",
          "name": "",
          "type": "string"
        }
      ],
      "stateMutability": "view",
      "type": "function"
    },
    {
      "inputs": [
        {
          "internalType": "uint256",
          "name": "tokenId",
          "type": "uint256"
        }
      ],
      "name": "tokenURI",
      "outputs": [
        {
          "internalType": "string",
          "name": "",
          "type": "string"
        }
      ],
      "stateMutability": "view",
      "type": "function"
    },
    {
      "inputs": [
        {
          "internalType": "address",
          "name": "from",
          "type": "address"
        },
        {
          "internalType": "address",
          "name": "to",
          "type": "address"
        },
        {
          "internalType": "uint256",
          "name": "tokenId",
          "type": "uint256"
        }
      ],
      "name": "transferFrom",
      "outputs": [],
      "stateMutability": "nonpayable",
      "type": "function"
    },
    {
      "inputs": [
        {
          "internalType": "address",
          "name": "newOwner",
          "type": "address"
        }
      ],
      "name": "transferOwnership",
      "outputs": [],
      "stateMutability": "nonpayable",
      "type": "function"
    },
    {
      "inputs": [],
      "name": "umi",
      "outputs": [
        {
          "internalType": "address",
          "name": "",
          "type": "address"
        }
      ],
      "stateMutability": "view",
      "type": "function"
    }
  ],
  "bytecode": "0x6080604052604051806104a001604052806040518060400160405280601581526020017f596f7572206d6f746865722069732072696768742e0000000000000000000000815250815260200160405180606001604052806021815260200162005a7c6021913981526020016040518060600160405280603081526020016200581a6030913981526020016040518060400160405280601e81526020017f576f726b20746f206265636f6d652c206e6f7420746f206171756972652e000081525081526020016040518060400160405280601381526020017f43616c6d20697320636f6e746167696f75732e0000000000000000000000000081525081526020016040518060400160405280601581526020017f44616e6365207769746820796f757220686970732e000000000000000000000081525081526020016040518060600160405280602b815260200162005891602b913981526020016040518060400160405280601481526020017f4e6f207261696e2c206e6f207261696e626f772e00000000000000000000000081525081526020016040518060400160405280601f81526020017f416c776179732067697665206372656469742c2074616b6520626c616d652e0081525081526020016040518060400160405280601281526020017f446f6e27742074616b65206164766963652e00000000000000000000000000008152508152602001604051806080016040528060458152602001620058bc6045913981526020016040518060600160405280602a815260200162005a52602a913981526020016040518060400160405280601e81526020017f416c776179732063757420617761792066726f6d20796f757273656c662e0000815250815260200160405180606001604052806038815260200162005adc603891398152602001604051806060016040528060218152602001620057866021913981526020016040518060400160405280601d81526020017f41727420697320696e207768617420796f75206c65617665206f75742e000000815250815260200160405180606001604052806033815260200162005b906033913981526020016040518060600160405280602781526020016200571e60279139815260200160405180606001604052806037815260200162005b14603791398152602001604051806060016040528060408152602001620057a76040913981526020016040518060600160405280603e815260200162005901603e91398152602001604051806060016040528060348152602001620059836034913981526020016040518060400160405280601f81526020017f446f6ee280997420747275737420616c6c2d707572706f736520676c75652e0081525081526020016040518060400160405280601e81526020017f53686f772075702c207468656e206b6565702073686f77696e672075702e000081525081526020016040518060800160405280604481526020016200593f604491398152602001604051806060016040528060338152602001620057e76033913981526020016040518060600160405280603e815260200162005a14603e91398152602001604051806060016040528060238152602001620059b76023913981526020016040518060600160405280603e815260200162005901603e913981526020016040518060600160405280603f815260200162005a9d603f913981526020016040518060600160405280603b8152602001620056e3603b91398152602001604051806080016040528060418152602001620057456041913981526020016040518060400160405280601f81526020017f416c7761797320736179206c657373207468616e206e65636573736172792e0081525081526020016040518060800160405280604781526020016200584a6047913981526020016040518060600160405280603a8152602001620059da603a9139815260200160405180608001604052806045815260200162005b4b6045913981526020016040518060400160405280602081526020017f50726f6d70746e6573732069732061207369676e206f6620726573706563742e815250815250600a9060256200060792919062000cca565b506040518061028001604052806040518060400160405280600381526020017f317374000000000000000000000000000000000000000000000000000000000081525081526020016040518060400160405280600381526020017f326e64000000000000000000000000000000000000000000000000000000000081525081526020016040518060400160405280600381526020017f337264000000000000000000000000000000000000000000000000000000000081525081526020016040518060400160405280600381526020017f347468000000000000000000000000000000000000000000000000000000000081525081526020016040518060400160405280600381526020017f357468000000000000000000000000000000000000000000000000000000000081525081526020016040518060400160405280600381526020017f367468000000000000000000000000000000000000000000000000000000000081525081526020016040518060400160405280600381526020017f377468000000000000000000000000000000000000000000000000000000000081525081526020016040518060400160405280600381526020017f387468000000000000000000000000000000000000000000000000000000000081525081526020016040518060400160405280600381526020017f397468000000000000000000000000000000000000000000000000000000000081525081526020016040518060400160405280600481526020017f313074680000000000000000000000000000000000000000000000000000000081525081526020016040518060400160405280600481526020017f313174680000000000000000000000000000000000000000000000000000000081525081526020016040518060400160405280600481526020017f313274680000000000000000000000000000000000000000000000000000000081525081526020016040518060400160405280600481526020017f313374680000000000000000000000000000000000000000000000000000000081525081526020016040518060400160405280600481526020017f313474680000000000000000000000000000000000000000000000000000000081525081526020016040518060400160405280600481526020017f313574680000000000000000000000000000000000000000000000000000000081525081526020016040518060400160405280600481526020017f313674680000000000000000000000000000000000000000000000000000000081525081526020016040518060400160405280600481526020017f313774680000000000000000000000000000000000000000000000000000000081525081526020016040518060400160405280600481526020017f313874680000000000000000000000000000000000000000000000000000000081525081526020016040518060400160405280600481526020017f313974680000000000000000000000000000000000000000000000000000000081525081526020016040518060400160405280600481526020017f3230746800000000000000000000000000000000000000000000000000000000815250815250602f90601462000ac092919062000d24565b5034801562000ace57600080fd5b5060405162005bc338038062005bc3833981810160405281019062000af4919062000eb3565b6040518060400160405280600381526020017f556d6900000000000000000000000000000000000000000000000000000000008152506040518060400160405280600381526020017f554d490000000000000000000000000000000000000000000000000000000000815250816000908051906020019062000b7892919062000d7e565b50806001908051906020019062000b9192919062000d7e565b50505062000bb462000ba862000bfc60201b60201c565b62000c0460201b60201c565b80600960006101000a81548173ffffffffffffffffffffffffffffffffffffffff021916908373ffffffffffffffffffffffffffffffffffffffff1602179055505062000f92565b600033905090565b6000600760009054906101000a900473ffffffffffffffffffffffffffffffffffffffff16905081600760006101000a81548173ffffffffffffffffffffffffffffffffffffffff021916908373ffffffffffffffffffffffffffffffffffffffff1602179055508173ffffffffffffffffffffffffffffffffffffffff168173ffffffffffffffffffffffffffffffffffffffff167f8be0079c531659141344cd1fd0a4f28419497f9722a3daafe3b4186f6b6457e060405160405180910390a35050565b826025810192821562000d11579160200282015b8281111562000d1057825182908051906020019062000cff92919062000d7e565b509160200191906001019062000cde565b5b50905062000d20919062000e0f565b5090565b826014810192821562000d6b579160200282015b8281111562000d6a57825182908051906020019062000d5992919062000d7e565b509160200191906001019062000d38565b5b50905062000d7a919062000e0f565b5090565b82805462000d8c9062000f13565b90600052602060002090601f01602090048101928262000db0576000855562000dfc565b82601f1062000dcb57805160ff191683800117855562000dfc565b8280016001018555821562000dfc579182015b8281111562000dfb57825182559160200191906001019062000dde565b5b50905062000e0b919062000e37565b5090565b5b8082111562000e33576000818162000e29919062000e56565b5060010162000e10565b5090565b5b8082111562000e5257600081600090555060010162000e38565b5090565b50805462000e649062000f13565b6000825580601f1062000e78575062000e99565b601f01602090049060005260206000209081019062000e98919062000e37565b5b50565b60008151905062000ead8162000f78565b92915050565b60006020828403121562000ec657600080fd5b600062000ed68482850162000e9c565b91505092915050565b600062000eec8262000ef3565b9050919050565b600073ffffffffffffffffffffffffffffffffffffffff82169050919050565b6000600282049050600182168062000f2c57607f821691505b6020821081141562000f435762000f4262000f49565b5b50919050565b7f4e487b7100000000000000000000000000000000000000000000000000000000600052602260045260246000fd5b62000f838162000edf565b811462000f8f57600080fd5b50565b6147418062000fa26000396000f3fe608060405234801561001057600080fd5b506004361061014d5760003560e01c8063715018a6116100c3578063b88d4fde1161007c578063b88d4fde146103a0578063b8e4e77f146103bc578063c87b56dd146103ec578063e985e9c51461041c578063f2b57a761461044c578063f2fde38b1461047c5761014d565b8063715018a6146103025780638a97ec2a1461030c5780638da5cb5b1461032a57806394dd453a1461034857806395d89b4114610366578063a22cb465146103845761014d565b80631d3b8b17116101155780631d3b8b171461021c57806323b872dd1461024c57806342842e0e146102685780634fc46519146102845780636352211e146102a257806370a08231146102d25761014d565b806301ffc9a714610152578063046a53341461018257806306fdde03146101b2578063081812fc146101d0578063095ea7b314610200575b600080fd5b61016c60048036038101906101679190612c20565b610498565b6040516101799190613607565b60405180910390f35b61019c60048036038101906101979190612c72565b61057a565b6040516101a99190613622565b60405180910390f35b6101ba61067d565b6040516101c79190613622565b60405180910390f35b6101ea60048036038101906101e59190612c72565b61070f565b6040516101f791906135a0565b60405180910390f35b61021a60048036038101906102159190612be4565b610794565b005b61023660048036038101906102319190612c72565b6108ac565b6040516102439190613622565b60405180910390f35b61026660048036038101906102619190612ade565b61094f565b005b610282600480360381019061027d9190612ade565b6109af565b005b61028c6109cf565b6040516102999190613622565b60405180910390f35b6102bc60048036038101906102b79190612c72565b610b01565b6040516102c991906135a0565b60405180910390f35b6102ec60048036038101906102e79190612a79565b610bb3565b6040516102f99190613884565b60405180910390f35b61030a610c6b565b005b610314610cf3565b6040516103219190613884565b60405180910390f35b610332610df6565b60405161033f91906135a0565b60405180910390f35b610350610e20565b60405161035d91906135a0565b60405180910390f35b61036e610e46565b60405161037b9190613622565b60405180910390f35b61039e60048036038101906103999190612ba8565b610ed8565b005b6103ba60048036038101906103b59190612b2d565b611059565b005b6103d660048036038101906103d19190612c72565b6110bb565b6040516103e39190613622565b60405180910390f35b61040660048036038101906104019190612c72565b611136565b6040516104139190613622565b60405180910390f35b61043660048036038101906104319190612aa2565b611288565b6040516104439190613607565b60405180910390f35b61046660048036038101906104619190612c72565b61131c565b6040516104739190613622565b60405180910390f35b61049660048036038101906104919190612a79565b6113bf565b005b60007f80ac58cd000000000000000000000000000000000000000000000000000000007bffffffffffffffffffffffffffffffffffffffffffffffffffffffff1916827bffffffffffffffffffffffffffffffffffffffffffffffffffffffff1916148061056357507f5b5e139f000000000000000000000000000000000000000000000000000000007bffffffffffffffffffffffffffffffffffffffffffffffffffffffff1916827bffffffffffffffffffffffffffffffffffffffffffffffffffffffff1916145b806105735750610572826114b7565b5b9050919050565b606060006105e561015e4442600960009054906101000a900473ffffffffffffffffffffffffffffffffffffffff16876040516020016105bd9493929190613552565b6040516020818303038152906040528051906020012060001c6105e09190613c36565b611521565b9050600061065061015e4345600960009054906101000a900473ffffffffffffffffffffffffffffffffffffffff16886040516020016106289493929190613552565b6040516020818303038152906040528051906020012060001c61064b9190613c36565b611521565b90508181604051602001610665929190613427565b60405160208183030381529060405292505050919050565b60606000805461068c90613b5c565b80601f01602080910402602001604051908101604052809291908181526020018280546106b890613b5c565b80156107055780601f106106da57610100808354040283529160200191610705565b820191906000526020600020905b8154815290600101906020018083116106e857829003601f168201915b5050505050905090565b600061071a826116f6565b610759576040517f08c379a0000000000000000000000000000000000000000000000000000000008152600401610750906137c4565b60405180910390fd5b6004600083815260200190815260200160002060009054906101000a900473ffffffffffffffffffffffffffffffffffffffff169050919050565b600061079f82610b01565b90508073ffffffffffffffffffffffffffffffffffffffff168373ffffffffffffffffffffffffffffffffffffffff161415610810576040517f08c379a000000000000000000000000000000000000000000000000000000000815260040161080790613844565b60405180910390fd5b8073ffffffffffffffffffffffffffffffffffffffff1661082f611762565b73ffffffffffffffffffffffffffffffffffffffff16148061085e575061085d81610858611762565b611288565b5b61089d576040517f08c379a000000000000000000000000000000000000000000000000000000000815260040161089490613704565b60405180910390fd5b6108a7838361176a565b505050565b602f81601481106108bc57600080fd5b0160009150905080546108ce90613b5c565b80601f01602080910402602001604051908101604052809291908181526020018280546108fa90613b5c565b80156109475780601f1061091c57610100808354040283529160200191610947565b820191906000526020600020905b81548152906001019060200180831161092a57829003601f168201915b505050505081565b61096061095a611762565b82611823565b61099f576040517f08c379a000000000000000000000000000000000000000000000000000000000815260040161099690613864565b60405180910390fd5b6109aa838383611901565b505050565b6109ca83838360405180602001604052806000815250611059565b505050565b6060600060254442600960009054906101000a900473ffffffffffffffffffffffffffffffffffffffff16604051602001610a0c93929190613515565b6040516020818303038152906040528051906020012060001c610a2f9190613c36565b90506000600a8260258110610a6d577f4e487b7100000000000000000000000000000000000000000000000000000000600052603260045260246000fd5b018054610a7990613b5c565b80601f0160208091040260200160405190810160405280929190818152602001828054610aa590613b5c565b8015610af25780601f10610ac757610100808354040283529160200191610af2565b820191906000526020600020905b815481529060010190602001808311610ad557829003601f168201915b50505050509050809250505090565b6000806002600084815260200190815260200160002060009054906101000a900473ffffffffffffffffffffffffffffffffffffffff169050600073ffffffffffffffffffffffffffffffffffffffff168173ffffffffffffffffffffffffffffffffffffffff161415610baa576040517f08c379a0000000000000000000000000000000000000000000000000000000008152600401610ba190613744565b60405180910390fd5b80915050919050565b60008073ffffffffffffffffffffffffffffffffffffffff168273ffffffffffffffffffffffffffffffffffffffff161415610c24576040517f08c379a0000000000000000000000000000000000000000000000000000000008152600401610c1b90613724565b60405180910390fd5b600360008373ffffffffffffffffffffffffffffffffffffffff1673ffffffffffffffffffffffffffffffffffffffff168152602001908152602001600020549050919050565b610c73611762565b73ffffffffffffffffffffffffffffffffffffffff16610c91610df6565b73ffffffffffffffffffffffffffffffffffffffff1614610ce7576040517f08c379a0000000000000000000000000000000000000000000000000000000008152600401610cde906137e4565b60405180910390fd5b610cf16000611b5d565b565b6000610cfd611762565b73ffffffffffffffffffffffffffffffffffffffff16610d1b610df6565b73ffffffffffffffffffffffffffffffffffffffff1614610d71576040517f08c379a0000000000000000000000000000000000000000000000000000000008152600401610d68906137e4565b60405180910390fd5b610d7b6008611c23565b6000610d876008611c39565b90506000610d93611c47565b90506000610da082611d36565b9050610dce600960009054906101000a900473ffffffffffffffffffffffffffffffffffffffff1684611dcf565b610ded83610de883600187610de39190613a65565b611ded565b612000565b82935050505090565b6000600760009054906101000a900473ffffffffffffffffffffffffffffffffffffffff16905090565b600960009054906101000a900473ffffffffffffffffffffffffffffffffffffffff1681565b606060018054610e5590613b5c565b80601f0160208091040260200160405190810160405280929190818152602001828054610e8190613b5c565b8015610ece5780601f10610ea357610100808354040283529160200191610ece565b820191906000526020600020905b815481529060010190602001808311610eb157829003601f168201915b5050505050905090565b610ee0611762565b73ffffffffffffffffffffffffffffffffffffffff168273ffffffffffffffffffffffffffffffffffffffff161415610f4e576040517f08c379a0000000000000000000000000000000000000000000000000000000008152600401610f45906136c4565b60405180910390fd5b8060056000610f5b611762565b73ffffffffffffffffffffffffffffffffffffffff1673ffffffffffffffffffffffffffffffffffffffff16815260200190815260200160002060008473ffffffffffffffffffffffffffffffffffffffff1673ffffffffffffffffffffffffffffffffffffffff16815260200190815260200160002060006101000a81548160ff0219169083151502179055508173ffffffffffffffffffffffffffffffffffffffff16611008611762565b73ffffffffffffffffffffffffffffffffffffffff167f17307eab39ab6107e8899845ad3d59bd9653f200f220920489ca2b5937696c318360405161104d9190613607565b60405180910390a35050565b61106a611064611762565b83611823565b6110a9576040517f08c379a00000000000000000000000000000000000000000000000000000000081526004016110a090613864565b60405180910390fd5b6110b584848484612074565b50505050565b606061112f600a60734442600960009054906101000a900473ffffffffffffffffffffffffffffffffffffffff16876040516020016110fd9493929190613552565b6040516020818303038152906040528051906020012060001c6111209190613c36565b61112a919061394d565b611521565b9050919050565b6060611141826116f6565b611180576040517f08c379a0000000000000000000000000000000000000000000000000000000008152600401611177906137a4565b60405180910390fd5b60006006600084815260200190815260200160002080546111a090613b5c565b80601f01602080910402602001604051908101604052809291908181526020018280546111cc90613b5c565b80156112195780601f106111ee57610100808354040283529160200191611219565b820191906000526020600020905b8154815290600101906020018083116111fc57829003601f168201915b50505050509050600061122a6120d0565b9050600081511415611240578192505050611283565b60008251111561127557808260405160200161125d92919061331b565b60405160208183030381529060405292505050611283565b61127e846120e7565b925050505b919050565b6000600560008473ffffffffffffffffffffffffffffffffffffffff1673ffffffffffffffffffffffffffffffffffffffff16815260200190815260200160002060008373ffffffffffffffffffffffffffffffffffffffff1673ffffffffffffffffffffffffffffffffffffffff16815260200190815260200160002060009054906101000a900460ff16905092915050565b600a816025811061132c57600080fd5b01600091509050805461133e90613b5c565b80601f016020809104026020016040519081016040528092919081815260200182805461136a90613b5c565b80156113b75780601f1061138c576101008083540402835291602001916113b7565b820191906000526020600020905b81548152906001019060200180831161139a57829003601f168201915b505050505081565b6113c7611762565b73ffffffffffffffffffffffffffffffffffffffff166113e5610df6565b73ffffffffffffffffffffffffffffffffffffffff161461143b576040517f08c379a0000000000000000000000000000000000000000000000000000000008152600401611432906137e4565b60405180910390fd5b600073ffffffffffffffffffffffffffffffffffffffff168173ffffffffffffffffffffffffffffffffffffffff1614156114ab576040517f08c379a00000000000000000000000000000000000000000000000000000000081526004016114a290613664565b60405180910390fd5b6114b481611b5d565b50565b60007f01ffc9a7000000000000000000000000000000000000000000000000000000007bffffffffffffffffffffffffffffffffffffffffffffffffffffffff1916827bffffffffffffffffffffffffffffffffffffffffffffffffffffffff1916149050919050565b60606000821415611569576040518060400160405280600181526020017f300000000000000000000000000000000000000000000000000000000000000081525090506116f1565b600082905060005b6000821461159b57808061158490613bbf565b915050600a8261159491906139da565b9150611571565b60008167ffffffffffffffff8111156115dd577f4e487b7100000000000000000000000000000000000000000000000000000000600052604160045260246000fd5b6040519080825280601f01601f19166020018201604052801561160f5781602001600182028036833780820191505090505b50905060008290505b600086146116e95760018161162d9190613a65565b90506000600a808861163f91906139da565b6116499190613a0b565b876116549190613a65565b603061166091906139a3565b905060008160f81b9050808484815181106116a4577f4e487b7100000000000000000000000000000000000000000000000000000000600052603260045260246000fd5b60200101907effffffffffffffffffffffffffffffffffffffffffffffffffffffffffffff1916908160001a905350600a886116e091906139da565b97505050611618565b819450505050505b919050565b60008073ffffffffffffffffffffffffffffffffffffffff166002600084815260200190815260200160002060009054906101000a900473ffffffffffffffffffffffffffffffffffffffff1673ffffffffffffffffffffffffffffffffffffffff1614159050919050565b600033905090565b816004600083815260200190815260200160002060006101000a81548173ffffffffffffffffffffffffffffffffffffffff021916908373ffffffffffffffffffffffffffffffffffffffff160217905550808273ffffffffffffffffffffffffffffffffffffffff166117dd83610b01565b73ffffffffffffffffffffffffffffffffffffffff167f8c5be1e5ebec7d5bd14f71427d1e84f3dd0314c0f7b2291e5b200ac8c7c3b92560405160405180910390a45050565b600061182e826116f6565b61186d576040517f08c379a0000000000000000000000000000000000000000000000000000000008152600401611864906136e4565b60405180910390fd5b600061187883610b01565b90508073ffffffffffffffffffffffffffffffffffffffff168473ffffffffffffffffffffffffffffffffffffffff1614806118e757508373ffffffffffffffffffffffffffffffffffffffff166118cf8461070f565b73ffffffffffffffffffffffffffffffffffffffff16145b806118f857506118f78185611288565b5b91505092915050565b8273ffffffffffffffffffffffffffffffffffffffff1661192182610b01565b73ffffffffffffffffffffffffffffffffffffffff1614611977576040517f08c379a000000000000000000000000000000000000000000000000000000000815260040161196e90613804565b60405180910390fd5b600073ffffffffffffffffffffffffffffffffffffffff168273ffffffffffffffffffffffffffffffffffffffff1614156119e7576040517f08c379a00000000000000000000000000000000000000000000000000000000081526004016119de906136a4565b60405180910390fd5b6119f283838361218e565b6119fd60008261176a565b6001600360008573ffffffffffffffffffffffffffffffffffffffff1673ffffffffffffffffffffffffffffffffffffffff1681526020019081526020016000206000828254611a4d9190613a65565b925050819055506001600360008473ffffffffffffffffffffffffffffffffffffffff1673ffffffffffffffffffffffffffffffffffffffff1681526020019081526020016000206000828254611aa4919061394d565b92505081905550816002600083815260200190815260200160002060006101000a81548173ffffffffffffffffffffffffffffffffffffffff021916908373ffffffffffffffffffffffffffffffffffffffff160217905550808273ffffffffffffffffffffffffffffffffffffffff168473ffffffffffffffffffffffffffffffffffffffff167fddf252ad1be2c89b69c2b068fc378daa952ba7f163c4a11628f55a4df523b3ef60405160405180910390a4505050565b6000600760009054906101000a900473ffffffffffffffffffffffffffffffffffffffff16905081600760006101000a81548173ffffffffffffffffffffffffffffffffffffffff021916908373ffffffffffffffffffffffffffffffffffffffff1602179055508173ffffffffffffffffffffffffffffffffffffffff168173ffffffffffffffffffffffffffffffffffffffff167f8be0079c531659141344cd1fd0a4f28419497f9722a3daafe3b4186f6b6457e060405160405180910390a35050565b6001816000016000828254019250508190555050565b600081600001549050919050565b6060604051602001611c5890613500565b604051602081830303815290604052905080604051602001611c7a9190613392565b604051602081830303815290604052905060005b6003811015611cdc576000611ca282612193565b90508281604051602001611cb792919061331b565b6040516020818303038152906040529250508080611cd490613bbf565b915050611c8e565b506000611ce76109cf565b9050600081604051602001611cfc919061346c565b60405160208183030381529060405290508281604051602001611d2092919061333f565b6040516020818303038152906040529250505090565b606060006040518060400160405280601a81526020017f646174613a696d6167652f7376672b786d6c3b6261736536342c00000000000081525090506000611d9c84604051602001611d889190613304565b6040516020818303038152906040526121da565b905060008282604051602001611db392919061331b565b6040516020818303038152906040529050809350505050919050565b611de9828260405180602001604052806000815250612385565b5050565b60608060138311611ec357602f8360148110611e32577f4e487b7100000000000000000000000000000000000000000000000000000000600052603260045260246000fd5b018054611e3e90613b5c565b80601f0160208091040260200160405190810160405280929190818152602001828054611e6a90613b5c565b8015611eb75780601f10611e8c57610100808354040283529160200191611eb7565b820191906000526020600020905b815481529060010190602001808311611e9a57829003601f168201915b50505050509050611fac565b60148310158015611ed5575060638311155b15611f69576000600a84611ee991906139da565b90506000600a85611efa9190613c36565b9050611f0582611521565b602f8260148110611f3f577f4e487b7100000000000000000000000000000000000000000000000000000000600052603260045260246000fd5b01604051602001611f5192919061336e565b60405160208183030381529060405292505050611fab565b60648310611faa576040518060400160405280600381526020017f39392b000000000000000000000000000000000000000000000000000000000081525090505b5b5b611fd8818286604051602001611fc4939291906133b4565b6040516020818303038152906040526121da565b604051602001611fe891906134de565b60405160208183030381529060405291505092915050565b612009826116f6565b612048576040517f08c379a000000000000000000000000000000000000000000000000000000000815260040161203f90613764565b60405180910390fd5b8060066000848152602001908152602001600020908051906020019061206f929190612905565b505050565b61207f848484611901565b61208b848484846123e0565b6120ca576040517f08c379a00000000000000000000000000000000000000000000000000000000081526004016120c190613644565b60405180910390fd5b50505050565b606060405180602001604052806000815250905090565b60606120f2826116f6565b612131576040517f08c379a000000000000000000000000000000000000000000000000000000000815260040161212890613824565b60405180910390fd5b600061213b6120d0565b9050600081511161215b5760405180602001604052806000815250612186565b8061216584612577565b60405160200161217692919061331b565b6040516020818303038152906040525b915050919050565b505050565b606060006121a08361057a565b905060006121ad846110bb565b905081816040516020016121c2929190613499565b60405160208183030381529060405292505050919050565b60606000825114156121fd57604051806020016040528060008152509050612380565b60006040518060600160405280604081526020016146cc604091399050600060036002855161222c919061394d565b61223691906139da565b60046122429190613a0b565b90506000602082612253919061394d565b67ffffffffffffffff811115612292577f4e487b7100000000000000000000000000000000000000000000000000000000600052604160045260246000fd5b6040519080825280601f01601f1916602001820160405280156122c45781602001600182028036833780820191505090505b509050818152600183018586518101602084015b8183101561233f576003830192508251603f8160121c1685015160f81b8252600182019150603f81600c1c1685015160f81b8252600182019150603f8160061c1685015160f81b8252600182019150603f811685015160f81b8252600182019150506122d8565b600389510660018114612359576002811461236957612374565b613d3d60f01b6002830352612374565b603d60f81b60018303525b50505050508093505050505b919050565b61238f8383612724565b61239c60008484846123e0565b6123db576040517f08c379a00000000000000000000000000000000000000000000000000000000081526004016123d290613644565b60405180910390fd5b505050565b60006124018473ffffffffffffffffffffffffffffffffffffffff166128f2565b1561256a578373ffffffffffffffffffffffffffffffffffffffff1663150b7a0261242a611762565b8786866040518563ffffffff1660e01b815260040161244c94939291906135bb565b602060405180830381600087803b15801561246657600080fd5b505af192505050801561249757506040513d601f19601f820116820180604052508101906124949190612c49565b60015b61251a573d80600081146124c7576040519150601f19603f3d011682016040523d82523d6000602084013e6124cc565b606091505b50600081511415612512576040517f08c379a000000000000000000000000000000000000000000000000000000000815260040161250990613644565b60405180910390fd5b805181602001fd5b63150b7a0260e01b7bffffffffffffffffffffffffffffffffffffffffffffffffffffffff1916817bffffffffffffffffffffffffffffffffffffffffffffffffffffffff19161491505061256f565b600190505b949350505050565b606060008214156125bf576040518060400160405280600181526020017f3000000000000000000000000000000000000000000000000000000000000000815250905061271f565b600082905060005b600082146125f15780806125da90613bbf565b915050600a826125ea91906139da565b91506125c7565b60008167ffffffffffffffff811115612633577f4e487b7100000000000000000000000000000000000000000000000000000000600052604160045260246000fd5b6040519080825280601f01601f1916602001820160405280156126655781602001600182028036833780820191505090505b5090505b600085146127185760018261267e9190613a65565b9150600a8561268d9190613c36565b6030612699919061394d565b60f81b8183815181106126d5577f4e487b7100000000000000000000000000000000000000000000000000000000600052603260045260246000fd5b60200101907effffffffffffffffffffffffffffffffffffffffffffffffffffffffffffff1916908160001a905350600a8561271191906139da565b9450612669565b8093505050505b919050565b600073ffffffffffffffffffffffffffffffffffffffff168273ffffffffffffffffffffffffffffffffffffffff161415612794576040517f08c379a000000000000000000000000000000000000000000000000000000000815260040161278b90613784565b60405180910390fd5b61279d816116f6565b156127dd576040517f08c379a00000000000000000000000000000000000000000000000000000000081526004016127d490613684565b60405180910390fd5b6127e96000838361218e565b6001600360008473ffffffffffffffffffffffffffffffffffffffff1673ffffffffffffffffffffffffffffffffffffffff1681526020019081526020016000206000828254612839919061394d565b92505081905550816002600083815260200190815260200160002060006101000a81548173ffffffffffffffffffffffffffffffffffffffff021916908373ffffffffffffffffffffffffffffffffffffffff160217905550808273ffffffffffffffffffffffffffffffffffffffff16600073ffffffffffffffffffffffffffffffffffffffff167fddf252ad1be2c89b69c2b068fc378daa952ba7f163c4a11628f55a4df523b3ef60405160405180910390a45050565b600080823b905060008111915050919050565b82805461291190613b5c565b90600052602060002090601f016020900481019282612933576000855561297a565b82601f1061294c57805160ff191683800117855561297a565b8280016001018555821561297a579182015b8281111561297957825182559160200191906001019061295e565b5b509050612987919061298b565b5090565b5b808211156129a457600081600090555060010161298c565b5090565b60006129bb6129b6846138c4565b61389f565b9050828152602081018484840111156129d357600080fd5b6129de848285613b1a565b509392505050565b6000813590506129f58161466f565b92915050565b600081359050612a0a81614686565b92915050565b600081359050612a1f8161469d565b92915050565b600081519050612a348161469d565b92915050565b600082601f830112612a4b57600080fd5b8135612a5b8482602086016129a8565b91505092915050565b600081359050612a73816146b4565b92915050565b600060208284031215612a8b57600080fd5b6000612a99848285016129e6565b91505092915050565b60008060408385031215612ab557600080fd5b6000612ac3858286016129e6565b9250506020612ad4858286016129e6565b9150509250929050565b600080600060608486031215612af357600080fd5b6000612b01868287016129e6565b9350506020612b12868287016129e6565b9250506040612b2386828701612a64565b9150509250925092565b60008060008060808587031215612b4357600080fd5b6000612b51878288016129e6565b9450506020612b62878288016129e6565b9350506040612b7387828801612a64565b925050606085013567ffffffffffffffff811115612b9057600080fd5b612b9c87828801612a3a565b91505092959194509250565b60008060408385031215612bbb57600080fd5b6000612bc9858286016129e6565b9250506020612bda858286016129fb565b9150509250929050565b60008060408385031215612bf757600080fd5b6000612c05858286016129e6565b9250506020612c1685828601612a64565b9150509250929050565b600060208284031215612c3257600080fd5b6000612c4084828501612a10565b91505092915050565b600060208284031215612c5b57600080fd5b6000612c6984828501612a25565b91505092915050565b600060208284031215612c8457600080fd5b6000612c9284828501612a64565b91505092915050565b612ca481613a99565b82525050565b612cbb612cb682613a99565b613c08565b82525050565b612cca81613aab565b82525050565b6000612cdb8261390a565b612ce58185613920565b9350612cf5818560208601613b29565b612cfe81613d23565b840191505092915050565b6000612d1482613915565b612d1e8185613931565b9350612d2e818560208601613b29565b612d3781613d23565b840191505092915050565b6000612d4d82613915565b612d578185613942565b9350612d67818560208601613b29565b80840191505092915050565b60008154612d8081613b5c565b612d8a8186613942565b94506001821660008114612da55760018114612db657612de9565b60ff19831686528186019350612de9565b612dbf856138f5565b60005b83811015612de157815481890152600182019150602081019050612dc2565b838801955050505b50505092915050565b6000612dff604783613942565b9150612e0a82613d41565b604782019050919050565b6000612e22600683613942565b9150612e2d82613db6565b600682019050919050565b6000612e45600983613942565b9150612e5082613ddf565b600982019050919050565b6000612e68600b83613942565b9150612e7382613e08565b600b82019050919050565b6000612e8b603283613931565b9150612e9682613e31565b604082019050919050565b6000612eae602683613931565b9150612eb982613e80565b604082019050919050565b6000612ed1600483613942565b9150612edc82613ecf565b600482019050919050565b6000612ef4601c83613931565b9150612eff82613ef8565b602082019050919050565b6000612f17600483613942565b9150612f2282613f21565b600482019050919050565b6000612f3a602483613931565b9150612f4582613f4a565b604082019050919050565b6000612f5d601983613931565b9150612f6882613f99565b602082019050919050565b6000612f80602c83613931565b9150612f8b82613fc2565b604082019050919050565b6000612fa3605383613942565b9150612fae82614011565b605382019050919050565b6000612fc6600683613942565b9150612fd182614086565b600682019050919050565b6000612fe9603883613931565b9150612ff4826140af565b604082019050919050565b600061300c600183613942565b9150613017826140fe565b600182019050919050565b600061302f607e83613942565b915061303a82614127565b607e82019050919050565b6000613052602a83613931565b915061305d826141c2565b604082019050919050565b6000613075602983613931565b915061308082614211565b604082019050919050565b6000613098602e83613931565b91506130a382614260565b604082019050919050565b60006130bb600b83613942565b91506130c6826142af565b600b82019050919050565b60006130de600283613942565b91506130e9826142d8565b600282019050919050565b6000613101600783613942565b915061310c82614301565b600782019050919050565b6000613124602083613931565b915061312f8261432a565b602082019050919050565b6000613147603183613931565b915061315282614353565b604082019050919050565b600061316a602c83613931565b9150613175826143a2565b604082019050919050565b600061318d602083613931565b9150613198826143f1565b602082019050919050565b60006131b0602983613931565b91506131bb8261441a565b604082019050919050565b60006131d3602f83613931565b91506131de82614469565b604082019050919050565b60006131f6602183613931565b9150613201826144b8565b604082019050919050565b6000613219601d83613942565b915061322482614507565b601d82019050919050565b600061323c604183613942565b915061324782614530565b604182019050919050565b600061325f603183613931565b915061326a826145a5565b604082019050919050565b6000613282601683613942565b915061328d826145f4565b601682019050919050565b60006132a5600e83613942565b91506132b08261461d565b600e82019050919050565b60006132c8600683613942565b91506132d382614646565b600682019050919050565b6132e781613b03565b82525050565b6132fe6132f982613b03565b613c2c565b82525050565b60006133108284612d42565b915081905092915050565b60006133278285612d42565b91506133338284612d42565b91508190509392505050565b600061334b8285612d42565b91506133578284612d42565b9150613362826132bb565b91508190509392505050565b600061337a8285612d42565b91506133868284612d73565b91508190509392505050565b600061339e8284612d42565b91506133a982613022565b915081905092915050565b60006133bf82612e38565b91506133ca82612fb9565b91506133d68286612d42565b91506133e182613298565b91506133ec82612df2565b91506133f88285612d42565b915061340382612e5b565b915061340f8284612d42565b915061341a826130d1565b9150819050949350505050565b600061343282612ec4565b915061343e8285612d42565b915061344982612e15565b91506134558284612d42565b915061346082612fff565b91508190509392505050565b600061347782612f96565b91506134838284612d42565b915061348e826130f4565b915081905092915050565b60006134a4826130ae565b91506134b08285612d42565b91506134bb82612f0a565b91506134c78284612d42565b91506134d282613275565b91508190509392505050565b60006134e98261320c565b91506134f58284612d42565b915081905092915050565b600061350b8261322f565b9150819050919050565b600061352182866132ed565b60208201915061353182856132ed565b6020820191506135418284612caa565b601482019150819050949350505050565b600061355e82876132ed565b60208201915061356e82866132ed565b60208201915061357e8285612caa565b60148201915061358e82846132ed565b60208201915081905095945050505050565b60006020820190506135b56000830184612c9b565b92915050565b60006080820190506135d06000830187612c9b565b6135dd6020830186612c9b565b6135ea60408301856132de565b81810360608301526135fc8184612cd0565b905095945050505050565b600060208201905061361c6000830184612cc1565b92915050565b6000602082019050818103600083015261363c8184612d09565b905092915050565b6000602082019050818103600083015261365d81612e7e565b9050919050565b6000602082019050818103600083015261367d81612ea1565b9050919050565b6000602082019050818103600083015261369d81612ee7565b9050919050565b600060208201905081810360008301526136bd81612f2d565b9050919050565b600060208201905081810360008301526136dd81612f50565b9050919050565b600060208201905081810360008301526136fd81612f73565b9050919050565b6000602082019050818103600083015261371d81612fdc565b9050919050565b6000602082019050818103600083015261373d81613045565b9050919050565b6000602082019050818103600083015261375d81613068565b9050919050565b6000602082019050818103600083015261377d8161308b565b9050919050565b6000602082019050818103600083015261379d81613117565b9050919050565b600060208201905081810360008301526137bd8161313a565b9050919050565b600060208201905081810360008301526137dd8161315d565b9050919050565b600060208201905081810360008301526137fd81613180565b9050919050565b6000602082019050818103600083015261381d816131a3565b9050919050565b6000602082019050818103600083015261383d816131c6565b9050919050565b6000602082019050818103600083015261385d816131e9565b9050919050565b6000602082019050818103600083015261387d81613252565b9050919050565b600060208201905061389960008301846132de565b92915050565b60006138a96138ba565b90506138b58282613b8e565b919050565b6000604051905090565b600067ffffffffffffffff8211156138df576138de613cf4565b5b6138e882613d23565b9050602081019050919050565b60008190508160005260206000209050919050565b600081519050919050565b600081519050919050565b600082825260208201905092915050565b600082825260208201905092915050565b600081905092915050565b600061395882613b03565b915061396383613b03565b9250827fffffffffffffffffffffffffffffffffffffffffffffffffffffffffffffffff0382111561399857613997613c67565b5b828201905092915050565b60006139ae82613b0d565b91506139b983613b0d565b92508260ff038211156139cf576139ce613c67565b5b828201905092915050565b60006139e582613b03565b91506139f083613b03565b925082613a00576139ff613c96565b5b828204905092915050565b6000613a1682613b03565b9150613a2183613b03565b9250817fffffffffffffffffffffffffffffffffffffffffffffffffffffffffffffffff0483118215151615613a5a57613a59613c67565b5b828202905092915050565b6000613a7082613b03565b9150613a7b83613b03565b925082821015613a8e57613a8d613c67565b5b828203905092915050565b6000613aa482613ae3565b9050919050565b60008115159050919050565b60007fffffffff0000000000000000000000000000000000000000000000000000000082169050919050565b600073ffffffffffffffffffffffffffffffffffffffff82169050919050565b6000819050919050565b600060ff82169050919050565b82818337600083830152505050565b60005b83811015613b47578082015181840152602081019050613b2c565b83811115613b56576000848401525b50505050565b60006002820490506001821680613b7457607f821691505b60208210811415613b8857613b87613cc5565b5b50919050565b613b9782613d23565b810181811067ffffffffffffffff82111715613bb657613bb5613cf4565b5b80604052505050565b6000613bca82613b03565b91507fffffffffffffffffffffffffffffffffffffffffffffffffffffffffffffffff821415613bfd57613bfc613c67565b5b600182019050919050565b6000613c1382613c1a565b9050919050565b6000613c2582613d34565b9050919050565b6000819050919050565b6000613c4182613b03565b9150613c4c83613b03565b925082613c5c57613c5b613c96565b5b828206905092915050565b7f4e487b7100000000000000000000000000000000000000000000000000000000600052601160045260246000fd5b7f4e487b7100000000000000000000000000000000000000000000000000000000600052601260045260246000fd5b7f4e487b7100000000000000000000000000000000000000000000000000000000600052602260045260246000fd5b7f4e487b7100000000000000000000000000000000000000000000000000000000600052604160045260246000fd5b6000601f19601f8301169050919050565b60008160601b9050919050565b7f222c20226465736372697074696f6e223a22556e736f6c69636974656420616460008201527f76696365206f6e20796f75722062697274686461792e222c202261747472696260208201527f75746573223a2200000000000000000000000000000000000000000000000000604082015250565b7f222063793d220000000000000000000000000000000000000000000000000000600082015250565b7f7b226e616d65223a220000000000000000000000000000000000000000000000600082015250565b7f222c22696d616765223a22000000000000000000000000000000000000000000600082015250565b7f4552433732313a207472616e7366657220746f206e6f6e20455243373231526560008201527f63656976657220696d706c656d656e7465720000000000000000000000000000602082015250565b7f4f776e61626c653a206e6577206f776e657220697320746865207a65726f206160008201527f6464726573730000000000000000000000000000000000000000000000000000602082015250565b7f63783d2200000000000000000000000000000000000000000000000000000000600082015250565b7f4552433732313a20746f6b656e20616c7265616479206d696e74656400000000600082015250565b7f20723d2200000000000000000000000000000000000000000000000000000000600082015250565b7f4552433732313a207472616e7366657220746f20746865207a65726f2061646460008201527f7265737300000000000000000000000000000000000000000000000000000000602082015250565b7f4552433732313a20617070726f766520746f2063616c6c657200000000000000600082015250565b7f4552433732313a206f70657261746f7220717565727920666f72206e6f6e657860008201527f697374656e7420746f6b656e0000000000000000000000000000000000000000602082015250565b7f3c7465787420783d223530252220793d223530252220646f6d696e616e742d6260008201527f6173656c696e653d226d6964646c652220746578742d616e63686f723d226d6960208201527f64646c652220636c6173733d2262617365223e00000000000000000000000000604082015250565b7f4861707079200000000000000000000000000000000000000000000000000000600082015250565b7f4552433732313a20617070726f76652063616c6c6572206973206e6f74206f7760008201527f6e6572206e6f7220617070726f76656420666f7220616c6c0000000000000000602082015250565b7f2200000000000000000000000000000000000000000000000000000000000000600082015250565b7f3c7374796c653e2e62617365207b2066696c6c3a20626c61636b3b20666f6e7460008201527f2d66616d696c793a2073616e732d73657269663b20666f6e742d73697a653a2060208201527f313170783b207d3c2f7374796c653e3c726563742077696474683d223130302560408201527f22206865696768743d2231303025222066696c6c3d227768697465222f3e0000606082015250565b7f4552433732313a2062616c616e636520717565727920666f7220746865207a6560008201527f726f206164647265737300000000000000000000000000000000000000000000602082015250565b7f4552433732313a206f776e657220717565727920666f72206e6f6e657869737460008201527f656e7420746f6b656e0000000000000000000000000000000000000000000000602082015250565b7f45524337323155524953746f726167653a2055524920736574206f66206e6f6e60008201527f6578697374656e7420746f6b656e000000000000000000000000000000000000602082015250565b7f3c673e3c636972636c6520000000000000000000000000000000000000000000600082015250565b7f227d000000000000000000000000000000000000000000000000000000000000600082015250565b7f3c2f746578743e00000000000000000000000000000000000000000000000000600082015250565b7f4552433732313a206d696e7420746f20746865207a65726f2061646472657373600082015250565b7f45524337323155524953746f726167653a2055524920717565727920666f722060008201527f6e6f6e6578697374656e7420746f6b656e000000000000000000000000000000602082015250565b7f4552433732313a20617070726f76656420717565727920666f72206e6f6e657860008201527f697374656e7420746f6b656e0000000000000000000000000000000000000000602082015250565b7f4f776e61626c653a2063616c6c6572206973206e6f7420746865206f776e6572600082015250565b7f4552433732313a207472616e73666572206f6620746f6b656e2074686174206960008201527f73206e6f74206f776e0000000000000000000000000000000000000000000000602082015250565b7f4552433732314d657461646174613a2055524920717565727920666f72206e6f60008201527f6e6578697374656e7420746f6b656e0000000000000000000000000000000000602082015250565b7f4552433732313a20617070726f76616c20746f2063757272656e74206f776e6560008201527f7200000000000000000000000000000000000000000000000000000000000000602082015250565b7f646174613a6170706c69636174696f6e2f6a736f6e3b6261736536342c000000600082015250565b7f3c7376672077696474683d2233353022206865696768743d223335302220786d60008201527f6c6e733d22687474703a2f2f7777772e77332e6f72672f323030302f7376672260208201527f3e00000000000000000000000000000000000000000000000000000000000000604082015250565b7f4552433732313a207472616e736665722063616c6c6572206973206e6f74206f60008201527f776e6572206e6f7220617070726f766564000000000000000000000000000000602082015250565b7f222066696c6c3d2223464643413432222f3e3c2f673e00000000000000000000600082015250565b7f2042697274686461792c20556d69000000000000000000000000000000000000600082015250565b7f3c2f7376673e0000000000000000000000000000000000000000000000000000600082015250565b61467881613a99565b811461468357600080fd5b50565b61468f81613aab565b811461469a57600080fd5b50565b6146a681613ab7565b81146146b157600080fd5b50565b6146bd81613b03565b81146146c857600080fd5b5056fe4142434445464748494a4b4c4d4e4f505152535455565758595a6162636465666768696a6b6c6d6e6f707172737475767778797a303132333435363738392b2fa264697066735822122089187ba841241fa36fb0803719189f88fdfe3fbaceb190b277a5dd17713fb29064736f6c634300080400334576656e20696e207468652074726f70696373206974206765747320636f6c646572206174206e69676874207468616e20796f75207468696e6b2e41207661636174696f6e202b2061206469736173746572203d20616e20616476656e747572652e49676e6f72652077686174206f7468657273206d6179206265207468696e6b696e67206f6620796f752c20626563617573652074686579206172656ee28099742e446f6ee28099742062652074686520626573742e20426520746865206f6e6c792e496620796f7520617265206e6f742066616c6c696e6720646f776e206f63636173696f6e616c6c792c20796f7520617265206a75737420636f617374696e672e546865206d6f726520796f75206769766520746f206f74686572732c20746865206d6f726520796f75e280996c6c206765742e426520737472696374207769746820796f757273656c6620616e6420666f72676976696e67206f66206f74686572732e446f6ee28099742074726561742070656f706c65206173206261642061732074686579206172652e205472656174207468656d20617320676f6f6420617320796f75206172652e54686520677265617465737420746561636865722069732063616c6c656420e2809c646f696e67e2809d2e496620796f752063616ee28099742074656c6c207768617420796f75206465737065726174656c79206e6565642c206974e28099732070726f6261626c7920736c6565702e436f6d706c696d656e742070656f706c6520626568696e64207468656972206261636b2e204974e280996c6c20636f6d65206261636b20746f20796f752e5768696c6520796f7520696e76656e742c20646f6ee28099742073656c6563742e205768696c6520796f7520736b657463682c20646f6ee280997420696e73706563742e4265696e672077697365206d65616e7320686176696e67206d6f7265207175657374696f6e73207468616e20616e73776572732e5375737461696e6564206f757472616765206d616b657320796f75207374757069642e596f752063616e2065617420616e79206465737365727420796f752077616e7420696620796f752074616b65206f6e6c7920332062697465732e4c6561726e20686f7720746f2074616b6520612032302d6d696e75746520706f776572206e617020776974686f757420656d626172726173736d656e742e546f20717569657420612063726f7764206f722061206472756e6b2c206a75737420776869737065722e456e746875736961736d20697320776f72746820323520495120706f696e74732e5768656e20686974636868696b696e672c206c6f6f6b206c696b652074686520706572736f6e20796f752077616e7420746f207069636b20796f752075702e41206d756c746974756465206f6620626164206964656173206973206e656365737361727920666f72206f6e6520676f6f6420696465612e456c696d696e6174696e6720636c7574746572206d616b657320726f6f6d20666f7220796f75722074727565207472656173757265732e426164207468696e67732063616e2068617070656e20666173742c2062757420616c6d6f737420616c6c20676f6f64207468696e67732068617070656e20736c6f776c792e486f7720746f2061706f6c6f67697a653a20517569636b6c792c207370656369666963616c6c792c2073696e636572656c792e",
  "linkReferences": {},
  "deployedLinkReferences": {}
}