{
  "_format": "hh-sol-artifact-1",
  "contractName": "Umi",
  "sourceName": "contracts/Umi.sol",
  "abi": [
    {
      "inputs": [
        {
          "internalType": "address",
          "name": "_umi",
          "type": "address"
        }
      ],
      "stateMutability": "nonpayable",
      "type": "constructor"
    },
    {
      "anonymous": false,
      "inputs": [
        {
          "indexed": true,
          "internalType": "address",
          "name": "owner",
          "type": "address"
        },
        {
          "indexed": true,
          "internalType": "address",
          "name": "approved",
          "type": "address"
        },
        {
          "indexed": true,
          "internalType": "uint256",
          "name": "tokenId",
          "type": "uint256"
        }
      ],
      "name": "Approval",
      "type": "event"
    },
    {
      "anonymous": false,
      "inputs": [
        {
          "indexed": true,
          "internalType": "address",
          "name": "owner",
          "type": "address"
        },
        {
          "indexed": true,
          "internalType": "address",
          "name": "operator",
          "type": "address"
        },
        {
          "indexed": false,
          "internalType": "bool",
          "name": "approved",
          "type": "bool"
        }
      ],
      "name": "ApprovalForAll",
      "type": "event"
    },
    {
      "anonymous": false,
      "inputs": [
        {
          "indexed": true,
          "internalType": "address",
          "name": "previousOwner",
          "type": "address"
        },
        {
          "indexed": true,
          "internalType": "address",
          "name": "newOwner",
          "type": "address"
        }
      ],
      "name": "OwnershipTransferred",
      "type": "event"
    },
    {
      "anonymous": false,
      "inputs": [
        {
          "indexed": true,
          "internalType": "address",
          "name": "from",
          "type": "address"
        },
        {
          "indexed": true,
          "internalType": "address",
          "name": "to",
          "type": "address"
        },
        {
          "indexed": true,
          "internalType": "uint256",
          "name": "tokenId",
          "type": "uint256"
        }
      ],
      "name": "Transfer",
      "type": "event"
    },
    {
      "inputs": [
        {
          "internalType": "uint256",
          "name": "",
          "type": "uint256"
        }
      ],
      "name": "adviceList",
      "outputs": [
        {
          "internalType": "string",
          "name": "",
          "type": "string"
        }
      ],
      "stateMutability": "view",
      "type": "function"
    },
    {
      "inputs": [
        {
          "internalType": "address",
          "name": "to",
          "type": "address"
        },
        {
          "internalType": "uint256",
          "name": "tokenId",
          "type": "uint256"
        }
      ],
      "name": "approve",
      "outputs": [],
      "stateMutability": "nonpayable",
      "type": "function"
    },
    {
      "inputs": [
        {
          "internalType": "address",
          "name": "owner",
          "type": "address"
        }
      ],
      "name": "balanceOf",
      "outputs": [
        {
          "internalType": "uint256",
          "name": "",
          "type": "uint256"
        }
      ],
      "stateMutability": "view",
      "type": "function"
    },
    {
      "inputs": [],
      "name": "createNFT",
      "outputs": [
        {
          "internalType": "uint256",
          "name": "",
          "type": "uint256"
        }
      ],
      "stateMutability": "nonpayable",
      "type": "function"
    },
    {
      "inputs": [],
      "name": "generateAdvice",
      "outputs": [
        {
          "internalType": "string",
          "name": "",
          "type": "string"
        }
      ],
      "stateMutability": "view",
      "type": "function"
    },
    {
      "inputs": [
        {
          "internalType": "uint256",
          "name": "tokenId",
          "type": "uint256"
        }
      ],
      "name": "getApproved",
      "outputs": [
        {
          "internalType": "address",
          "name": "",
          "type": "address"
        }
      ],
      "stateMutability": "view",
      "type": "function"
    },
    {
      "inputs": [
        {
          "internalType": "address",
          "name": "owner",
          "type": "address"
        },
        {
          "internalType": "address",
          "name": "operator",
          "type": "address"
        }
      ],
      "name": "isApprovedForAll",
      "outputs": [
        {
          "internalType": "bool",
          "name": "",
          "type": "bool"
        }
      ],
      "stateMutability": "view",
      "type": "function"
    },
    {
      "inputs": [],
      "name": "name",
      "outputs": [
        {
          "internalType": "string",
          "name": "",
          "type": "string"
        }
      ],
      "stateMutability": "view",
      "type": "function"
    },
    {
      "inputs": [],
      "name": "owner",
      "outputs": [
        {
          "internalType": "address",
          "name": "",
          "type": "address"
        }
      ],
      "stateMutability": "view",
      "type": "function"
    },
    {
      "inputs": [
        {
          "internalType": "uint256",
          "name": "tokenId",
          "type": "uint256"
        }
      ],
      "name": "ownerOf",
      "outputs": [
        {
          "internalType": "address",
          "name": "",
          "type": "address"
        }
      ],
      "stateMutability": "view",
      "type": "function"
    },
    {
      "inputs": [
        {
          "internalType": "uint256",
          "name": "_seed",
          "type": "uint256"
        }
      ],
      "name": "randomCoord",
      "outputs": [
        {
          "internalType": "string",
          "name": "",
          "type": "string"
        }
      ],
      "stateMutability": "view",
      "type": "function"
    },
    {
      "inputs": [],
      "name": "randomNumCircle",
      "outputs": [
        {
          "internalType": "uint256",
          "name": "",
          "type": "uint256"
        }
      ],
      "stateMutability": "view",
      "type": "function"
    },
    {
      "inputs": [],
      "name": "randomRadius",
      "outputs": [
        {
          "internalType": "string",
          "name": "",
          "type": "string"
        }
      ],
      "stateMutability": "view",
      "type": "function"
    },
    {
      "inputs": [],
      "name": "renounceOwnership",
      "outputs": [],
      "stateMutability": "nonpayable",
      "type": "function"
    },
    {
      "inputs": [
        {
          "internalType": "address",
          "name": "from",
          "type": "address"
        },
        {
          "internalType": "address",
          "name": "to",
          "type": "address"
        },
        {
          "internalType": "uint256",
          "name": "tokenId",
          "type": "uint256"
        }
      ],
      "name": "safeTransferFrom",
      "outputs": [],
      "stateMutability": "nonpayable",
      "type": "function"
    },
    {
      "inputs": [
        {
          "internalType": "address",
          "name": "from",
          "type": "address"
        },
        {
          "internalType": "address",
          "name": "to",
          "type": "address"
        },
        {
          "internalType": "uint256",
          "name": "tokenId",
          "type": "uint256"
        },
        {
          "internalType": "bytes",
          "name": "_data",
          "type": "bytes"
        }
      ],
      "name": "safeTransferFrom",
      "outputs": [],
      "stateMutability": "nonpayable",
      "type": "function"
    },
    {
      "inputs": [
        {
          "internalType": "address",
          "name": "operator",
          "type": "address"
        },
        {
          "internalType": "bool",
          "name": "approved",
          "type": "bool"
        }
      ],
      "name": "setApprovalForAll",
      "outputs": [],
      "stateMutability": "nonpayable",
      "type": "function"
    },
    {
      "inputs": [
        {
          "internalType": "bytes4",
          "name": "interfaceId",
          "type": "bytes4"
        }
      ],
      "name": "supportsInterface",
      "outputs": [
        {
          "internalType": "bool",
          "name": "",
          "type": "bool"
        }
      ],
      "stateMutability": "view",
      "type": "function"
    },
    {
      "inputs": [],
      "name": "symbol",
      "outputs": [
        {
          "internalType": "string",
          "name": "",
          "type": "string"
        }
      ],
      "stateMutability": "view",
      "type": "function"
    },
    {
      "inputs": [
        {
          "internalType": "uint256",
          "name": "tokenId",
          "type": "uint256"
        }
      ],
      "name": "tokenURI",
      "outputs": [
        {
          "internalType": "string",
          "name": "",
          "type": "string"
        }
      ],
      "stateMutability": "view",
      "type": "function"
    },
    {
      "inputs": [
        {
          "internalType": "address",
          "name": "from",
          "type": "address"
        },
        {
          "internalType": "address",
          "name": "to",
          "type": "address"
        },
        {
          "internalType": "uint256",
          "name": "tokenId",
          "type": "uint256"
        }
      ],
      "name": "transferFrom",
      "outputs": [],
      "stateMutability": "nonpayable",
      "type": "function"
    },
    {
      "inputs": [
        {
          "internalType": "address",
          "name": "newOwner",
          "type": "address"
        }
      ],
      "name": "transferOwnership",
      "outputs": [],
      "stateMutability": "nonpayable",
      "type": "function"
    }
  ],
  "bytecode": "0x608060405260405180608001604052806040518060400160405280601781526020017f52656d656d6265722077686f20796f752061726527732e0000000000000000008152508152602001604051806060016040528060218152602001620047376021913981526020016040518060400160405280601d81526020017f466f72676976656173646620617364662061647366206173662061732e00000081525081526020016040518060600160405280603d815260200162004758603d9139815250600a906004620000d3929190620002dd565b50348015620000e157600080fd5b50604051620047953803806200479583398181016040528101906200010791906200046c565b6040518060400160405280600381526020017f556d6900000000000000000000000000000000000000000000000000000000008152506040518060400160405280600381526020017f554d49000000000000000000000000000000000000000000000000000000000081525081600090805190602001906200018b92919062000337565b508060019080519060200190620001a492919062000337565b505050620001c7620001bb6200020f60201b60201c565b6200021760201b60201c565b80600960006101000a81548173ffffffffffffffffffffffffffffffffffffffff021916908373ffffffffffffffffffffffffffffffffffffffff160217905550506200054b565b600033905090565b6000600760009054906101000a900473ffffffffffffffffffffffffffffffffffffffff16905081600760006101000a81548173ffffffffffffffffffffffffffffffffffffffff021916908373ffffffffffffffffffffffffffffffffffffffff1602179055508173ffffffffffffffffffffffffffffffffffffffff168173ffffffffffffffffffffffffffffffffffffffff167f8be0079c531659141344cd1fd0a4f28419497f9722a3daafe3b4186f6b6457e060405160405180910390a35050565b826004810192821562000324579160200282015b82811115620003235782518290805190602001906200031292919062000337565b5091602001919060010190620002f1565b5b509050620003339190620003c8565b5090565b8280546200034590620004cc565b90600052602060002090601f016020900481019282620003695760008555620003b5565b82601f106200038457805160ff1916838001178555620003b5565b82800160010185558215620003b5579182015b82811115620003b457825182559160200191906001019062000397565b5b509050620003c49190620003f0565b5090565b5b80821115620003ec5760008181620003e291906200040f565b50600101620003c9565b5090565b5b808211156200040b576000816000905550600101620003f1565b5090565b5080546200041d90620004cc565b6000825580601f1062000431575062000452565b601f016020900490600052602060002090810190620004519190620003f0565b5b50565b600081519050620004668162000531565b92915050565b6000602082840312156200047f57600080fd5b60006200048f8482850162000455565b91505092915050565b6000620004a582620004ac565b9050919050565b600073ffffffffffffffffffffffffffffffffffffffff82169050919050565b60006002820490506001821680620004e557607f821691505b60208210811415620004fc57620004fb62000502565b5b50919050565b7f4e487b7100000000000000000000000000000000000000000000000000000000600052602260045260246000fd5b6200053c8162000498565b81146200054857600080fd5b50565b6141dc806200055b6000396000f3fe608060405234801561001057600080fd5b50600436106101425760003560e01c8063886f8248116100b8578063b88d4fde1161007c578063b88d4fde14610365578063c87b56dd14610381578063c906689d146103b1578063e985e9c5146103cf578063f2b57a76146103ff578063f2fde38b1461042f57610142565b8063886f8248146102d15780638a97ec2a146102ef5780638da5cb5b1461030d57806395d89b411461032b578063a22cb4651461034957610142565b806323b872dd1161010a57806323b872dd1461021157806342842e0e1461022d5780634fc46519146102495780636352211e1461026757806370a0823114610297578063715018a6146102c757610142565b806301ffc9a714610147578063046a53341461017757806306fdde03146101a7578063081812fc146101c5578063095ea7b3146101f5575b600080fd5b610161600480360381019061015c9190612926565b61044b565b60405161016e9190613181565b60405180910390f35b610191600480360381019061018c9190612978565b61052d565b60405161019e919061319c565b60405180910390f35b6101af61059d565b6040516101bc919061319c565b60405180910390f35b6101df60048036038101906101da9190612978565b61062f565b6040516101ec919061311a565b60405180910390f35b61020f600480360381019061020a91906128ea565b6106b4565b005b61022b600480360381019061022691906127e4565b6107cc565b005b610247600480360381019061024291906127e4565b61082c565b005b61025161084c565b60405161025e919061319c565b60405180910390f35b610281600480360381019061027c9190612978565b61097e565b60405161028e919061311a565b60405180910390f35b6102b160048036038101906102ac919061277f565b610a30565b6040516102be91906133fe565b60405180910390f35b6102cf610ae8565b005b6102d9610b70565b6040516102e6919061319c565b60405180910390f35b6102f7610be7565b60405161030491906133fe565b60405180910390f35b610315610cdd565b604051610322919061311a565b60405180910390f35b610333610d07565b604051610340919061319c565b60405180910390f35b610363600480360381019061035e91906128ae565b610d99565b005b61037f600480360381019061037a9190612833565b610f1a565b005b61039b60048036038101906103969190612978565b610f7c565b6040516103a8919061319c565b60405180910390f35b6103b96110ce565b6040516103c691906133fe565b60405180910390f35b6103e960048036038101906103e491906127a8565b61113d565b6040516103f69190613181565b60405180910390f35b61041960048036038101906104149190612978565b6111d1565b604051610426919061319c565b60405180910390f35b6104496004803603810190610444919061277f565b611274565b005b60007f80ac58cd000000000000000000000000000000000000000000000000000000007bffffffffffffffffffffffffffffffffffffffffffffffffffffffff1916827bffffffffffffffffffffffffffffffffffffffffffffffffffffffff1916148061051657507f5b5e139f000000000000000000000000000000000000000000000000000000007bffffffffffffffffffffffffffffffffffffffffffffffffffffffff1916827bffffffffffffffffffffffffffffffffffffffffffffffffffffffff1916145b8061052657506105258261136c565b5b9050919050565b606061059661015e4442600960009054906101000a900473ffffffffffffffffffffffffffffffffffffffff168660405160200161056e94939291906130cc565b6040516020818303038152906040528051906020012060001c610591919061379b565b6113d6565b9050919050565b6060600080546105ac906136c1565b80601f01602080910402602001604051908101604052809291908181526020018280546105d8906136c1565b80156106255780601f106105fa57610100808354040283529160200191610625565b820191906000526020600020905b81548152906001019060200180831161060857829003601f168201915b5050505050905090565b600061063a826115ab565b610679576040517f08c379a00000000000000000000000000000000000000000000000000000000081526004016106709061333e565b60405180910390fd5b6004600083815260200190815260200160002060009054906101000a900473ffffffffffffffffffffffffffffffffffffffff169050919050565b60006106bf8261097e565b90508073ffffffffffffffffffffffffffffffffffffffff168373ffffffffffffffffffffffffffffffffffffffff161415610730576040517f08c379a0000000000000000000000000000000000000000000000000000000008152600401610727906133be565b60405180910390fd5b8073ffffffffffffffffffffffffffffffffffffffff1661074f611617565b73ffffffffffffffffffffffffffffffffffffffff16148061077e575061077d81610778611617565b61113d565b5b6107bd576040517f08c379a00000000000000000000000000000000000000000000000000000000081526004016107b49061327e565b60405180910390fd5b6107c7838361161f565b505050565b6107dd6107d7611617565b826116d8565b61081c576040517f08c379a0000000000000000000000000000000000000000000000000000000008152600401610813906133de565b60405180910390fd5b6108278383836117b6565b505050565b61084783838360405180602001604052806000815250610f1a565b505050565b6060600060044442600960009054906101000a900473ffffffffffffffffffffffffffffffffffffffff166040516020016108899392919061308f565b6040516020818303038152906040528051906020012060001c6108ac919061379b565b90506000600a82600481106108ea577f4e487b7100000000000000000000000000000000000000000000000000000000600052603260045260246000fd5b0180546108f6906136c1565b80601f0160208091040260200160405190810160405280929190818152602001828054610922906136c1565b801561096f5780601f106109445761010080835404028352916020019161096f565b820191906000526020600020905b81548152906001019060200180831161095257829003601f168201915b50505050509050809250505090565b6000806002600084815260200190815260200160002060009054906101000a900473ffffffffffffffffffffffffffffffffffffffff169050600073ffffffffffffffffffffffffffffffffffffffff168173ffffffffffffffffffffffffffffffffffffffff161415610a27576040517f08c379a0000000000000000000000000000000000000000000000000000000008152600401610a1e906132be565b60405180910390fd5b80915050919050565b60008073ffffffffffffffffffffffffffffffffffffffff168273ffffffffffffffffffffffffffffffffffffffff161415610aa1576040517f08c379a0000000000000000000000000000000000000000000000000000000008152600401610a989061329e565b60405180910390fd5b600360008373ffffffffffffffffffffffffffffffffffffffff1673ffffffffffffffffffffffffffffffffffffffff168152602001908152602001600020549050919050565b610af0611617565b73ffffffffffffffffffffffffffffffffffffffff16610b0e610cdd565b73ffffffffffffffffffffffffffffffffffffffff1614610b64576040517f08c379a0000000000000000000000000000000000000000000000000000000008152600401610b5b9061335e565b60405180910390fd5b610b6e6000611a12565b565b6060610be2600a60734442600960009054906101000a900473ffffffffffffffffffffffffffffffffffffffff16604051602001610bb09392919061308f565b6040516020818303038152906040528051906020012060001c610bd3919061379b565b610bdd91906134b2565b6113d6565b905090565b6000610bf1611617565b73ffffffffffffffffffffffffffffffffffffffff16610c0f610cdd565b73ffffffffffffffffffffffffffffffffffffffff1614610c65576040517f08c379a0000000000000000000000000000000000000000000000000000000008152600401610c5c9061335e565b60405180910390fd5b610c6f6008611ad8565b6000610c7b6008611aee565b90506000610c87611afc565b90506000610c9482611bea565b9050610ca883610ca383611c83565b611cd3565b610cd4600960009054906101000a900473ffffffffffffffffffffffffffffffffffffffff1684611d47565b82935050505090565b6000600760009054906101000a900473ffffffffffffffffffffffffffffffffffffffff16905090565b606060018054610d16906136c1565b80601f0160208091040260200160405190810160405280929190818152602001828054610d42906136c1565b8015610d8f5780601f10610d6457610100808354040283529160200191610d8f565b820191906000526020600020905b815481529060010190602001808311610d7257829003601f168201915b5050505050905090565b610da1611617565b73ffffffffffffffffffffffffffffffffffffffff168273ffffffffffffffffffffffffffffffffffffffff161415610e0f576040517f08c379a0000000000000000000000000000000000000000000000000000000008152600401610e069061323e565b60405180910390fd5b8060056000610e1c611617565b73ffffffffffffffffffffffffffffffffffffffff1673ffffffffffffffffffffffffffffffffffffffff16815260200190815260200160002060008473ffffffffffffffffffffffffffffffffffffffff1673ffffffffffffffffffffffffffffffffffffffff16815260200190815260200160002060006101000a81548160ff0219169083151502179055508173ffffffffffffffffffffffffffffffffffffffff16610ec9611617565b73ffffffffffffffffffffffffffffffffffffffff167f17307eab39ab6107e8899845ad3d59bd9653f200f220920489ca2b5937696c3183604051610f0e9190613181565b60405180910390a35050565b610f2b610f25611617565b836116d8565b610f6a576040517f08c379a0000000000000000000000000000000000000000000000000000000008152600401610f61906133de565b60405180910390fd5b610f7684848484611d65565b50505050565b6060610f87826115ab565b610fc6576040517f08c379a0000000000000000000000000000000000000000000000000000000008152600401610fbd9061331e565b60405180910390fd5b6000600660008481526020019081526020016000208054610fe6906136c1565b80601f0160208091040260200160405190810160405280929190818152602001828054611012906136c1565b801561105f5780601f106110345761010080835404028352916020019161105f565b820191906000526020600020905b81548152906001019060200180831161104257829003601f168201915b505050505090506000611070611dc1565b90506000815114156110865781925050506110c9565b6000825111156110bb5780826040516020016110a3929190612f16565b604051602081830303815290604052925050506110c9565b6110c484611dd8565b925050505b919050565b6000600160034442600960009054906101000a900473ffffffffffffffffffffffffffffffffffffffff1660405160200161110b9392919061308f565b6040516020818303038152906040528051906020012060001c61112e919061379b565b61113891906134b2565b905090565b6000600560008473ffffffffffffffffffffffffffffffffffffffff1673ffffffffffffffffffffffffffffffffffffffff16815260200190815260200160002060008373ffffffffffffffffffffffffffffffffffffffff1673ffffffffffffffffffffffffffffffffffffffff16815260200190815260200160002060009054906101000a900460ff16905092915050565b600a81600481106111e157600080fd5b0160009150905080546111f3906136c1565b80601f016020809104026020016040519081016040528092919081815260200182805461121f906136c1565b801561126c5780601f106112415761010080835404028352916020019161126c565b820191906000526020600020905b81548152906001019060200180831161124f57829003601f168201915b505050505081565b61127c611617565b73ffffffffffffffffffffffffffffffffffffffff1661129a610cdd565b73ffffffffffffffffffffffffffffffffffffffff16146112f0576040517f08c379a00000000000000000000000000000000000000000000000000000000081526004016112e79061335e565b60405180910390fd5b600073ffffffffffffffffffffffffffffffffffffffff168173ffffffffffffffffffffffffffffffffffffffff161415611360576040517f08c379a0000000000000000000000000000000000000000000000000000000008152600401611357906131de565b60405180910390fd5b61136981611a12565b50565b60007f01ffc9a7000000000000000000000000000000000000000000000000000000007bffffffffffffffffffffffffffffffffffffffffffffffffffffffff1916827bffffffffffffffffffffffffffffffffffffffffffffffffffffffff1916149050919050565b6060600082141561141e576040518060400160405280600181526020017f300000000000000000000000000000000000000000000000000000000000000081525090506115a6565b600082905060005b6000821461145057808061143990613724565b915050600a82611449919061353f565b9150611426565b60008167ffffffffffffffff811115611492577f4e487b7100000000000000000000000000000000000000000000000000000000600052604160045260246000fd5b6040519080825280601f01601f1916602001820160405280156114c45781602001600182028036833780820191505090505b50905060008290505b6000861461159e576001816114e291906135ca565b90506000600a80886114f4919061353f565b6114fe9190613570565b8761150991906135ca565b60306115159190613508565b905060008160f81b905080848481518110611559577f4e487b7100000000000000000000000000000000000000000000000000000000600052603260045260246000fd5b60200101907effffffffffffffffffffffffffffffffffffffffffffffffffffffffffffff1916908160001a905350600a88611595919061353f565b975050506114cd565b819450505050505b919050565b60008073ffffffffffffffffffffffffffffffffffffffff166002600084815260200190815260200160002060009054906101000a900473ffffffffffffffffffffffffffffffffffffffff1673ffffffffffffffffffffffffffffffffffffffff1614159050919050565b600033905090565b816004600083815260200190815260200160002060006101000a81548173ffffffffffffffffffffffffffffffffffffffff021916908373ffffffffffffffffffffffffffffffffffffffff160217905550808273ffffffffffffffffffffffffffffffffffffffff166116928361097e565b73ffffffffffffffffffffffffffffffffffffffff167f8c5be1e5ebec7d5bd14f71427d1e84f3dd0314c0f7b2291e5b200ac8c7c3b92560405160405180910390a45050565b60006116e3826115ab565b611722576040517f08c379a00000000000000000000000000000000000000000000000000000000081526004016117199061325e565b60405180910390fd5b600061172d8361097e565b90508073ffffffffffffffffffffffffffffffffffffffff168473ffffffffffffffffffffffffffffffffffffffff16148061179c57508373ffffffffffffffffffffffffffffffffffffffff166117848461062f565b73ffffffffffffffffffffffffffffffffffffffff16145b806117ad57506117ac818561113d565b5b91505092915050565b8273ffffffffffffffffffffffffffffffffffffffff166117d68261097e565b73ffffffffffffffffffffffffffffffffffffffff161461182c576040517f08c379a00000000000000000000000000000000000000000000000000000000081526004016118239061337e565b60405180910390fd5b600073ffffffffffffffffffffffffffffffffffffffff168273ffffffffffffffffffffffffffffffffffffffff16141561189c576040517f08c379a00000000000000000000000000000000000000000000000000000000081526004016118939061321e565b60405180910390fd5b6118a7838383611e7f565b6118b260008261161f565b6001600360008573ffffffffffffffffffffffffffffffffffffffff1673ffffffffffffffffffffffffffffffffffffffff168152602001908152602001600020600082825461190291906135ca565b925050819055506001600360008473ffffffffffffffffffffffffffffffffffffffff1673ffffffffffffffffffffffffffffffffffffffff168152602001908152602001600020600082825461195991906134b2565b92505081905550816002600083815260200190815260200160002060006101000a81548173ffffffffffffffffffffffffffffffffffffffff021916908373ffffffffffffffffffffffffffffffffffffffff160217905550808273ffffffffffffffffffffffffffffffffffffffff168473ffffffffffffffffffffffffffffffffffffffff167fddf252ad1be2c89b69c2b068fc378daa952ba7f163c4a11628f55a4df523b3ef60405160405180910390a4505050565b6000600760009054906101000a900473ffffffffffffffffffffffffffffffffffffffff16905081600760006101000a81548173ffffffffffffffffffffffffffffffffffffffff021916908373ffffffffffffffffffffffffffffffffffffffff1602179055508173ffffffffffffffffffffffffffffffffffffffff168173ffffffffffffffffffffffffffffffffffffffff167f8be0079c531659141344cd1fd0a4f28419497f9722a3daafe3b4186f6b6457e060405160405180910390a35050565b6001816000016000828254019250508190555050565b600081600001549050919050565b6060604051602001611b0d90612ffb565b604051602081830303815290604052905080604051602001611b2f9190612f69565b604051602081830303815290604052905060005b6002811015611b90576000611b56611e84565b90508281604051602001611b6b929190612f16565b6040516020818303038152906040529250508080611b8890613724565b915050611b43565b506000611b9b61084c565b9050600081604051602001611bb09190612fce565b60405160208183030381529060405290508281604051602001611bd4929190612f3a565b6040516020818303038152906040529250505090565b606060006040518060400160405280601a81526020017f646174613a696d6167652f7376672b786d6c3b6261736536342c00000000000081525090506000611c5084604051602001611c3c9190612eff565b604051602081830303815290604052611ee0565b905060008282604051602001611c67929190612f16565b6040516020818303038152906040529050809350505050919050565b6060611cad82604051602001611c999190612f8b565b604051602081830303815290604052611ee0565b604051602001611cbd919061306d565b6040516020818303038152906040529050919050565b611cdc826115ab565b611d1b576040517f08c379a0000000000000000000000000000000000000000000000000000000008152600401611d12906132de565b60405180910390fd5b80600660008481526020019081526020016000209080519060200190611d4292919061260b565b505050565b611d6182826040518060200160405280600081525061208b565b5050565b611d708484846117b6565b611d7c848484846120e6565b611dbb576040517f08c379a0000000000000000000000000000000000000000000000000000000008152600401611db2906131be565b60405180910390fd5b50505050565b606060405180602001604052806000815250905090565b6060611de3826115ab565b611e22576040517f08c379a0000000000000000000000000000000000000000000000000000000008152600401611e199061339e565b60405180910390fd5b6000611e2c611dc1565b90506000815111611e4c5760405180602001604052806000815250611e77565b80611e568461227d565b604051602001611e67929190612f16565b6040516020818303038152906040525b915050919050565b505050565b60606000611e92600161052d565b90506000611ea0600261052d565b90506000611eac610b70565b90506000838383604051602001611ec593929190613010565b60405160208183030381529060405290508094505050505090565b6060600082511415611f0357604051806020016040528060008152509050612086565b60006040518060600160405280604081526020016141676040913990506000600360028551611f3291906134b2565b611f3c919061353f565b6004611f489190613570565b90506000602082611f5991906134b2565b67ffffffffffffffff811115611f98577f4e487b7100000000000000000000000000000000000000000000000000000000600052604160045260246000fd5b6040519080825280601f01601f191660200182016040528015611fca5781602001600182028036833780820191505090505b509050818152600183018586518101602084015b81831015612045576003830192508251603f8160121c1685015160f81b8252600182019150603f81600c1c1685015160f81b8252600182019150603f8160061c1685015160f81b8252600182019150603f811685015160f81b825260018201915050611fde565b60038951066001811461205f576002811461206f5761207a565b613d3d60f01b600283035261207a565b603d60f81b60018303525b50505050508093505050505b919050565b612095838361242a565b6120a260008484846120e6565b6120e1576040517f08c379a00000000000000000000000000000000000000000000000000000000081526004016120d8906131be565b60405180910390fd5b505050565b60006121078473ffffffffffffffffffffffffffffffffffffffff166125f8565b15612270578373ffffffffffffffffffffffffffffffffffffffff1663150b7a02612130611617565b8786866040518563ffffffff1660e01b81526004016121529493929190613135565b602060405180830381600087803b15801561216c57600080fd5b505af192505050801561219d57506040513d601f19601f8201168201806040525081019061219a919061294f565b60015b612220573d80600081146121cd576040519150601f19603f3d011682016040523d82523d6000602084013e6121d2565b606091505b50600081511415612218576040517f08c379a000000000000000000000000000000000000000000000000000000000815260040161220f906131be565b60405180910390fd5b805181602001fd5b63150b7a0260e01b7bffffffffffffffffffffffffffffffffffffffffffffffffffffffff1916817bffffffffffffffffffffffffffffffffffffffffffffffffffffffff191614915050612275565b600190505b949350505050565b606060008214156122c5576040518060400160405280600181526020017f30000000000000000000000000000000000000000000000000000000000000008152509050612425565b600082905060005b600082146122f75780806122e090613724565b915050600a826122f0919061353f565b91506122cd565b60008167ffffffffffffffff811115612339577f4e487b7100000000000000000000000000000000000000000000000000000000600052604160045260246000fd5b6040519080825280601f01601f19166020018201604052801561236b5781602001600182028036833780820191505090505b5090505b6000851461241e5760018261238491906135ca565b9150600a85612393919061379b565b603061239f91906134b2565b60f81b8183815181106123db577f4e487b7100000000000000000000000000000000000000000000000000000000600052603260045260246000fd5b60200101907effffffffffffffffffffffffffffffffffffffffffffffffffffffffffffff1916908160001a905350600a85612417919061353f565b945061236f565b8093505050505b919050565b600073ffffffffffffffffffffffffffffffffffffffff168273ffffffffffffffffffffffffffffffffffffffff16141561249a576040517f08c379a0000000000000000000000000000000000000000000000000000000008152600401612491906132fe565b60405180910390fd5b6124a3816115ab565b156124e3576040517f08c379a00000000000000000000000000000000000000000000000000000000081526004016124da906131fe565b60405180910390fd5b6124ef60008383611e7f565b6001600360008473ffffffffffffffffffffffffffffffffffffffff1673ffffffffffffffffffffffffffffffffffffffff168152602001908152602001600020600082825461253f91906134b2565b92505081905550816002600083815260200190815260200160002060006101000a81548173ffffffffffffffffffffffffffffffffffffffff021916908373ffffffffffffffffffffffffffffffffffffffff160217905550808273ffffffffffffffffffffffffffffffffffffffff16600073ffffffffffffffffffffffffffffffffffffffff167fddf252ad1be2c89b69c2b068fc378daa952ba7f163c4a11628f55a4df523b3ef60405160405180910390a45050565b600080823b905060008111915050919050565b828054612617906136c1565b90600052602060002090601f0160209004810192826126395760008555612680565b82601f1061265257805160ff1916838001178555612680565b82800160010185558215612680579182015b8281111561267f578251825591602001919060010190612664565b5b50905061268d9190612691565b5090565b5b808211156126aa576000816000905550600101612692565b5090565b60006126c16126bc8461343e565b613419565b9050828152602081018484840111156126d957600080fd5b6126e484828561367f565b509392505050565b6000813590506126fb8161410a565b92915050565b60008135905061271081614121565b92915050565b60008135905061272581614138565b92915050565b60008151905061273a81614138565b92915050565b600082601f83011261275157600080fd5b81356127618482602086016126ae565b91505092915050565b6000813590506127798161414f565b92915050565b60006020828403121561279157600080fd5b600061279f848285016126ec565b91505092915050565b600080604083850312156127bb57600080fd5b60006127c9858286016126ec565b92505060206127da858286016126ec565b9150509250929050565b6000806000606084860312156127f957600080fd5b6000612807868287016126ec565b9350506020612818868287016126ec565b92505060406128298682870161276a565b9150509250925092565b6000806000806080858703121561284957600080fd5b6000612857878288016126ec565b9450506020612868878288016126ec565b93505060406128798782880161276a565b925050606085013567ffffffffffffffff81111561289657600080fd5b6128a287828801612740565b91505092959194509250565b600080604083850312156128c157600080fd5b60006128cf858286016126ec565b92505060206128e085828601612701565b9150509250929050565b600080604083850312156128fd57600080fd5b600061290b858286016126ec565b925050602061291c8582860161276a565b9150509250929050565b60006020828403121561293857600080fd5b600061294684828501612716565b91505092915050565b60006020828403121561296157600080fd5b600061296f8482850161272b565b91505092915050565b60006020828403121561298a57600080fd5b60006129988482850161276a565b91505092915050565b6129aa816135fe565b82525050565b6129c16129bc826135fe565b61376d565b82525050565b6129d081613610565b82525050565b60006129e18261346f565b6129eb8185613485565b93506129fb81856020860161368e565b612a0481613888565b840191505092915050565b6000612a1a8261347a565b612a248185613496565b9350612a3481856020860161368e565b612a3d81613888565b840191505092915050565b6000612a538261347a565b612a5d81856134a7565b9350612a6d81856020860161368e565b80840191505092915050565b6000612a866004836134a7565b9150612a91826138a6565b600482019050919050565b6000612aa96009836134a7565b9150612ab4826138cf565b600982019050919050565b6000612acc603283613496565b9150612ad7826138f8565b604082019050919050565b6000612aef602683613496565b9150612afa82613947565b604082019050919050565b6000612b12601c83613496565b9150612b1d82613996565b602082019050919050565b6000612b356013836134a7565b9150612b40826139bf565b601382019050919050565b6000612b58602483613496565b9150612b63826139e8565b604082019050919050565b6000612b7b601983613496565b9150612b8682613a37565b602082019050919050565b6000612b9e6054836134a7565b9150612ba982613a60565b605482019050919050565b6000612bc1602c83613496565b9150612bcc82613ad5565b604082019050919050565b6000612be46015836134a7565b9150612bef82613b24565b601582019050919050565b6000612c07603883613496565b9150612c1282613b4d565b604082019050919050565b6000612c2a602a83613496565b9150612c3582613b9c565b604082019050919050565b6000612c4d602983613496565b9150612c5882613beb565b604082019050919050565b6000612c70602e83613496565b9150612c7b82613c3a565b604082019050919050565b6000612c936002836134a7565b9150612c9e82613c89565b600282019050919050565b6000612cb66007836134a7565b9150612cc182613cb2565b600782019050919050565b6000612cd9602083613496565b9150612ce482613cdb565b602082019050919050565b6000612cfc603183613496565b9150612d0782613d04565b604082019050919050565b6000612d1f602c83613496565b9150612d2a82613d53565b604082019050919050565b6000612d42604b836134a7565b9150612d4d82613da2565b604b82019050919050565b6000612d656003836134a7565b9150612d7082613e17565b600382019050919050565b6000612d88602083613496565b9150612d9382613e40565b602082019050919050565b6000612dab602983613496565b9150612db682613e69565b604082019050919050565b6000612dce602f83613496565b9150612dd982613eb8565b604082019050919050565b6000612df1600e836134a7565b9150612dfc82613f07565b600e82019050919050565b6000612e14602183613496565b9150612e1f82613f30565b604082019050919050565b6000612e37601d836134a7565b9150612e4282613f7f565b601d82019050919050565b6000612e5a603183613496565b9150612e6582613fa8565b604082019050919050565b6000612e7d6047836134a7565b9150612e8882613ff7565b604782019050919050565b6000612ea0604f836134a7565b9150612eab8261406c565b604f82019050919050565b6000612ec36006836134a7565b9150612ece826140e1565b600682019050919050565b612ee281613668565b82525050565b612ef9612ef482613668565b613791565b82525050565b6000612f0b8284612a48565b915081905092915050565b6000612f228285612a48565b9150612f2e8284612a48565b91508190509392505050565b6000612f468285612a48565b9150612f528284612a48565b9150612f5d82612eb6565b91508190509392505050565b6000612f758284612a48565b9150612f8082612e93565b915081905092915050565b6000612f9682612a9c565b9150612fa182612b28565b9150612fac82612e70565b9150612fb88284612a48565b9150612fc382612c86565b915081905092915050565b6000612fd982612b91565b9150612fe58284612a48565b9150612ff082612ca9565b915081905092915050565b600061300682612d35565b9150819050919050565b600061301b82612de4565b91506130278286612a48565b915061303282612a79565b915061303e8285612a48565b915061304982612d58565b91506130558284612a48565b915061306082612bd7565b9150819050949350505050565b600061307882612e2a565b91506130848284612a48565b915081905092915050565b600061309b8286612ee8565b6020820191506130ab8285612ee8565b6020820191506130bb82846129b0565b601482019150819050949350505050565b60006130d88287612ee8565b6020820191506130e88286612ee8565b6020820191506130f882856129b0565b6014820191506131088284612ee8565b60208201915081905095945050505050565b600060208201905061312f60008301846129a1565b92915050565b600060808201905061314a60008301876129a1565b61315760208301866129a1565b6131646040830185612ed9565b818103606083015261317681846129d6565b905095945050505050565b600060208201905061319660008301846129c7565b92915050565b600060208201905081810360008301526131b68184612a0f565b905092915050565b600060208201905081810360008301526131d781612abf565b9050919050565b600060208201905081810360008301526131f781612ae2565b9050919050565b6000602082019050818103600083015261321781612b05565b9050919050565b6000602082019050818103600083015261323781612b4b565b9050919050565b6000602082019050818103600083015261325781612b6e565b9050919050565b6000602082019050818103600083015261327781612bb4565b9050919050565b6000602082019050818103600083015261329781612bfa565b9050919050565b600060208201905081810360008301526132b781612c1d565b9050919050565b600060208201905081810360008301526132d781612c40565b9050919050565b600060208201905081810360008301526132f781612c63565b9050919050565b6000602082019050818103600083015261331781612ccc565b9050919050565b6000602082019050818103600083015261333781612cef565b9050919050565b6000602082019050818103600083015261335781612d12565b9050919050565b6000602082019050818103600083015261337781612d7b565b9050919050565b6000602082019050818103600083015261339781612d9e565b9050919050565b600060208201905081810360008301526133b781612dc1565b9050919050565b600060208201905081810360008301526133d781612e07565b9050919050565b600060208201905081810360008301526133f781612e4d565b9050919050565b60006020820190506134136000830184612ed9565b92915050565b6000613423613434565b905061342f82826136f3565b919050565b6000604051905090565b600067ffffffffffffffff82111561345957613458613859565b5b61346282613888565b9050602081019050919050565b600081519050919050565b600081519050919050565b600082825260208201905092915050565b600082825260208201905092915050565b600081905092915050565b60006134bd82613668565b91506134c883613668565b9250827fffffffffffffffffffffffffffffffffffffffffffffffffffffffffffffffff038211156134fd576134fc6137cc565b5b828201905092915050565b600061351382613672565b915061351e83613672565b92508260ff03821115613534576135336137cc565b5b828201905092915050565b600061354a82613668565b915061355583613668565b925082613565576135646137fb565b5b828204905092915050565b600061357b82613668565b915061358683613668565b9250817fffffffffffffffffffffffffffffffffffffffffffffffffffffffffffffffff04831182151516156135bf576135be6137cc565b5b828202905092915050565b60006135d582613668565b91506135e083613668565b9250828210156135f3576135f26137cc565b5b828203905092915050565b600061360982613648565b9050919050565b60008115159050919050565b60007fffffffff0000000000000000000000000000000000000000000000000000000082169050919050565b600073ffffffffffffffffffffffffffffffffffffffff82169050919050565b6000819050919050565b600060ff82169050919050565b82818337600083830152505050565b60005b838110156136ac578082015181840152602081019050613691565b838111156136bb576000848401525b50505050565b600060028204905060018216806136d957607f821691505b602082108114156136ed576136ec61382a565b5b50919050565b6136fc82613888565b810181811067ffffffffffffffff8211171561371b5761371a613859565b5b80604052505050565b600061372f82613668565b91507fffffffffffffffffffffffffffffffffffffffffffffffffffffffffffffffff821415613762576137616137cc565b5b600182019050919050565b60006137788261377f565b9050919050565b600061378a82613899565b9050919050565b6000819050919050565b60006137a682613668565b91506137b183613668565b9250826137c1576137c06137fb565b5b828206905092915050565b7f4e487b7100000000000000000000000000000000000000000000000000000000600052601160045260246000fd5b7f4e487b7100000000000000000000000000000000000000000000000000000000600052601260045260246000fd5b7f4e487b7100000000000000000000000000000000000000000000000000000000600052602260045260246000fd5b7f4e487b7100000000000000000000000000000000000000000000000000000000600052604160045260246000fd5b6000601f19601f8301169050919050565b60008160601b9050919050565b7f2063793d00000000000000000000000000000000000000000000000000000000600082015250565b7f7b226e616d65223a220000000000000000000000000000000000000000000000600082015250565b7f4552433732313a207472616e7366657220746f206e6f6e20455243373231526560008201527f63656976657220696d706c656d656e7465720000000000000000000000000000602082015250565b7f4f776e61626c653a206e6577206f776e657220697320746865207a65726f206160008201527f6464726573730000000000000000000000000000000000000000000000000000602082015250565b7f4552433732313a20746f6b656e20616c7265616479206d696e74656400000000600082015250565b7f48617070792042697274686461792c20556d6900000000000000000000000000600082015250565b7f4552433732313a207472616e7366657220746f20746865207a65726f2061646460008201527f7265737300000000000000000000000000000000000000000000000000000000602082015250565b7f4552433732313a20617070726f766520746f2063616c6c657200000000000000600082015250565b7f3c7465787420783d223530252220793d223530252220646f6d696e616e742d6260008201527f6173656c696e653d226d6964646c652220746578742d616e63686f723d226d6960208201527f64646c652220636c6173733d2262617365223e22000000000000000000000000604082015250565b7f4552433732313a206f70657261746f7220717565727920666f72206e6f6e657860008201527f697374656e7420746f6b656e0000000000000000000000000000000000000000602082015250565b7f2066696c6c3d2223464643413432222f3e3c2f673e0000000000000000000000600082015250565b7f4552433732313a20617070726f76652063616c6c6572206973206e6f74206f7760008201527f6e6572206e6f7220617070726f76656420666f7220616c6c0000000000000000602082015250565b7f4552433732313a2062616c616e636520717565727920666f7220746865207a6560008201527f726f206164647265737300000000000000000000000000000000000000000000602082015250565b7f4552433732313a206f776e657220717565727920666f72206e6f6e657869737460008201527f656e7420746f6b656e0000000000000000000000000000000000000000000000602082015250565b7f45524337323155524953746f726167653a2055524920736574206f66206e6f6e60008201527f6578697374656e7420746f6b656e000000000000000000000000000000000000602082015250565b7f227d000000000000000000000000000000000000000000000000000000000000600082015250565b7f3c2f746578743e00000000000000000000000000000000000000000000000000600082015250565b7f4552433732313a206d696e7420746f20746865207a65726f2061646472657373600082015250565b7f45524337323155524953746f726167653a2055524920717565727920666f722060008201527f6e6f6e6578697374656e7420746f6b656e000000000000000000000000000000602082015250565b7f4552433732313a20617070726f76656420717565727920666f72206e6f6e657860008201527f697374656e7420746f6b656e0000000000000000000000000000000000000000602082015250565b7f3c7376672077696474683d2233353022206865696768743d223335302220666960008201527f6c6c3d226e6f6e652220786d6c6e733d687474703a2f2f7777772e77332e6f7260208201527f672f323030302f7376673e000000000000000000000000000000000000000000604082015250565b7f20723d0000000000000000000000000000000000000000000000000000000000600082015250565b7f4f776e61626c653a2063616c6c6572206973206e6f7420746865206f776e6572600082015250565b7f4552433732313a207472616e73666572206f6620746f6b656e2074686174206960008201527f73206e6f74206f776e0000000000000000000000000000000000000000000000602082015250565b7f4552433732314d657461646174613a2055524920717565727920666f72206e6f60008201527f6e6578697374656e7420746f6b656e0000000000000000000000000000000000602082015250565b7f3c673e3c636972636c652063783d000000000000000000000000000000000000600082015250565b7f4552433732313a20617070726f76616c20746f2063757272656e74206f776e6560008201527f7200000000000000000000000000000000000000000000000000000000000000602082015250565b7f646174613a6170706c69636174696f6e2f6a736f6e3b6261736536342c000000600082015250565b7f4552433732313a207472616e736665722063616c6c6572206973206e6f74206f60008201527f776e6572206e6f7220617070726f766564000000000000000000000000000000602082015250565b7f222c20226465736372697074696f6e223a22416476696365206f6e20796f757260008201527f2062697274686461792e222c202261747472696275746573223a22222c20226960208201527f6d616765223a2200000000000000000000000000000000000000000000000000604082015250565b7f3c7374796c653e2e62617365207b2066696c6c3a2077686974653b20666f6e7460008201527f2d66616d696c793a2073616e732d73657269663b20666f6e742d73697a653a2060208201527f313470783b207d3c2f7374796c653e0000000000000000000000000000000000604082015250565b7f3c2f7376673e0000000000000000000000000000000000000000000000000000600082015250565b614113816135fe565b811461411e57600080fd5b50565b61412a81613610565b811461413557600080fd5b50565b6141418161361c565b811461414c57600080fd5b50565b61415881613668565b811461416357600080fd5b5056fe4142434445464748494a4b4c4d4e4f505152535455565758595a6162636465666768696a6b6c6d6e6f707172737475767778797a303132333435363738392b2fa26469706673582212203f8b90c11c4a1c833af15d29b8e2ebe48bff4fff44eb333fd88e56646570439e64736f6c63430008040033456e746875736961736d20697320776f72746820323520495120706f696e74732e43757420617761792066726f6d20796f757273206461736620617364206673206120663b73616466202d73616420662d736120663120332420656c662e",
  "linkReferences": {},
  "deployedLinkReferences": {}
}