{
  "_format": "hh-sol-artifact-1",
  "contractName": "Umi",
  "sourceName": "contracts/Umi.sol",
  "abi": [
    {
      "inputs": [
        {
          "internalType": "address",
          "name": "_umi",
          "type": "address"
        }
      ],
      "stateMutability": "nonpayable",
      "type": "constructor"
    },
    {
      "anonymous": false,
      "inputs": [
        {
          "indexed": true,
          "internalType": "address",
          "name": "owner",
          "type": "address"
        },
        {
          "indexed": true,
          "internalType": "address",
          "name": "approved",
          "type": "address"
        },
        {
          "indexed": true,
          "internalType": "uint256",
          "name": "tokenId",
          "type": "uint256"
        }
      ],
      "name": "Approval",
      "type": "event"
    },
    {
      "anonymous": false,
      "inputs": [
        {
          "indexed": true,
          "internalType": "address",
          "name": "owner",
          "type": "address"
        },
        {
          "indexed": true,
          "internalType": "address",
          "name": "operator",
          "type": "address"
        },
        {
          "indexed": false,
          "internalType": "bool",
          "name": "approved",
          "type": "bool"
        }
      ],
      "name": "ApprovalForAll",
      "type": "event"
    },
    {
      "anonymous": false,
      "inputs": [
        {
          "indexed": true,
          "internalType": "address",
          "name": "previousOwner",
          "type": "address"
        },
        {
          "indexed": true,
          "internalType": "address",
          "name": "newOwner",
          "type": "address"
        }
      ],
      "name": "OwnershipTransferred",
      "type": "event"
    },
    {
      "anonymous": false,
      "inputs": [
        {
          "indexed": true,
          "internalType": "address",
          "name": "from",
          "type": "address"
        },
        {
          "indexed": true,
          "internalType": "address",
          "name": "to",
          "type": "address"
        },
        {
          "indexed": true,
          "internalType": "uint256",
          "name": "tokenId",
          "type": "uint256"
        }
      ],
      "name": "Transfer",
      "type": "event"
    },
    {
      "inputs": [
        {
          "internalType": "address",
          "name": "to",
          "type": "address"
        },
        {
          "internalType": "uint256",
          "name": "tokenId",
          "type": "uint256"
        }
      ],
      "name": "approve",
      "outputs": [],
      "stateMutability": "nonpayable",
      "type": "function"
    },
    {
      "inputs": [
        {
          "internalType": "address",
          "name": "owner",
          "type": "address"
        }
      ],
      "name": "balanceOf",
      "outputs": [
        {
          "internalType": "uint256",
          "name": "",
          "type": "uint256"
        }
      ],
      "stateMutability": "view",
      "type": "function"
    },
    {
      "inputs": [
        {
          "internalType": "uint256",
          "name": "_tokenID",
          "type": "uint256"
        }
      ],
      "name": "getAdvice",
      "outputs": [
        {
          "internalType": "string",
          "name": "",
          "type": "string"
        }
      ],
      "stateMutability": "view",
      "type": "function"
    },
    {
      "inputs": [
        {
          "internalType": "uint256",
          "name": "tokenId",
          "type": "uint256"
        }
      ],
      "name": "getApproved",
      "outputs": [
        {
          "internalType": "address",
          "name": "",
          "type": "address"
        }
      ],
      "stateMutability": "view",
      "type": "function"
    },
    {
      "inputs": [],
      "name": "getCurrentId",
      "outputs": [
        {
          "internalType": "uint256",
          "name": "",
          "type": "uint256"
        }
      ],
      "stateMutability": "view",
      "type": "function"
    },
    {
      "inputs": [],
      "name": "getOwner",
      "outputs": [
        {
          "internalType": "address",
          "name": "",
          "type": "address"
        }
      ],
      "stateMutability": "view",
      "type": "function"
    },
    {
      "inputs": [
        {
          "internalType": "address",
          "name": "owner",
          "type": "address"
        },
        {
          "internalType": "address",
          "name": "operator",
          "type": "address"
        }
      ],
      "name": "isApprovedForAll",
      "outputs": [
        {
          "internalType": "bool",
          "name": "",
          "type": "bool"
        }
      ],
      "stateMutability": "view",
      "type": "function"
    },
    {
      "inputs": [],
      "name": "name",
      "outputs": [
        {
          "internalType": "string",
          "name": "",
          "type": "string"
        }
      ],
      "stateMutability": "view",
      "type": "function"
    },
    {
      "inputs": [],
      "name": "owner",
      "outputs": [
        {
          "internalType": "address",
          "name": "",
          "type": "address"
        }
      ],
      "stateMutability": "view",
      "type": "function"
    },
    {
      "inputs": [
        {
          "internalType": "uint256",
          "name": "tokenId",
          "type": "uint256"
        }
      ],
      "name": "ownerOf",
      "outputs": [
        {
          "internalType": "address",
          "name": "",
          "type": "address"
        }
      ],
      "stateMutability": "view",
      "type": "function"
    },
    {
      "inputs": [],
      "name": "renounceOwnership",
      "outputs": [],
      "stateMutability": "nonpayable",
      "type": "function"
    },
    {
      "inputs": [
        {
          "internalType": "address",
          "name": "from",
          "type": "address"
        },
        {
          "internalType": "address",
          "name": "to",
          "type": "address"
        },
        {
          "internalType": "uint256",
          "name": "tokenId",
          "type": "uint256"
        }
      ],
      "name": "safeTransferFrom",
      "outputs": [],
      "stateMutability": "nonpayable",
      "type": "function"
    },
    {
      "inputs": [
        {
          "internalType": "address",
          "name": "from",
          "type": "address"
        },
        {
          "internalType": "address",
          "name": "to",
          "type": "address"
        },
        {
          "internalType": "uint256",
          "name": "tokenId",
          "type": "uint256"
        },
        {
          "internalType": "bytes",
          "name": "_data",
          "type": "bytes"
        }
      ],
      "name": "safeTransferFrom",
      "outputs": [],
      "stateMutability": "nonpayable",
      "type": "function"
    },
    {
      "inputs": [
        {
          "internalType": "string",
          "name": "_tokenURI",
          "type": "string"
        }
      ],
      "name": "sendAdvice",
      "outputs": [
        {
          "internalType": "uint256",
          "name": "",
          "type": "uint256"
        }
      ],
      "stateMutability": "nonpayable",
      "type": "function"
    },
    {
      "inputs": [
        {
          "internalType": "address",
          "name": "operator",
          "type": "address"
        },
        {
          "internalType": "bool",
          "name": "approved",
          "type": "bool"
        }
      ],
      "name": "setApprovalForAll",
      "outputs": [],
      "stateMutability": "nonpayable",
      "type": "function"
    },
    {
      "inputs": [
        {
          "internalType": "bytes4",
          "name": "interfaceId",
          "type": "bytes4"
        }
      ],
      "name": "supportsInterface",
      "outputs": [
        {
          "internalType": "bool",
          "name": "",
          "type": "bool"
        }
      ],
      "stateMutability": "view",
      "type": "function"
    },
    {
      "inputs": [],
      "name": "symbol",
      "outputs": [
        {
          "internalType": "string",
          "name": "",
          "type": "string"
        }
      ],
      "stateMutability": "view",
      "type": "function"
    },
    {
      "inputs": [
        {
          "internalType": "uint256",
          "name": "tokenId",
          "type": "uint256"
        }
      ],
      "name": "tokenURI",
      "outputs": [
        {
          "internalType": "string",
          "name": "",
          "type": "string"
        }
      ],
      "stateMutability": "view",
      "type": "function"
    },
    {
      "inputs": [
        {
          "internalType": "address",
          "name": "from",
          "type": "address"
        },
        {
          "internalType": "address",
          "name": "to",
          "type": "address"
        },
        {
          "internalType": "uint256",
          "name": "tokenId",
          "type": "uint256"
        }
      ],
      "name": "transferFrom",
      "outputs": [],
      "stateMutability": "nonpayable",
      "type": "function"
    },
    {
      "inputs": [
        {
          "internalType": "address",
          "name": "newOwner",
          "type": "address"
        }
      ],
      "name": "transferOwnership",
      "outputs": [],
      "stateMutability": "nonpayable",
      "type": "function"
    }
  ],
  "bytecode": "0x608060405260405180608001604052806040518060400160405280601581526020017f52656d656d6265722077686f20796f75206172652e00000000000000000000008152508152602001604051806060016040528060218152602001620038af6021913981526020016040518060400160405280600881526020017f466f72676976652e00000000000000000000000000000000000000000000000081525081526020016040518060400160405280601781526020017f43757420617761792066726f6d20796f757273656c662e000000000000000000815250815250600b906004620000ef92919062000301565b50348015620000fd57600080fd5b50604051620038d0380380620038d0833981810160405281019062000123919062000490565b6040518060400160405280600381526020017f556d6900000000000000000000000000000000000000000000000000000000008152506040518060400160405280600381526020017f554d4900000000000000000000000000000000000000000000000000000000008152508160009080519060200190620001a79291906200035b565b508060019080519060200190620001c09291906200035b565b5050506001600781905550620001eb620001df6200023360201b60201c565b6200023b60201b60201c565b80600a60006101000a81548173ffffffffffffffffffffffffffffffffffffffff021916908373ffffffffffffffffffffffffffffffffffffffff160217905550506200056f565b600033905090565b6000600860009054906101000a900473ffffffffffffffffffffffffffffffffffffffff16905081600860006101000a81548173ffffffffffffffffffffffffffffffffffffffff021916908373ffffffffffffffffffffffffffffffffffffffff1602179055508173ffffffffffffffffffffffffffffffffffffffff168173ffffffffffffffffffffffffffffffffffffffff167f8be0079c531659141344cd1fd0a4f28419497f9722a3daafe3b4186f6b6457e060405160405180910390a35050565b826004810192821562000348579160200282015b8281111562000347578251829080519060200190620003369291906200035b565b509160200191906001019062000315565b5b509050620003579190620003ec565b5090565b8280546200036990620004f0565b90600052602060002090601f0160209004810192826200038d5760008555620003d9565b82601f10620003a857805160ff1916838001178555620003d9565b82800160010185558215620003d9579182015b82811115620003d8578251825591602001919060010190620003bb565b5b509050620003e8919062000414565b5090565b5b8082111562000410576000818162000406919062000433565b50600101620003ed565b5090565b5b808211156200042f57600081600090555060010162000415565b5090565b5080546200044190620004f0565b6000825580601f1062000455575062000476565b601f01602090049060005260206000209081019062000475919062000414565b5b50565b6000815190506200048a8162000555565b92915050565b600060208284031215620004a357600080fd5b6000620004b38482850162000479565b91505092915050565b6000620004c982620004d0565b9050919050565b600073ffffffffffffffffffffffffffffffffffffffff82169050919050565b600060028204905060018216806200050957607f821691505b6020821081141562000520576200051f62000526565b5b50919050565b7f4e487b7100000000000000000000000000000000000000000000000000000000600052602260045260246000fd5b6200056081620004bc565b81146200056c57600080fd5b50565b613330806200057f6000396000f3fe608060405234801561001057600080fd5b506004361061012c5760003560e01c8063715018a6116100ad578063a22cb46511610071578063a22cb46514610345578063b88d4fde14610361578063c87b56dd1461037d578063e985e9c5146103ad578063f2fde38b146103dd5761012c565b8063715018a6146102b157806381bc610e146102bb578063893d20e8146102eb5780638da5cb5b1461030957806395d89b41146103275761012c565b806332d18ac8116100f457806332d18ac8146101e757806342842e0e146102175780636352211e146102335780636c1438621461026357806370a08231146102815761012c565b806301ffc9a71461013157806306fdde0314610161578063081812fc1461017f578063095ea7b3146101af57806323b872dd146101cb575b600080fd5b61014b6004803603810190610146919061218c565b6103f9565b60405161015891906126a7565b60405180910390f35b6101696104db565b60405161017691906126c2565b60405180910390f35b6101996004803603810190610194919061221f565b61056d565b6040516101a69190612640565b60405180910390f35b6101c960048036038101906101c49190612150565b6105f2565b005b6101e560048036038101906101e0919061204a565b61070a565b005b61020160048036038101906101fc91906121de565b61076a565b60405161020e9190612944565b60405180910390f35b610231600480360381019061022c919061204a565b610819565b005b61024d6004803603810190610248919061221f565b610839565b60405161025a9190612640565b60405180910390f35b61026b6108eb565b6040516102789190612944565b60405180910390f35b61029b60048036038101906102969190611fe5565b6108fc565b6040516102a89190612944565b60405180910390f35b6102b96109b4565b005b6102d560048036038101906102d0919061221f565b610a3c565b6040516102e291906126c2565b60405180910390f35b6102f3610a4e565b6040516103009190612640565b60405180910390f35b610311610a5d565b60405161031e9190612640565b60405180910390f35b61032f610a87565b60405161033c91906126c2565b60405180910390f35b61035f600480360381019061035a9190612114565b610b19565b005b61037b60048036038101906103769190612099565b610c9a565b005b6103976004803603810190610392919061221f565b610cfc565b6040516103a491906126c2565b60405180910390f35b6103c760048036038101906103c2919061200e565b610e4e565b6040516103d491906126a7565b60405180910390f35b6103f760048036038101906103f29190611fe5565b610ee2565b005b60007f80ac58cd000000000000000000000000000000000000000000000000000000007bffffffffffffffffffffffffffffffffffffffffffffffffffffffff1916827bffffffffffffffffffffffffffffffffffffffffffffffffffffffff191614806104c457507f5b5e139f000000000000000000000000000000000000000000000000000000007bffffffffffffffffffffffffffffffffffffffffffffffffffffffff1916827bffffffffffffffffffffffffffffffffffffffffffffffffffffffff1916145b806104d457506104d382610fda565b5b9050919050565b6060600080546104ea90612b9a565b80601f016020809104026020016040519081016040528092919081815260200182805461051690612b9a565b80156105635780601f1061053857610100808354040283529160200191610563565b820191906000526020600020905b81548152906001019060200180831161054657829003601f168201915b5050505050905090565b600061057882611044565b6105b7576040517f08c379a00000000000000000000000000000000000000000000000000000000081526004016105ae90612864565b60405180910390fd5b6004600083815260200190815260200160002060009054906101000a900473ffffffffffffffffffffffffffffffffffffffff169050919050565b60006105fd82610839565b90508073ffffffffffffffffffffffffffffffffffffffff168373ffffffffffffffffffffffffffffffffffffffff16141561066e576040517f08c379a0000000000000000000000000000000000000000000000000000000008152600401610665906128e4565b60405180910390fd5b8073ffffffffffffffffffffffffffffffffffffffff1661068d6110b0565b73ffffffffffffffffffffffffffffffffffffffff1614806106bc57506106bb816106b66110b0565b610e4e565b5b6106fb576040517f08c379a00000000000000000000000000000000000000000000000000000000081526004016106f2906127a4565b60405180910390fd5b61070583836110b8565b505050565b61071b6107156110b0565b82611171565b61075a576040517f08c379a000000000000000000000000000000000000000000000000000000000815260040161075190612904565b60405180910390fd5b61076583838361124f565b505050565b6000600260075414156107b2576040517f08c379a00000000000000000000000000000000000000000000000000000000081526004016107a990612924565b60405180910390fd5b60026007819055506107c460096114ab565b60006107d060096114c1565b90506107fe600a60009054906101000a900473ffffffffffffffffffffffffffffffffffffffff16826114cf565b61080881846114ed565b809150506001600781905550919050565b61083483838360405180602001604052806000815250610c9a565b505050565b6000806002600084815260200190815260200160002060009054906101000a900473ffffffffffffffffffffffffffffffffffffffff169050600073ffffffffffffffffffffffffffffffffffffffff168173ffffffffffffffffffffffffffffffffffffffff1614156108e2576040517f08c379a00000000000000000000000000000000000000000000000000000000081526004016108d9906127e4565b60405180910390fd5b80915050919050565b60006108f760096114c1565b905090565b60008073ffffffffffffffffffffffffffffffffffffffff168273ffffffffffffffffffffffffffffffffffffffff16141561096d576040517f08c379a0000000000000000000000000000000000000000000000000000000008152600401610964906127c4565b60405180910390fd5b600360008373ffffffffffffffffffffffffffffffffffffffff1673ffffffffffffffffffffffffffffffffffffffff168152602001908152602001600020549050919050565b6109bc6110b0565b73ffffffffffffffffffffffffffffffffffffffff166109da610a5d565b73ffffffffffffffffffffffffffffffffffffffff1614610a30576040517f08c379a0000000000000000000000000000000000000000000000000000000008152600401610a2790612884565b60405180910390fd5b610a3a6000611561565b565b6060610a4782611627565b9050919050565b6000610a58610a5d565b905090565b6000600860009054906101000a900473ffffffffffffffffffffffffffffffffffffffff16905090565b606060018054610a9690612b9a565b80601f0160208091040260200160405190810160405280929190818152602001828054610ac290612b9a565b8015610b0f5780601f10610ae457610100808354040283529160200191610b0f565b820191906000526020600020905b815481529060010190602001808311610af257829003601f168201915b5050505050905090565b610b216110b0565b73ffffffffffffffffffffffffffffffffffffffff168273ffffffffffffffffffffffffffffffffffffffff161415610b8f576040517f08c379a0000000000000000000000000000000000000000000000000000000008152600401610b8690612764565b60405180910390fd5b8060056000610b9c6110b0565b73ffffffffffffffffffffffffffffffffffffffff1673ffffffffffffffffffffffffffffffffffffffff16815260200190815260200160002060008473ffffffffffffffffffffffffffffffffffffffff1673ffffffffffffffffffffffffffffffffffffffff16815260200190815260200160002060006101000a81548160ff0219169083151502179055508173ffffffffffffffffffffffffffffffffffffffff16610c496110b0565b73ffffffffffffffffffffffffffffffffffffffff167f17307eab39ab6107e8899845ad3d59bd9653f200f220920489ca2b5937696c3183604051610c8e91906126a7565b60405180910390a35050565b610cab610ca56110b0565b83611171565b610cea576040517f08c379a0000000000000000000000000000000000000000000000000000000008152600401610ce190612904565b60405180910390fd5b610cf684848484611713565b50505050565b6060610d0782611044565b610d46576040517f08c379a0000000000000000000000000000000000000000000000000000000008152600401610d3d90612844565b60405180910390fd5b6000600660008481526020019081526020016000208054610d6690612b9a565b80601f0160208091040260200160405190810160405280929190818152602001828054610d9290612b9a565b8015610ddf5780601f10610db457610100808354040283529160200191610ddf565b820191906000526020600020905b815481529060010190602001808311610dc257829003601f168201915b505050505090506000610df061176f565b9050600081511415610e06578192505050610e49565b600082511115610e3b578082604051602001610e239291906125df565b60405160208183030381529060405292505050610e49565b610e4484611786565b925050505b919050565b6000600560008473ffffffffffffffffffffffffffffffffffffffff1673ffffffffffffffffffffffffffffffffffffffff16815260200190815260200160002060008373ffffffffffffffffffffffffffffffffffffffff1673ffffffffffffffffffffffffffffffffffffffff16815260200190815260200160002060009054906101000a900460ff16905092915050565b610eea6110b0565b73ffffffffffffffffffffffffffffffffffffffff16610f08610a5d565b73ffffffffffffffffffffffffffffffffffffffff1614610f5e576040517f08c379a0000000000000000000000000000000000000000000000000000000008152600401610f5590612884565b60405180910390fd5b600073ffffffffffffffffffffffffffffffffffffffff168173ffffffffffffffffffffffffffffffffffffffff161415610fce576040517f08c379a0000000000000000000000000000000000000000000000000000000008152600401610fc590612704565b60405180910390fd5b610fd781611561565b50565b60007f01ffc9a7000000000000000000000000000000000000000000000000000000007bffffffffffffffffffffffffffffffffffffffffffffffffffffffff1916827bffffffffffffffffffffffffffffffffffffffffffffffffffffffff1916149050919050565b60008073ffffffffffffffffffffffffffffffffffffffff166002600084815260200190815260200160002060009054906101000a900473ffffffffffffffffffffffffffffffffffffffff1673ffffffffffffffffffffffffffffffffffffffff1614159050919050565b600033905090565b816004600083815260200190815260200160002060006101000a81548173ffffffffffffffffffffffffffffffffffffffff021916908373ffffffffffffffffffffffffffffffffffffffff160217905550808273ffffffffffffffffffffffffffffffffffffffff1661112b83610839565b73ffffffffffffffffffffffffffffffffffffffff167f8c5be1e5ebec7d5bd14f71427d1e84f3dd0314c0f7b2291e5b200ac8c7c3b92560405160405180910390a45050565b600061117c82611044565b6111bb576040517f08c379a00000000000000000000000000000000000000000000000000000000081526004016111b290612784565b60405180910390fd5b60006111c683610839565b90508073ffffffffffffffffffffffffffffffffffffffff168473ffffffffffffffffffffffffffffffffffffffff16148061123557508373ffffffffffffffffffffffffffffffffffffffff1661121d8461056d565b73ffffffffffffffffffffffffffffffffffffffff16145b8061124657506112458185610e4e565b5b91505092915050565b8273ffffffffffffffffffffffffffffffffffffffff1661126f82610839565b73ffffffffffffffffffffffffffffffffffffffff16146112c5576040517f08c379a00000000000000000000000000000000000000000000000000000000081526004016112bc906128a4565b60405180910390fd5b600073ffffffffffffffffffffffffffffffffffffffff168273ffffffffffffffffffffffffffffffffffffffff161415611335576040517f08c379a000000000000000000000000000000000000000000000000000000000815260040161132c90612744565b60405180910390fd5b61134083838361182d565b61134b6000826110b8565b6001600360008573ffffffffffffffffffffffffffffffffffffffff1673ffffffffffffffffffffffffffffffffffffffff168152602001908152602001600020600082825461139b9190612ab0565b925050819055506001600360008473ffffffffffffffffffffffffffffffffffffffff1673ffffffffffffffffffffffffffffffffffffffff16815260200190815260200160002060008282546113f29190612a29565b92505081905550816002600083815260200190815260200160002060006101000a81548173ffffffffffffffffffffffffffffffffffffffff021916908373ffffffffffffffffffffffffffffffffffffffff160217905550808273ffffffffffffffffffffffffffffffffffffffff168473ffffffffffffffffffffffffffffffffffffffff167fddf252ad1be2c89b69c2b068fc378daa952ba7f163c4a11628f55a4df523b3ef60405160405180910390a4505050565b6001816000016000828254019250508190555050565b600081600001549050919050565b6114e9828260405180602001604052806000815250611832565b5050565b6114f682611044565b611535576040517f08c379a000000000000000000000000000000000000000000000000000000000815260040161152c90612804565b60405180910390fd5b8060066000848152602001908152602001600020908051906020019061155c929190611e09565b505050565b6000600860009054906101000a900473ffffffffffffffffffffffffffffffffffffffff16905081600860006101000a81548173ffffffffffffffffffffffffffffffffffffffff021916908373ffffffffffffffffffffffffffffffffffffffff1602179055508173ffffffffffffffffffffffffffffffffffffffff168173ffffffffffffffffffffffffffffffffffffffff167f8be0079c531659141344cd1fd0a4f28419497f9722a3daafe3b4186f6b6457e060405160405180910390a35050565b60606000600461163561188d565b61163f9190612c74565b90506000600b826004811061167d577f4e487b7100000000000000000000000000000000000000000000000000000000600052603260045260246000fd5b01805461168990612b9a565b80601f01602080910402602001604051908101604052809291908181526020018280546116b590612b9a565b80156117025780601f106116d757610100808354040283529160200191611702565b820191906000526020600020905b8154815290600101906020018083116116e557829003601f168201915b505050505090508092505050919050565b61171e84848461124f565b61172a848484846118e4565b611769576040517f08c379a0000000000000000000000000000000000000000000000000000000008152600401611760906126e4565b60405180910390fd5b50505050565b606060405180602001604052806000815250905090565b606061179182611044565b6117d0576040517f08c379a00000000000000000000000000000000000000000000000000000000081526004016117c7906128c4565b60405180910390fd5b60006117da61176f565b905060008151116117fa5760405180602001604052806000815250611825565b8061180484611a7b565b6040516020016118159291906125df565b6040516020818303038152906040525b915050919050565b505050565b61183c8383611c28565b61184960008484846118e4565b611888576040517f08c379a000000000000000000000000000000000000000000000000000000000815260040161187f906126e4565b60405180910390fd5b505050565b60004442600a60009054906101000a900473ffffffffffffffffffffffffffffffffffffffff166040516020016118c693929190612603565b6040516020818303038152906040528051906020012060001c905090565b60006119058473ffffffffffffffffffffffffffffffffffffffff16611df6565b15611a6e578373ffffffffffffffffffffffffffffffffffffffff1663150b7a0261192e6110b0565b8786866040518563ffffffff1660e01b8152600401611950949392919061265b565b602060405180830381600087803b15801561196a57600080fd5b505af192505050801561199b57506040513d601f19601f8201168201806040525081019061199891906121b5565b60015b611a1e573d80600081146119cb576040519150601f19603f3d011682016040523d82523d6000602084013e6119d0565b606091505b50600081511415611a16576040517f08c379a0000000000000000000000000000000000000000000000000000000008152600401611a0d906126e4565b60405180910390fd5b805181602001fd5b63150b7a0260e01b7bffffffffffffffffffffffffffffffffffffffffffffffffffffffff1916817bffffffffffffffffffffffffffffffffffffffffffffffffffffffff191614915050611a73565b600190505b949350505050565b60606000821415611ac3576040518060400160405280600181526020017f30000000000000000000000000000000000000000000000000000000000000008152509050611c23565b600082905060005b60008214611af5578080611ade90612bfd565b915050600a82611aee9190612a7f565b9150611acb565b60008167ffffffffffffffff811115611b37577f4e487b7100000000000000000000000000000000000000000000000000000000600052604160045260246000fd5b6040519080825280601f01601f191660200182016040528015611b695781602001600182028036833780820191505090505b5090505b60008514611c1c57600182611b829190612ab0565b9150600a85611b919190612c74565b6030611b9d9190612a29565b60f81b818381518110611bd9577f4e487b7100000000000000000000000000000000000000000000000000000000600052603260045260246000fd5b60200101907effffffffffffffffffffffffffffffffffffffffffffffffffffffffffffff1916908160001a905350600a85611c159190612a7f565b9450611b6d565b8093505050505b919050565b600073ffffffffffffffffffffffffffffffffffffffff168273ffffffffffffffffffffffffffffffffffffffff161415611c98576040517f08c379a0000000000000000000000000000000000000000000000000000000008152600401611c8f90612824565b60405180910390fd5b611ca181611044565b15611ce1576040517f08c379a0000000000000000000000000000000000000000000000000000000008152600401611cd890612724565b60405180910390fd5b611ced6000838361182d565b6001600360008473ffffffffffffffffffffffffffffffffffffffff1673ffffffffffffffffffffffffffffffffffffffff1681526020019081526020016000206000828254611d3d9190612a29565b92505081905550816002600083815260200190815260200160002060006101000a81548173ffffffffffffffffffffffffffffffffffffffff021916908373ffffffffffffffffffffffffffffffffffffffff160217905550808273ffffffffffffffffffffffffffffffffffffffff16600073ffffffffffffffffffffffffffffffffffffffff167fddf252ad1be2c89b69c2b068fc378daa952ba7f163c4a11628f55a4df523b3ef60405160405180910390a45050565b600080823b905060008111915050919050565b828054611e1590612b9a565b90600052602060002090601f016020900481019282611e375760008555611e7e565b82601f10611e5057805160ff1916838001178555611e7e565b82800160010185558215611e7e579182015b82811115611e7d578251825591602001919060010190611e62565b5b509050611e8b9190611e8f565b5090565b5b80821115611ea8576000816000905550600101611e90565b5090565b6000611ebf611eba84612984565b61295f565b905082815260208101848484011115611ed757600080fd5b611ee2848285612b58565b509392505050565b6000611efd611ef8846129b5565b61295f565b905082815260208101848484011115611f1557600080fd5b611f20848285612b58565b509392505050565b600081359050611f378161329e565b92915050565b600081359050611f4c816132b5565b92915050565b600081359050611f61816132cc565b92915050565b600081519050611f76816132cc565b92915050565b600082601f830112611f8d57600080fd5b8135611f9d848260208601611eac565b91505092915050565b600082601f830112611fb757600080fd5b8135611fc7848260208601611eea565b91505092915050565b600081359050611fdf816132e3565b92915050565b600060208284031215611ff757600080fd5b600061200584828501611f28565b91505092915050565b6000806040838503121561202157600080fd5b600061202f85828601611f28565b925050602061204085828601611f28565b9150509250929050565b60008060006060848603121561205f57600080fd5b600061206d86828701611f28565b935050602061207e86828701611f28565b925050604061208f86828701611fd0565b9150509250925092565b600080600080608085870312156120af57600080fd5b60006120bd87828801611f28565b94505060206120ce87828801611f28565b93505060406120df87828801611fd0565b925050606085013567ffffffffffffffff8111156120fc57600080fd5b61210887828801611f7c565b91505092959194509250565b6000806040838503121561212757600080fd5b600061213585828601611f28565b925050602061214685828601611f3d565b9150509250929050565b6000806040838503121561216357600080fd5b600061217185828601611f28565b925050602061218285828601611fd0565b9150509250929050565b60006020828403121561219e57600080fd5b60006121ac84828501611f52565b91505092915050565b6000602082840312156121c757600080fd5b60006121d584828501611f67565b91505092915050565b6000602082840312156121f057600080fd5b600082013567ffffffffffffffff81111561220a57600080fd5b61221684828501611fa6565b91505092915050565b60006020828403121561223157600080fd5b600061223f84828501611fd0565b91505092915050565b61225181612ae4565b82525050565b61226861226382612ae4565b612c46565b82525050565b61227781612af6565b82525050565b6000612288826129e6565b61229281856129fc565b93506122a2818560208601612b67565b6122ab81612d61565b840191505092915050565b60006122c1826129f1565b6122cb8185612a0d565b93506122db818560208601612b67565b6122e481612d61565b840191505092915050565b60006122fa826129f1565b6123048185612a1e565b9350612314818560208601612b67565b80840191505092915050565b600061232d603283612a0d565b915061233882612d7f565b604082019050919050565b6000612350602683612a0d565b915061235b82612dce565b604082019050919050565b6000612373601c83612a0d565b915061237e82612e1d565b602082019050919050565b6000612396602483612a0d565b91506123a182612e46565b604082019050919050565b60006123b9601983612a0d565b91506123c482612e95565b602082019050919050565b60006123dc602c83612a0d565b91506123e782612ebe565b604082019050919050565b60006123ff603883612a0d565b915061240a82612f0d565b604082019050919050565b6000612422602a83612a0d565b915061242d82612f5c565b604082019050919050565b6000612445602983612a0d565b915061245082612fab565b604082019050919050565b6000612468602e83612a0d565b915061247382612ffa565b604082019050919050565b600061248b602083612a0d565b915061249682613049565b602082019050919050565b60006124ae603183612a0d565b91506124b982613072565b604082019050919050565b60006124d1602c83612a0d565b91506124dc826130c1565b604082019050919050565b60006124f4602083612a0d565b91506124ff82613110565b602082019050919050565b6000612517602983612a0d565b915061252282613139565b604082019050919050565b600061253a602f83612a0d565b915061254582613188565b604082019050919050565b600061255d602183612a0d565b9150612568826131d7565b604082019050919050565b6000612580603183612a0d565b915061258b82613226565b604082019050919050565b60006125a3601f83612a0d565b91506125ae82613275565b602082019050919050565b6125c281612b4e565b82525050565b6125d96125d482612b4e565b612c6a565b82525050565b60006125eb82856122ef565b91506125f782846122ef565b91508190509392505050565b600061260f82866125c8565b60208201915061261f82856125c8565b60208201915061262f8284612257565b601482019150819050949350505050565b60006020820190506126556000830184612248565b92915050565b60006080820190506126706000830187612248565b61267d6020830186612248565b61268a60408301856125b9565b818103606083015261269c818461227d565b905095945050505050565b60006020820190506126bc600083018461226e565b92915050565b600060208201905081810360008301526126dc81846122b6565b905092915050565b600060208201905081810360008301526126fd81612320565b9050919050565b6000602082019050818103600083015261271d81612343565b9050919050565b6000602082019050818103600083015261273d81612366565b9050919050565b6000602082019050818103600083015261275d81612389565b9050919050565b6000602082019050818103600083015261277d816123ac565b9050919050565b6000602082019050818103600083015261279d816123cf565b9050919050565b600060208201905081810360008301526127bd816123f2565b9050919050565b600060208201905081810360008301526127dd81612415565b9050919050565b600060208201905081810360008301526127fd81612438565b9050919050565b6000602082019050818103600083015261281d8161245b565b9050919050565b6000602082019050818103600083015261283d8161247e565b9050919050565b6000602082019050818103600083015261285d816124a1565b9050919050565b6000602082019050818103600083015261287d816124c4565b9050919050565b6000602082019050818103600083015261289d816124e7565b9050919050565b600060208201905081810360008301526128bd8161250a565b9050919050565b600060208201905081810360008301526128dd8161252d565b9050919050565b600060208201905081810360008301526128fd81612550565b9050919050565b6000602082019050818103600083015261291d81612573565b9050919050565b6000602082019050818103600083015261293d81612596565b9050919050565b600060208201905061295960008301846125b9565b92915050565b600061296961297a565b90506129758282612bcc565b919050565b6000604051905090565b600067ffffffffffffffff82111561299f5761299e612d32565b5b6129a882612d61565b9050602081019050919050565b600067ffffffffffffffff8211156129d0576129cf612d32565b5b6129d982612d61565b9050602081019050919050565b600081519050919050565b600081519050919050565b600082825260208201905092915050565b600082825260208201905092915050565b600081905092915050565b6000612a3482612b4e565b9150612a3f83612b4e565b9250827fffffffffffffffffffffffffffffffffffffffffffffffffffffffffffffffff03821115612a7457612a73612ca5565b5b828201905092915050565b6000612a8a82612b4e565b9150612a9583612b4e565b925082612aa557612aa4612cd4565b5b828204905092915050565b6000612abb82612b4e565b9150612ac683612b4e565b925082821015612ad957612ad8612ca5565b5b828203905092915050565b6000612aef82612b2e565b9050919050565b60008115159050919050565b60007fffffffff0000000000000000000000000000000000000000000000000000000082169050919050565b600073ffffffffffffffffffffffffffffffffffffffff82169050919050565b6000819050919050565b82818337600083830152505050565b60005b83811015612b85578082015181840152602081019050612b6a565b83811115612b94576000848401525b50505050565b60006002820490506001821680612bb257607f821691505b60208210811415612bc657612bc5612d03565b5b50919050565b612bd582612d61565b810181811067ffffffffffffffff82111715612bf457612bf3612d32565b5b80604052505050565b6000612c0882612b4e565b91507fffffffffffffffffffffffffffffffffffffffffffffffffffffffffffffffff821415612c3b57612c3a612ca5565b5b600182019050919050565b6000612c5182612c58565b9050919050565b6000612c6382612d72565b9050919050565b6000819050919050565b6000612c7f82612b4e565b9150612c8a83612b4e565b925082612c9a57612c99612cd4565b5b828206905092915050565b7f4e487b7100000000000000000000000000000000000000000000000000000000600052601160045260246000fd5b7f4e487b7100000000000000000000000000000000000000000000000000000000600052601260045260246000fd5b7f4e487b7100000000000000000000000000000000000000000000000000000000600052602260045260246000fd5b7f4e487b7100000000000000000000000000000000000000000000000000000000600052604160045260246000fd5b6000601f19601f8301169050919050565b60008160601b9050919050565b7f4552433732313a207472616e7366657220746f206e6f6e20455243373231526560008201527f63656976657220696d706c656d656e7465720000000000000000000000000000602082015250565b7f4f776e61626c653a206e6577206f776e657220697320746865207a65726f206160008201527f6464726573730000000000000000000000000000000000000000000000000000602082015250565b7f4552433732313a20746f6b656e20616c7265616479206d696e74656400000000600082015250565b7f4552433732313a207472616e7366657220746f20746865207a65726f2061646460008201527f7265737300000000000000000000000000000000000000000000000000000000602082015250565b7f4552433732313a20617070726f766520746f2063616c6c657200000000000000600082015250565b7f4552433732313a206f70657261746f7220717565727920666f72206e6f6e657860008201527f697374656e7420746f6b656e0000000000000000000000000000000000000000602082015250565b7f4552433732313a20617070726f76652063616c6c6572206973206e6f74206f7760008201527f6e6572206e6f7220617070726f76656420666f7220616c6c0000000000000000602082015250565b7f4552433732313a2062616c616e636520717565727920666f7220746865207a6560008201527f726f206164647265737300000000000000000000000000000000000000000000602082015250565b7f4552433732313a206f776e657220717565727920666f72206e6f6e657869737460008201527f656e7420746f6b656e0000000000000000000000000000000000000000000000602082015250565b7f45524337323155524953746f726167653a2055524920736574206f66206e6f6e60008201527f6578697374656e7420746f6b656e000000000000000000000000000000000000602082015250565b7f4552433732313a206d696e7420746f20746865207a65726f2061646472657373600082015250565b7f45524337323155524953746f726167653a2055524920717565727920666f722060008201527f6e6f6e6578697374656e7420746f6b656e000000000000000000000000000000602082015250565b7f4552433732313a20617070726f76656420717565727920666f72206e6f6e657860008201527f697374656e7420746f6b656e0000000000000000000000000000000000000000602082015250565b7f4f776e61626c653a2063616c6c6572206973206e6f7420746865206f776e6572600082015250565b7f4552433732313a207472616e73666572206f6620746f6b656e2074686174206960008201527f73206e6f74206f776e0000000000000000000000000000000000000000000000602082015250565b7f4552433732314d657461646174613a2055524920717565727920666f72206e6f60008201527f6e6578697374656e7420746f6b656e0000000000000000000000000000000000602082015250565b7f4552433732313a20617070726f76616c20746f2063757272656e74206f776e6560008201527f7200000000000000000000000000000000000000000000000000000000000000602082015250565b7f4552433732313a207472616e736665722063616c6c6572206973206e6f74206f60008201527f776e6572206e6f7220617070726f766564000000000000000000000000000000602082015250565b7f5265656e7472616e637947756172643a207265656e7472616e742063616c6c00600082015250565b6132a781612ae4565b81146132b257600080fd5b50565b6132be81612af6565b81146132c957600080fd5b50565b6132d581612b02565b81146132e057600080fd5b50565b6132ec81612b4e565b81146132f757600080fd5b5056fea264697066735822122002dc9e4d0915522c2c77a88aa0de864bf65ed00aed1975a2846fabac0186848a64736f6c63430008040033456e746875736961736d20697320776f72746820323520495120706f696e74732e",
  "linkReferences": {},
  "deployedLinkReferences": {}
}