{
  "address": "0x97B73351a5bCf759373419d74C163D48Ae3c1133",
  "abi": [
    {
      "inputs": [
        {
          "internalType": "address",
          "name": "_umi",
          "type": "address"
        }
      ],
      "stateMutability": "nonpayable",
      "type": "constructor"
    },
    {
      "anonymous": false,
      "inputs": [
        {
          "indexed": true,
          "internalType": "address",
          "name": "owner",
          "type": "address"
        },
        {
          "indexed": true,
          "internalType": "address",
          "name": "approved",
          "type": "address"
        },
        {
          "indexed": true,
          "internalType": "uint256",
          "name": "tokenId",
          "type": "uint256"
        }
      ],
      "name": "Approval",
      "type": "event"
    },
    {
      "anonymous": false,
      "inputs": [
        {
          "indexed": true,
          "internalType": "address",
          "name": "owner",
          "type": "address"
        },
        {
          "indexed": true,
          "internalType": "address",
          "name": "operator",
          "type": "address"
        },
        {
          "indexed": false,
          "internalType": "bool",
          "name": "approved",
          "type": "bool"
        }
      ],
      "name": "ApprovalForAll",
      "type": "event"
    },
    {
      "anonymous": false,
      "inputs": [
        {
          "indexed": true,
          "internalType": "address",
          "name": "previousOwner",
          "type": "address"
        },
        {
          "indexed": true,
          "internalType": "address",
          "name": "newOwner",
          "type": "address"
        }
      ],
      "name": "OwnershipTransferred",
      "type": "event"
    },
    {
      "anonymous": false,
      "inputs": [
        {
          "indexed": true,
          "internalType": "address",
          "name": "from",
          "type": "address"
        },
        {
          "indexed": true,
          "internalType": "address",
          "name": "to",
          "type": "address"
        },
        {
          "indexed": true,
          "internalType": "uint256",
          "name": "tokenId",
          "type": "uint256"
        }
      ],
      "name": "Transfer",
      "type": "event"
    },
    {
      "inputs": [
        {
          "internalType": "uint256",
          "name": "",
          "type": "uint256"
        }
      ],
      "name": "adviceList",
      "outputs": [
        {
          "internalType": "string",
          "name": "",
          "type": "string"
        }
      ],
      "stateMutability": "view",
      "type": "function"
    },
    {
      "inputs": [
        {
          "internalType": "address",
          "name": "to",
          "type": "address"
        },
        {
          "internalType": "uint256",
          "name": "tokenId",
          "type": "uint256"
        }
      ],
      "name": "approve",
      "outputs": [],
      "stateMutability": "nonpayable",
      "type": "function"
    },
    {
      "inputs": [
        {
          "internalType": "address",
          "name": "owner",
          "type": "address"
        }
      ],
      "name": "balanceOf",
      "outputs": [
        {
          "internalType": "uint256",
          "name": "",
          "type": "uint256"
        }
      ],
      "stateMutability": "view",
      "type": "function"
    },
    {
      "inputs": [],
      "name": "createNFT",
      "outputs": [
        {
          "internalType": "uint256",
          "name": "",
          "type": "uint256"
        }
      ],
      "stateMutability": "nonpayable",
      "type": "function"
    },
    {
      "inputs": [],
      "name": "generateAdvice",
      "outputs": [
        {
          "internalType": "string",
          "name": "",
          "type": "string"
        }
      ],
      "stateMutability": "view",
      "type": "function"
    },
    {
      "inputs": [
        {
          "internalType": "uint256",
          "name": "tokenId",
          "type": "uint256"
        }
      ],
      "name": "getApproved",
      "outputs": [
        {
          "internalType": "address",
          "name": "",
          "type": "address"
        }
      ],
      "stateMutability": "view",
      "type": "function"
    },
    {
      "inputs": [
        {
          "internalType": "address",
          "name": "owner",
          "type": "address"
        },
        {
          "internalType": "address",
          "name": "operator",
          "type": "address"
        }
      ],
      "name": "isApprovedForAll",
      "outputs": [
        {
          "internalType": "bool",
          "name": "",
          "type": "bool"
        }
      ],
      "stateMutability": "view",
      "type": "function"
    },
    {
      "inputs": [],
      "name": "name",
      "outputs": [
        {
          "internalType": "string",
          "name": "",
          "type": "string"
        }
      ],
      "stateMutability": "view",
      "type": "function"
    },
    {
      "inputs": [],
      "name": "owner",
      "outputs": [
        {
          "internalType": "address",
          "name": "",
          "type": "address"
        }
      ],
      "stateMutability": "view",
      "type": "function"
    },
    {
      "inputs": [
        {
          "internalType": "uint256",
          "name": "tokenId",
          "type": "uint256"
        }
      ],
      "name": "ownerOf",
      "outputs": [
        {
          "internalType": "address",
          "name": "",
          "type": "address"
        }
      ],
      "stateMutability": "view",
      "type": "function"
    },
    {
      "inputs": [
        {
          "internalType": "uint256",
          "name": "_seed",
          "type": "uint256"
        }
      ],
      "name": "randomCoord",
      "outputs": [
        {
          "internalType": "string",
          "name": "",
          "type": "string"
        }
      ],
      "stateMutability": "view",
      "type": "function"
    },
    {
      "inputs": [],
      "name": "randomNumCircle",
      "outputs": [
        {
          "internalType": "uint256",
          "name": "",
          "type": "uint256"
        }
      ],
      "stateMutability": "view",
      "type": "function"
    },
    {
      "inputs": [],
      "name": "randomRadius",
      "outputs": [
        {
          "internalType": "string",
          "name": "",
          "type": "string"
        }
      ],
      "stateMutability": "view",
      "type": "function"
    },
    {
      "inputs": [],
      "name": "renounceOwnership",
      "outputs": [],
      "stateMutability": "nonpayable",
      "type": "function"
    },
    {
      "inputs": [
        {
          "internalType": "address",
          "name": "from",
          "type": "address"
        },
        {
          "internalType": "address",
          "name": "to",
          "type": "address"
        },
        {
          "internalType": "uint256",
          "name": "tokenId",
          "type": "uint256"
        }
      ],
      "name": "safeTransferFrom",
      "outputs": [],
      "stateMutability": "nonpayable",
      "type": "function"
    },
    {
      "inputs": [
        {
          "internalType": "address",
          "name": "from",
          "type": "address"
        },
        {
          "internalType": "address",
          "name": "to",
          "type": "address"
        },
        {
          "internalType": "uint256",
          "name": "tokenId",
          "type": "uint256"
        },
        {
          "internalType": "bytes",
          "name": "_data",
          "type": "bytes"
        }
      ],
      "name": "safeTransferFrom",
      "outputs": [],
      "stateMutability": "nonpayable",
      "type": "function"
    },
    {
      "inputs": [
        {
          "internalType": "address",
          "name": "operator",
          "type": "address"
        },
        {
          "internalType": "bool",
          "name": "approved",
          "type": "bool"
        }
      ],
      "name": "setApprovalForAll",
      "outputs": [],
      "stateMutability": "nonpayable",
      "type": "function"
    },
    {
      "inputs": [
        {
          "internalType": "bytes4",
          "name": "interfaceId",
          "type": "bytes4"
        }
      ],
      "name": "supportsInterface",
      "outputs": [
        {
          "internalType": "bool",
          "name": "",
          "type": "bool"
        }
      ],
      "stateMutability": "view",
      "type": "function"
    },
    {
      "inputs": [],
      "name": "symbol",
      "outputs": [
        {
          "internalType": "string",
          "name": "",
          "type": "string"
        }
      ],
      "stateMutability": "view",
      "type": "function"
    },
    {
      "inputs": [
        {
          "internalType": "uint256",
          "name": "tokenId",
          "type": "uint256"
        }
      ],
      "name": "tokenURI",
      "outputs": [
        {
          "internalType": "string",
          "name": "",
          "type": "string"
        }
      ],
      "stateMutability": "view",
      "type": "function"
    },
    {
      "inputs": [
        {
          "internalType": "address",
          "name": "from",
          "type": "address"
        },
        {
          "internalType": "address",
          "name": "to",
          "type": "address"
        },
        {
          "internalType": "uint256",
          "name": "tokenId",
          "type": "uint256"
        }
      ],
      "name": "transferFrom",
      "outputs": [],
      "stateMutability": "nonpayable",
      "type": "function"
    },
    {
      "inputs": [
        {
          "internalType": "address",
          "name": "newOwner",
          "type": "address"
        }
      ],
      "name": "transferOwnership",
      "outputs": [],
      "stateMutability": "nonpayable",
      "type": "function"
    },
    {
      "inputs": [],
      "name": "umi",
      "outputs": [
        {
          "internalType": "address",
          "name": "",
          "type": "address"
        }
      ],
      "stateMutability": "view",
      "type": "function"
    }
  ],
  "transactionHash": "0x13b6229b92c8d6faada640cb8d123c3f2f64ee6938312b9b619ad3bd13b20a36",
  "args": [
    "0x22724d4aae7aefec6cd63a71ade0fc929329af46"
  ],
  "solcInputHash": "d34ed0fbba67fff5a81309c26a282401",
  "bytecode": "0x608060405260405180608001604052806040518060400160405280601581526020017f596f7572206d6f746865722069732072696768742e00000000000000000000008152508152602001604051806060016040528060218152602001620048516021913981526020016040518060600160405280602a815260200162004872602a913981526020016040518060400160405280600a81526020017f42652074686520656c6600000000000000000000000000000000000000000000815250815250600a906004620000d3929190620002dd565b50348015620000e157600080fd5b506040516200489c3803806200489c83398181016040528101906200010791906200046c565b6040518060400160405280600381526020017f556d6900000000000000000000000000000000000000000000000000000000008152506040518060400160405280600381526020017f554d49000000000000000000000000000000000000000000000000000000000081525081600090805190602001906200018b92919062000337565b508060019080519060200190620001a492919062000337565b505050620001c7620001bb6200020f60201b60201c565b6200021760201b60201c565b80600960006101000a81548173ffffffffffffffffffffffffffffffffffffffff021916908373ffffffffffffffffffffffffffffffffffffffff160217905550506200054b565b600033905090565b6000600760009054906101000a900473ffffffffffffffffffffffffffffffffffffffff16905081600760006101000a81548173ffffffffffffffffffffffffffffffffffffffff021916908373ffffffffffffffffffffffffffffffffffffffff1602179055508173ffffffffffffffffffffffffffffffffffffffff168173ffffffffffffffffffffffffffffffffffffffff167f8be0079c531659141344cd1fd0a4f28419497f9722a3daafe3b4186f6b6457e060405160405180910390a35050565b826004810192821562000324579160200282015b82811115620003235782518290805190602001906200031292919062000337565b5091602001919060010190620002f1565b5b509050620003339190620003c8565b5090565b8280546200034590620004cc565b90600052602060002090601f016020900481019282620003695760008555620003b5565b82601f106200038457805160ff1916838001178555620003b5565b82800160010185558215620003b5579182015b82811115620003b457825182559160200191906001019062000397565b5b509050620003c49190620003f0565b5090565b5b80821115620003ec5760008181620003e291906200040f565b50600101620003c9565b5090565b5b808211156200040b576000816000905550600101620003f1565b5090565b5080546200041d90620004cc565b6000825580601f1062000431575062000452565b601f016020900490600052602060002090810190620004519190620003f0565b5b50565b600081519050620004668162000531565b92915050565b6000602082840312156200047f57600080fd5b60006200048f8482850162000455565b91505092915050565b6000620004a582620004ac565b9050919050565b600073ffffffffffffffffffffffffffffffffffffffff82169050919050565b60006002820490506001821680620004e557607f821691505b60208210811415620004fc57620004fb62000502565b5b50919050565b7f4e487b7100000000000000000000000000000000000000000000000000000000600052602260045260246000fd5b6200053c8162000498565b81146200054857600080fd5b50565b6142f6806200055b6000396000f3fe608060405234801561001057600080fd5b506004361061014d5760003560e01c8063886f8248116100c3578063b88d4fde1161007c578063b88d4fde1461038e578063c87b56dd146103aa578063c906689d146103da578063e985e9c5146103f8578063f2b57a7614610428578063f2fde38b146104585761014d565b8063886f8248146102dc5780638a97ec2a146102fa5780638da5cb5b1461031857806394dd453a1461033657806395d89b4114610354578063a22cb465146103725761014d565b806323b872dd1161011557806323b872dd1461021c57806342842e0e146102385780634fc46519146102545780636352211e1461027257806370a08231146102a2578063715018a6146102d25761014d565b806301ffc9a714610152578063046a53341461018257806306fdde03146101b2578063081812fc146101d0578063095ea7b314610200575b600080fd5b61016c60048036038101906101679190612a40565b610474565b604051610179919061329b565b60405180910390f35b61019c60048036038101906101979190612a92565b610556565b6040516101a991906132b6565b60405180910390f35b6101ba6105c6565b6040516101c791906132b6565b60405180910390f35b6101ea60048036038101906101e59190612a92565b610658565b6040516101f79190613234565b60405180910390f35b61021a60048036038101906102159190612a04565b6106dd565b005b610236600480360381019061023191906128fe565b6107f5565b005b610252600480360381019061024d91906128fe565b610855565b005b61025c610875565b60405161026991906132b6565b60405180910390f35b61028c60048036038101906102879190612a92565b6109a7565b6040516102999190613234565b60405180910390f35b6102bc60048036038101906102b79190612899565b610a59565b6040516102c99190613518565b60405180910390f35b6102da610b11565b005b6102e4610b99565b6040516102f191906132b6565b60405180910390f35b610302610c10565b60405161030f9190613518565b60405180910390f35b610320610d0f565b60405161032d9190613234565b60405180910390f35b61033e610d39565b60405161034b9190613234565b60405180910390f35b61035c610d5f565b60405161036991906132b6565b60405180910390f35b61038c600480360381019061038791906129c8565b610df1565b005b6103a860048036038101906103a3919061294d565b610f72565b005b6103c460048036038101906103bf9190612a92565b610fd4565b6040516103d191906132b6565b60405180910390f35b6103e2611126565b6040516103ef9190613518565b60405180910390f35b610412600480360381019061040d91906128c2565b611195565b60405161041f919061329b565b60405180910390f35b610442600480360381019061043d9190612a92565b611229565b60405161044f91906132b6565b60405180910390f35b610472600480360381019061046d9190612899565b6112cc565b005b60007f80ac58cd000000000000000000000000000000000000000000000000000000007bffffffffffffffffffffffffffffffffffffffffffffffffffffffff1916827bffffffffffffffffffffffffffffffffffffffffffffffffffffffff1916148061053f57507f5b5e139f000000000000000000000000000000000000000000000000000000007bffffffffffffffffffffffffffffffffffffffffffffffffffffffff1916827bffffffffffffffffffffffffffffffffffffffffffffffffffffffff1916145b8061054f575061054e826113c4565b5b9050919050565b60606105bf61015e4442600960009054906101000a900473ffffffffffffffffffffffffffffffffffffffff168660405160200161059794939291906131e6565b6040516020818303038152906040528051906020012060001c6105ba91906138b5565b61142e565b9050919050565b6060600080546105d5906137db565b80601f0160208091040260200160405190810160405280929190818152602001828054610601906137db565b801561064e5780601f106106235761010080835404028352916020019161064e565b820191906000526020600020905b81548152906001019060200180831161063157829003601f168201915b5050505050905090565b600061066382611603565b6106a2576040517f08c379a000000000000000000000000000000000000000000000000000000000815260040161069990613458565b60405180910390fd5b6004600083815260200190815260200160002060009054906101000a900473ffffffffffffffffffffffffffffffffffffffff169050919050565b60006106e8826109a7565b90508073ffffffffffffffffffffffffffffffffffffffff168373ffffffffffffffffffffffffffffffffffffffff161415610759576040517f08c379a0000000000000000000000000000000000000000000000000000000008152600401610750906134d8565b60405180910390fd5b8073ffffffffffffffffffffffffffffffffffffffff1661077861166f565b73ffffffffffffffffffffffffffffffffffffffff1614806107a757506107a6816107a161166f565b611195565b5b6107e6576040517f08c379a00000000000000000000000000000000000000000000000000000000081526004016107dd90613398565b60405180910390fd5b6107f08383611677565b505050565b61080661080061166f565b82611730565b610845576040517f08c379a000000000000000000000000000000000000000000000000000000000815260040161083c906134f8565b60405180910390fd5b61085083838361180e565b505050565b61087083838360405180602001604052806000815250610f72565b505050565b6060600060044442600960009054906101000a900473ffffffffffffffffffffffffffffffffffffffff166040516020016108b2939291906131a9565b6040516020818303038152906040528051906020012060001c6108d591906138b5565b90506000600a8260048110610913577f4e487b7100000000000000000000000000000000000000000000000000000000600052603260045260246000fd5b01805461091f906137db565b80601f016020809104026020016040519081016040528092919081815260200182805461094b906137db565b80156109985780601f1061096d57610100808354040283529160200191610998565b820191906000526020600020905b81548152906001019060200180831161097b57829003601f168201915b50505050509050809250505090565b6000806002600084815260200190815260200160002060009054906101000a900473ffffffffffffffffffffffffffffffffffffffff169050600073ffffffffffffffffffffffffffffffffffffffff168173ffffffffffffffffffffffffffffffffffffffff161415610a50576040517f08c379a0000000000000000000000000000000000000000000000000000000008152600401610a47906133d8565b60405180910390fd5b80915050919050565b60008073ffffffffffffffffffffffffffffffffffffffff168273ffffffffffffffffffffffffffffffffffffffff161415610aca576040517f08c379a0000000000000000000000000000000000000000000000000000000008152600401610ac1906133b8565b60405180910390fd5b600360008373ffffffffffffffffffffffffffffffffffffffff1673ffffffffffffffffffffffffffffffffffffffff168152602001908152602001600020549050919050565b610b1961166f565b73ffffffffffffffffffffffffffffffffffffffff16610b37610d0f565b73ffffffffffffffffffffffffffffffffffffffff1614610b8d576040517f08c379a0000000000000000000000000000000000000000000000000000000008152600401610b8490613478565b60405180910390fd5b610b976000611a6a565b565b6060610c0b600a60734442600960009054906101000a900473ffffffffffffffffffffffffffffffffffffffff16604051602001610bd9939291906131a9565b6040516020818303038152906040528051906020012060001c610bfc91906138b5565b610c0691906135cc565b61142e565b905090565b6000610c1a61166f565b73ffffffffffffffffffffffffffffffffffffffff16610c38610d0f565b73ffffffffffffffffffffffffffffffffffffffff1614610c8e576040517f08c379a0000000000000000000000000000000000000000000000000000000008152600401610c8590613478565b60405180910390fd5b610c986008611b30565b6000610ca46008611b46565b9050610caf81611b54565b6000610cb9611bed565b90506000610cc682611cdb565b9050610cf4600960009054906101000a900473ffffffffffffffffffffffffffffffffffffffff1684611d74565b610d0683610d0183611d92565b611de2565b82935050505090565b6000600760009054906101000a900473ffffffffffffffffffffffffffffffffffffffff16905090565b600960009054906101000a900473ffffffffffffffffffffffffffffffffffffffff1681565b606060018054610d6e906137db565b80601f0160208091040260200160405190810160405280929190818152602001828054610d9a906137db565b8015610de75780601f10610dbc57610100808354040283529160200191610de7565b820191906000526020600020905b815481529060010190602001808311610dca57829003601f168201915b5050505050905090565b610df961166f565b73ffffffffffffffffffffffffffffffffffffffff168273ffffffffffffffffffffffffffffffffffffffff161415610e67576040517f08c379a0000000000000000000000000000000000000000000000000000000008152600401610e5e90613358565b60405180910390fd5b8060056000610e7461166f565b73ffffffffffffffffffffffffffffffffffffffff1673ffffffffffffffffffffffffffffffffffffffff16815260200190815260200160002060008473ffffffffffffffffffffffffffffffffffffffff1673ffffffffffffffffffffffffffffffffffffffff16815260200190815260200160002060006101000a81548160ff0219169083151502179055508173ffffffffffffffffffffffffffffffffffffffff16610f2161166f565b73ffffffffffffffffffffffffffffffffffffffff167f17307eab39ab6107e8899845ad3d59bd9653f200f220920489ca2b5937696c3183604051610f66919061329b565b60405180910390a35050565b610f83610f7d61166f565b83611730565b610fc2576040517f08c379a0000000000000000000000000000000000000000000000000000000008152600401610fb9906134f8565b60405180910390fd5b610fce84848484611e56565b50505050565b6060610fdf82611603565b61101e576040517f08c379a000000000000000000000000000000000000000000000000000000000815260040161101590613438565b60405180910390fd5b600060066000848152602001908152602001600020805461103e906137db565b80601f016020809104026020016040519081016040528092919081815260200182805461106a906137db565b80156110b75780601f1061108c576101008083540402835291602001916110b7565b820191906000526020600020905b81548152906001019060200180831161109a57829003601f168201915b5050505050905060006110c8611eb2565b90506000815114156110de578192505050611121565b6000825111156111135780826040516020016110fb929190613030565b60405160208183030381529060405292505050611121565b61111c84611ec9565b925050505b919050565b6000600160034442600960009054906101000a900473ffffffffffffffffffffffffffffffffffffffff16604051602001611163939291906131a9565b6040516020818303038152906040528051906020012060001c61118691906138b5565b61119091906135cc565b905090565b6000600560008473ffffffffffffffffffffffffffffffffffffffff1673ffffffffffffffffffffffffffffffffffffffff16815260200190815260200160002060008373ffffffffffffffffffffffffffffffffffffffff1673ffffffffffffffffffffffffffffffffffffffff16815260200190815260200160002060009054906101000a900460ff16905092915050565b600a816004811061123957600080fd5b01600091509050805461124b906137db565b80601f0160208091040260200160405190810160405280929190818152602001828054611277906137db565b80156112c45780601f10611299576101008083540402835291602001916112c4565b820191906000526020600020905b8154815290600101906020018083116112a757829003601f168201915b505050505081565b6112d461166f565b73ffffffffffffffffffffffffffffffffffffffff166112f2610d0f565b73ffffffffffffffffffffffffffffffffffffffff1614611348576040517f08c379a000000000000000000000000000000000000000000000000000000000815260040161133f90613478565b60405180910390fd5b600073ffffffffffffffffffffffffffffffffffffffff168173ffffffffffffffffffffffffffffffffffffffff1614156113b8576040517f08c379a00000000000000000000000000000000000000000000000000000000081526004016113af906132f8565b60405180910390fd5b6113c181611a6a565b50565b60007f01ffc9a7000000000000000000000000000000000000000000000000000000007bffffffffffffffffffffffffffffffffffffffffffffffffffffffff1916827bffffffffffffffffffffffffffffffffffffffffffffffffffffffff1916149050919050565b60606000821415611476576040518060400160405280600181526020017f300000000000000000000000000000000000000000000000000000000000000081525090506115fe565b600082905060005b600082146114a85780806114919061383e565b915050600a826114a19190613659565b915061147e565b60008167ffffffffffffffff8111156114ea577f4e487b7100000000000000000000000000000000000000000000000000000000600052604160045260246000fd5b6040519080825280601f01601f19166020018201604052801561151c5781602001600182028036833780820191505090505b50905060008290505b600086146115f65760018161153a91906136e4565b90506000600a808861154c9190613659565b611556919061368a565b8761156191906136e4565b603061156d9190613622565b905060008160f81b9050808484815181106115b1577f4e487b7100000000000000000000000000000000000000000000000000000000600052603260045260246000fd5b60200101907effffffffffffffffffffffffffffffffffffffffffffffffffffffffffffff1916908160001a905350600a886115ed9190613659565b97505050611525565b819450505050505b919050565b60008073ffffffffffffffffffffffffffffffffffffffff166002600084815260200190815260200160002060009054906101000a900473ffffffffffffffffffffffffffffffffffffffff1673ffffffffffffffffffffffffffffffffffffffff1614159050919050565b600033905090565b816004600083815260200190815260200160002060006101000a81548173ffffffffffffffffffffffffffffffffffffffff021916908373ffffffffffffffffffffffffffffffffffffffff160217905550808273ffffffffffffffffffffffffffffffffffffffff166116ea836109a7565b73ffffffffffffffffffffffffffffffffffffffff167f8c5be1e5ebec7d5bd14f71427d1e84f3dd0314c0f7b2291e5b200ac8c7c3b92560405160405180910390a45050565b600061173b82611603565b61177a576040517f08c379a000000000000000000000000000000000000000000000000000000000815260040161177190613378565b60405180910390fd5b6000611785836109a7565b90508073ffffffffffffffffffffffffffffffffffffffff168473ffffffffffffffffffffffffffffffffffffffff1614806117f457508373ffffffffffffffffffffffffffffffffffffffff166117dc84610658565b73ffffffffffffffffffffffffffffffffffffffff16145b8061180557506118048185611195565b5b91505092915050565b8273ffffffffffffffffffffffffffffffffffffffff1661182e826109a7565b73ffffffffffffffffffffffffffffffffffffffff1614611884576040517f08c379a000000000000000000000000000000000000000000000000000000000815260040161187b90613498565b60405180910390fd5b600073ffffffffffffffffffffffffffffffffffffffff168273ffffffffffffffffffffffffffffffffffffffff1614156118f4576040517f08c379a00000000000000000000000000000000000000000000000000000000081526004016118eb90613338565b60405180910390fd5b6118ff838383611f70565b61190a600082611677565b6001600360008573ffffffffffffffffffffffffffffffffffffffff1673ffffffffffffffffffffffffffffffffffffffff168152602001908152602001600020600082825461195a91906136e4565b925050819055506001600360008473ffffffffffffffffffffffffffffffffffffffff1673ffffffffffffffffffffffffffffffffffffffff16815260200190815260200160002060008282546119b191906135cc565b92505081905550816002600083815260200190815260200160002060006101000a81548173ffffffffffffffffffffffffffffffffffffffff021916908373ffffffffffffffffffffffffffffffffffffffff160217905550808273ffffffffffffffffffffffffffffffffffffffff168473ffffffffffffffffffffffffffffffffffffffff167fddf252ad1be2c89b69c2b068fc378daa952ba7f163c4a11628f55a4df523b3ef60405160405180910390a4505050565b6000600760009054906101000a900473ffffffffffffffffffffffffffffffffffffffff16905081600760006101000a81548173ffffffffffffffffffffffffffffffffffffffff021916908373ffffffffffffffffffffffffffffffffffffffff1602179055508173ffffffffffffffffffffffffffffffffffffffff168173ffffffffffffffffffffffffffffffffffffffff167f8be0079c531659141344cd1fd0a4f28419497f9722a3daafe3b4186f6b6457e060405160405180910390a35050565b6001816000016000828254019250508190555050565b600081600001549050919050565b611bea81604051602401611b689190613518565b6040516020818303038152906040527ff5b1bba9000000000000000000000000000000000000000000000000000000007bffffffffffffffffffffffffffffffffffffffffffffffffffffffff19166020820180517bffffffffffffffffffffffffffffffffffffffffffffffffffffffff8381831617835250505050611f75565b50565b6060604051602001611bfe90613115565b604051602081830303815290604052905080604051602001611c209190613083565b604051602081830303815290604052905060005b6002811015611c81576000611c47611f9e565b90508281604051602001611c5c929190613030565b6040516020818303038152906040529250508080611c799061383e565b915050611c34565b506000611c8c610875565b9050600081604051602001611ca191906130e8565b60405160208183030381529060405290508281604051602001611cc5929190613054565b6040516020818303038152906040529250505090565b606060006040518060400160405280601a81526020017f646174613a696d6167652f7376672b786d6c3b6261736536342c00000000000081525090506000611d4184604051602001611d2d9190613019565b604051602081830303815290604052611ffa565b905060008282604051602001611d58929190613030565b6040516020818303038152906040529050809350505050919050565b611d8e8282604051806020016040528060008152506121a5565b5050565b6060611dbc82604051602001611da891906130a5565b604051602081830303815290604052611ffa565b604051602001611dcc9190613187565b6040516020818303038152906040529050919050565b611deb82611603565b611e2a576040517f08c379a0000000000000000000000000000000000000000000000000000000008152600401611e21906133f8565b60405180910390fd5b80600660008481526020019081526020016000209080519060200190611e51929190612725565b505050565b611e6184848461180e565b611e6d84848484612200565b611eac576040517f08c379a0000000000000000000000000000000000000000000000000000000008152600401611ea3906132d8565b60405180910390fd5b50505050565b606060405180602001604052806000815250905090565b6060611ed482611603565b611f13576040517f08c379a0000000000000000000000000000000000000000000000000000000008152600401611f0a906134b8565b60405180910390fd5b6000611f1d611eb2565b90506000815111611f3d5760405180602001604052806000815250611f68565b80611f4784612397565b604051602001611f58929190613030565b6040516020818303038152906040525b915050919050565b505050565b60008151905060006a636f6e736f6c652e6c6f679050602083016000808483855afa5050505050565b60606000611fac6001610556565b90506000611fba6002610556565b90506000611fc6610b99565b90506000838383604051602001611fdf9392919061312a565b60405160208183030381529060405290508094505050505090565b606060008251141561201d576040518060200160405280600081525090506121a0565b6000604051806060016040528060408152602001614281604091399050600060036002855161204c91906135cc565b6120569190613659565b6004612062919061368a565b9050600060208261207391906135cc565b67ffffffffffffffff8111156120b2577f4e487b7100000000000000000000000000000000000000000000000000000000600052604160045260246000fd5b6040519080825280601f01601f1916602001820160405280156120e45781602001600182028036833780820191505090505b509050818152600183018586518101602084015b8183101561215f576003830192508251603f8160121c1685015160f81b8252600182019150603f81600c1c1685015160f81b8252600182019150603f8160061c1685015160f81b8252600182019150603f811685015160f81b8252600182019150506120f8565b600389510660018114612179576002811461218957612194565b613d3d60f01b6002830352612194565b603d60f81b60018303525b50505050508093505050505b919050565b6121af8383612544565b6121bc6000848484612200565b6121fb576040517f08c379a00000000000000000000000000000000000000000000000000000000081526004016121f2906132d8565b60405180910390fd5b505050565b60006122218473ffffffffffffffffffffffffffffffffffffffff16612712565b1561238a578373ffffffffffffffffffffffffffffffffffffffff1663150b7a0261224a61166f565b8786866040518563ffffffff1660e01b815260040161226c949392919061324f565b602060405180830381600087803b15801561228657600080fd5b505af19250505080156122b757506040513d601f19601f820116820180604052508101906122b49190612a69565b60015b61233a573d80600081146122e7576040519150601f19603f3d011682016040523d82523d6000602084013e6122ec565b606091505b50600081511415612332576040517f08c379a0000000000000000000000000000000000000000000000000000000008152600401612329906132d8565b60405180910390fd5b805181602001fd5b63150b7a0260e01b7bffffffffffffffffffffffffffffffffffffffffffffffffffffffff1916817bffffffffffffffffffffffffffffffffffffffffffffffffffffffff19161491505061238f565b600190505b949350505050565b606060008214156123df576040518060400160405280600181526020017f3000000000000000000000000000000000000000000000000000000000000000815250905061253f565b600082905060005b600082146124115780806123fa9061383e565b915050600a8261240a9190613659565b91506123e7565b60008167ffffffffffffffff811115612453577f4e487b7100000000000000000000000000000000000000000000000000000000600052604160045260246000fd5b6040519080825280601f01601f1916602001820160405280156124855781602001600182028036833780820191505090505b5090505b600085146125385760018261249e91906136e4565b9150600a856124ad91906138b5565b60306124b991906135cc565b60f81b8183815181106124f5577f4e487b7100000000000000000000000000000000000000000000000000000000600052603260045260246000fd5b60200101907effffffffffffffffffffffffffffffffffffffffffffffffffffffffffffff1916908160001a905350600a856125319190613659565b9450612489565b8093505050505b919050565b600073ffffffffffffffffffffffffffffffffffffffff168273ffffffffffffffffffffffffffffffffffffffff1614156125b4576040517f08c379a00000000000000000000000000000000000000000000000000000000081526004016125ab90613418565b60405180910390fd5b6125bd81611603565b156125fd576040517f08c379a00000000000000000000000000000000000000000000000000000000081526004016125f490613318565b60405180910390fd5b61260960008383611f70565b6001600360008473ffffffffffffffffffffffffffffffffffffffff1673ffffffffffffffffffffffffffffffffffffffff168152602001908152602001600020600082825461265991906135cc565b92505081905550816002600083815260200190815260200160002060006101000a81548173ffffffffffffffffffffffffffffffffffffffff021916908373ffffffffffffffffffffffffffffffffffffffff160217905550808273ffffffffffffffffffffffffffffffffffffffff16600073ffffffffffffffffffffffffffffffffffffffff167fddf252ad1be2c89b69c2b068fc378daa952ba7f163c4a11628f55a4df523b3ef60405160405180910390a45050565b600080823b905060008111915050919050565b828054612731906137db565b90600052602060002090601f016020900481019282612753576000855561279a565b82601f1061276c57805160ff191683800117855561279a565b8280016001018555821561279a579182015b8281111561279957825182559160200191906001019061277e565b5b5090506127a791906127ab565b5090565b5b808211156127c45760008160009055506001016127ac565b5090565b60006127db6127d684613558565b613533565b9050828152602081018484840111156127f357600080fd5b6127fe848285613799565b509392505050565b60008135905061281581614224565b92915050565b60008135905061282a8161423b565b92915050565b60008135905061283f81614252565b92915050565b60008151905061285481614252565b92915050565b600082601f83011261286b57600080fd5b813561287b8482602086016127c8565b91505092915050565b60008135905061289381614269565b92915050565b6000602082840312156128ab57600080fd5b60006128b984828501612806565b91505092915050565b600080604083850312156128d557600080fd5b60006128e385828601612806565b92505060206128f485828601612806565b9150509250929050565b60008060006060848603121561291357600080fd5b600061292186828701612806565b935050602061293286828701612806565b925050604061294386828701612884565b9150509250925092565b6000806000806080858703121561296357600080fd5b600061297187828801612806565b945050602061298287828801612806565b935050604061299387828801612884565b925050606085013567ffffffffffffffff8111156129b057600080fd5b6129bc8782880161285a565b91505092959194509250565b600080604083850312156129db57600080fd5b60006129e985828601612806565b92505060206129fa8582860161281b565b9150509250929050565b60008060408385031215612a1757600080fd5b6000612a2585828601612806565b9250506020612a3685828601612884565b9150509250929050565b600060208284031215612a5257600080fd5b6000612a6084828501612830565b91505092915050565b600060208284031215612a7b57600080fd5b6000612a8984828501612845565b91505092915050565b600060208284031215612aa457600080fd5b6000612ab284828501612884565b91505092915050565b612ac481613718565b82525050565b612adb612ad682613718565b613887565b82525050565b612aea8161372a565b82525050565b6000612afb82613589565b612b05818561359f565b9350612b158185602086016137a8565b612b1e816139a2565b840191505092915050565b6000612b3482613594565b612b3e81856135b0565b9350612b4e8185602086016137a8565b612b57816139a2565b840191505092915050565b6000612b6d82613594565b612b7781856135c1565b9350612b878185602086016137a8565b80840191505092915050565b6000612ba06006836135c1565b9150612bab826139c0565b600682019050919050565b6000612bc36009836135c1565b9150612bce826139e9565b600982019050919050565b6000612be66032836135b0565b9150612bf182613a12565b604082019050919050565b6000612c096026836135b0565b9150612c1482613a61565b604082019050919050565b6000612c2c601c836135b0565b9150612c3782613ab0565b602082019050919050565b6000612c4f6013836135c1565b9150612c5a82613ad9565b601382019050919050565b6000612c726024836135b0565b9150612c7d82613b02565b604082019050919050565b6000612c956019836135b0565b9150612ca082613b51565b602082019050919050565b6000612cb8602c836135b0565b9150612cc382613b7a565b604082019050919050565b6000612cdb6053836135c1565b9150612ce682613bc9565b605382019050919050565b6000612cfe6038836135b0565b9150612d0982613c3e565b604082019050919050565b6000612d21602a836135b0565b9150612d2c82613c8d565b604082019050919050565b6000612d446029836135b0565b9150612d4f82613cdc565b604082019050919050565b6000612d67602e836135b0565b9150612d7282613d2b565b604082019050919050565b6000612d8a604f836135c1565b9150612d9582613d7a565b604f82019050919050565b6000612dad604e836135c1565b9150612db882613def565b604e82019050919050565b6000612dd06002836135c1565b9150612ddb82613e64565b600282019050919050565b6000612df36007836135c1565b9150612dfe82613e8d565b600782019050919050565b6000612e166005836135c1565b9150612e2182613eb6565b600582019050919050565b6000612e396020836135b0565b9150612e4482613edf565b602082019050919050565b6000612e5c600f836135c1565b9150612e6782613f08565b600f82019050919050565b6000612e7f6031836135b0565b9150612e8a82613f31565b604082019050919050565b6000612ea2602c836135b0565b9150612ead82613f80565b604082019050919050565b6000612ec56020836135b0565b9150612ed082613fcf565b602082019050919050565b6000612ee86029836135b0565b9150612ef382613ff8565b604082019050919050565b6000612f0b602f836135b0565b9150612f1682614047565b604082019050919050565b6000612f2e6021836135b0565b9150612f3982614096565b604082019050919050565b6000612f51601d836135c1565b9150612f5c826140e5565b601d82019050919050565b6000612f746031836135b0565b9150612f7f8261410e565b604082019050919050565b6000612f976016836135c1565b9150612fa28261415d565b601682019050919050565b6000612fba6047836135c1565b9150612fc582614186565b604782019050919050565b6000612fdd6006836135c1565b9150612fe8826141fb565b600682019050919050565b612ffc81613782565b82525050565b61301361300e82613782565b6138ab565b82525050565b60006130258284612b62565b915081905092915050565b600061303c8285612b62565b91506130488284612b62565b91508190509392505050565b60006130608285612b62565b915061306c8284612b62565b915061307782612fd0565b91508190509392505050565b600061308f8284612b62565b915061309a82612d7d565b915081905092915050565b60006130b082612bb6565b91506130bb82612c42565b91506130c682612fad565b91506130d28284612b62565b91506130dd82612dc3565b915081905092915050565b60006130f382612cce565b91506130ff8284612b62565b915061310a82612de6565b915081905092915050565b600061312082612da0565b9150819050919050565b600061313582612e4f565b91506131418286612b62565b915061314c82612b93565b91506131588285612b62565b915061316382612e09565b915061316f8284612b62565b915061317a82612f8a565b9150819050949350505050565b600061319282612f44565b915061319e8284612b62565b915081905092915050565b60006131b58286613002565b6020820191506131c58285613002565b6020820191506131d58284612aca565b601482019150819050949350505050565b60006131f28287613002565b6020820191506132028286613002565b6020820191506132128285612aca565b6014820191506132228284613002565b60208201915081905095945050505050565b60006020820190506132496000830184612abb565b92915050565b60006080820190506132646000830187612abb565b6132716020830186612abb565b61327e6040830185612ff3565b81810360608301526132908184612af0565b905095945050505050565b60006020820190506132b06000830184612ae1565b92915050565b600060208201905081810360008301526132d08184612b29565b905092915050565b600060208201905081810360008301526132f181612bd9565b9050919050565b6000602082019050818103600083015261331181612bfc565b9050919050565b6000602082019050818103600083015261333181612c1f565b9050919050565b6000602082019050818103600083015261335181612c65565b9050919050565b6000602082019050818103600083015261337181612c88565b9050919050565b6000602082019050818103600083015261339181612cab565b9050919050565b600060208201905081810360008301526133b181612cf1565b9050919050565b600060208201905081810360008301526133d181612d14565b9050919050565b600060208201905081810360008301526133f181612d37565b9050919050565b6000602082019050818103600083015261341181612d5a565b9050919050565b6000602082019050818103600083015261343181612e2c565b9050919050565b6000602082019050818103600083015261345181612e72565b9050919050565b6000602082019050818103600083015261347181612e95565b9050919050565b6000602082019050818103600083015261349181612eb8565b9050919050565b600060208201905081810360008301526134b181612edb565b9050919050565b600060208201905081810360008301526134d181612efe565b9050919050565b600060208201905081810360008301526134f181612f21565b9050919050565b6000602082019050818103600083015261351181612f67565b9050919050565b600060208201905061352d6000830184612ff3565b92915050565b600061353d61354e565b9050613549828261380d565b919050565b6000604051905090565b600067ffffffffffffffff82111561357357613572613973565b5b61357c826139a2565b9050602081019050919050565b600081519050919050565b600081519050919050565b600082825260208201905092915050565b600082825260208201905092915050565b600081905092915050565b60006135d782613782565b91506135e283613782565b9250827fffffffffffffffffffffffffffffffffffffffffffffffffffffffffffffffff03821115613617576136166138e6565b5b828201905092915050565b600061362d8261378c565b91506136388361378c565b92508260ff0382111561364e5761364d6138e6565b5b828201905092915050565b600061366482613782565b915061366f83613782565b92508261367f5761367e613915565b5b828204905092915050565b600061369582613782565b91506136a083613782565b9250817fffffffffffffffffffffffffffffffffffffffffffffffffffffffffffffffff04831182151516156136d9576136d86138e6565b5b828202905092915050565b60006136ef82613782565b91506136fa83613782565b92508282101561370d5761370c6138e6565b5b828203905092915050565b600061372382613762565b9050919050565b60008115159050919050565b60007fffffffff0000000000000000000000000000000000000000000000000000000082169050919050565b600073ffffffffffffffffffffffffffffffffffffffff82169050919050565b6000819050919050565b600060ff82169050919050565b82818337600083830152505050565b60005b838110156137c65780820151818401526020810190506137ab565b838111156137d5576000848401525b50505050565b600060028204905060018216806137f357607f821691505b6020821081141561380757613806613944565b5b50919050565b613816826139a2565b810181811067ffffffffffffffff8211171561383557613834613973565b5b80604052505050565b600061384982613782565b91507fffffffffffffffffffffffffffffffffffffffffffffffffffffffffffffffff82141561387c5761387b6138e6565b5b600182019050919050565b600061389282613899565b9050919050565b60006138a4826139b3565b9050919050565b6000819050919050565b60006138c082613782565b91506138cb83613782565b9250826138db576138da613915565b5b828206905092915050565b7f4e487b7100000000000000000000000000000000000000000000000000000000600052601160045260246000fd5b7f4e487b7100000000000000000000000000000000000000000000000000000000600052601260045260246000fd5b7f4e487b7100000000000000000000000000000000000000000000000000000000600052602260045260246000fd5b7f4e487b7100000000000000000000000000000000000000000000000000000000600052604160045260246000fd5b6000601f19601f8301169050919050565b60008160601b9050919050565b7f222063793d220000000000000000000000000000000000000000000000000000600082015250565b7f7b226e616d65223a220000000000000000000000000000000000000000000000600082015250565b7f4552433732313a207472616e7366657220746f206e6f6e20455243373231526560008201527f63656976657220696d706c656d656e7465720000000000000000000000000000602082015250565b7f4f776e61626c653a206e6577206f776e657220697320746865207a65726f206160008201527f6464726573730000000000000000000000000000000000000000000000000000602082015250565b7f4552433732313a20746f6b656e20616c7265616479206d696e74656400000000600082015250565b7f48617070792042697274686461792c20556d6900000000000000000000000000600082015250565b7f4552433732313a207472616e7366657220746f20746865207a65726f2061646460008201527f7265737300000000000000000000000000000000000000000000000000000000602082015250565b7f4552433732313a20617070726f766520746f2063616c6c657200000000000000600082015250565b7f4552433732313a206f70657261746f7220717565727920666f72206e6f6e657860008201527f697374656e7420746f6b656e0000000000000000000000000000000000000000602082015250565b7f3c7465787420783d223530252220793d223530252220646f6d696e616e742d6260008201527f6173656c696e653d226d6964646c652220746578742d616e63686f723d226d6960208201527f64646c652220636c6173733d2262617365223e00000000000000000000000000604082015250565b7f4552433732313a20617070726f76652063616c6c6572206973206e6f74206f7760008201527f6e6572206e6f7220617070726f76656420666f7220616c6c0000000000000000602082015250565b7f4552433732313a2062616c616e636520717565727920666f7220746865207a6560008201527f726f206164647265737300000000000000000000000000000000000000000000602082015250565b7f4552433732313a206f776e657220717565727920666f72206e6f6e657869737460008201527f656e7420746f6b656e0000000000000000000000000000000000000000000000602082015250565b7f45524337323155524953746f726167653a2055524920736574206f66206e6f6e60008201527f6578697374656e7420746f6b656e000000000000000000000000000000000000602082015250565b7f3c7374796c653e2e62617365207b2066696c6c3a20626c61636b3b20666f6e7460008201527f2d66616d696c793a2073616e732d73657269663b20666f6e742d73697a653a2060208201527f313470783b207d3c2f7374796c653e0000000000000000000000000000000000604082015250565b7f3c7376672077696474683d2233353022206865696768743d223335302220666960008201527f6c6c3d20226e6f6e652220786d6c6e733d22687474703a2f2f7777772e77332e60208201527f6f72672f323030302f737667223e000000000000000000000000000000000000604082015250565b7f227d000000000000000000000000000000000000000000000000000000000000600082015250565b7f3c2f746578743e00000000000000000000000000000000000000000000000000600082015250565b7f2220723d22000000000000000000000000000000000000000000000000000000600082015250565b7f4552433732313a206d696e7420746f20746865207a65726f2061646472657373600082015250565b7f3c673e3c636972636c652063783d220000000000000000000000000000000000600082015250565b7f45524337323155524953746f726167653a2055524920717565727920666f722060008201527f6e6f6e6578697374656e7420746f6b656e000000000000000000000000000000602082015250565b7f4552433732313a20617070726f76656420717565727920666f72206e6f6e657860008201527f697374656e7420746f6b656e0000000000000000000000000000000000000000602082015250565b7f4f776e61626c653a2063616c6c6572206973206e6f7420746865206f776e6572600082015250565b7f4552433732313a207472616e73666572206f6620746f6b656e2074686174206960008201527f73206e6f74206f776e0000000000000000000000000000000000000000000000602082015250565b7f4552433732314d657461646174613a2055524920717565727920666f72206e6f60008201527f6e6578697374656e7420746f6b656e0000000000000000000000000000000000602082015250565b7f4552433732313a20617070726f76616c20746f2063757272656e74206f776e6560008201527f7200000000000000000000000000000000000000000000000000000000000000602082015250565b7f646174613a6170706c69636174696f6e2f6a736f6e3b6261736536342c000000600082015250565b7f4552433732313a207472616e736665722063616c6c6572206973206e6f74206f60008201527f776e6572206e6f7220617070726f766564000000000000000000000000000000602082015250565b7f222066696c6c3d2223464643413432222f3e3c2f673e00000000000000000000600082015250565b7f222c20226465736372697074696f6e223a22416476696365206f6e20796f757260008201527f2062697274686461792e222c202261747472696275746573223a22222c20226960208201527f6d616765223a2200000000000000000000000000000000000000000000000000604082015250565b7f3c2f7376673e0000000000000000000000000000000000000000000000000000600082015250565b61422d81613718565b811461423857600080fd5b50565b6142448161372a565b811461424f57600080fd5b50565b61425b81613736565b811461426657600080fd5b50565b61427281613782565b811461427d57600080fd5b5056fe4142434445464748494a4b4c4d4e4f505152535455565758595a6162636465666768696a6b6c6d6e6f707172737475767778797a303132333435363738392b2fa2646970667358221220816c2307e74bd621e0bcd175d39d9f6995dfeb1be3924b8295fdfa8ac34d5f8964736f6c63430008040033456e746875736961736d20697320776f72746820323520495120706f696e74732e537472696374207769746820796f757273656c662c20666f72676976696e67206f66206f74686572732e",
  "devdoc": {
    "kind": "dev",
    "methods": {
      "approve(address,uint256)": {
        "details": "See {IERC721-approve}."
      },
      "balanceOf(address)": {
        "details": "See {IERC721-balanceOf}."
      },
      "getApproved(uint256)": {
        "details": "See {IERC721-getApproved}."
      },
      "isApprovedForAll(address,address)": {
        "details": "See {IERC721-isApprovedForAll}."
      },
      "name()": {
        "details": "See {IERC721Metadata-name}."
      },
      "owner()": {
        "details": "Returns the address of the current owner."
      },
      "ownerOf(uint256)": {
        "details": "See {IERC721-ownerOf}."
      },
      "renounceOwnership()": {
        "details": "Leaves the contract without owner. It will not be possible to call `onlyOwner` functions anymore. Can only be called by the current owner. NOTE: Renouncing ownership will leave the contract without an owner, thereby removing any functionality that is only available to the owner."
      },
      "safeTransferFrom(address,address,uint256)": {
        "details": "See {IERC721-safeTransferFrom}."
      },
      "safeTransferFrom(address,address,uint256,bytes)": {
        "details": "See {IERC721-safeTransferFrom}."
      },
      "setApprovalForAll(address,bool)": {
        "details": "See {IERC721-setApprovalForAll}."
      },
      "supportsInterface(bytes4)": {
        "details": "See {IERC165-supportsInterface}."
      },
      "symbol()": {
        "details": "See {IERC721Metadata-symbol}."
      },
      "tokenURI(uint256)": {
        "details": "See {IERC721Metadata-tokenURI}."
      },
      "transferFrom(address,address,uint256)": {
        "details": "See {IERC721-transferFrom}."
      },
      "transferOwnership(address)": {
        "details": "Transfers ownership of the contract to a new account (`newOwner`). Can only be called by the current owner."
      }
    },
    "version": 1
  },
  "userdoc": {
    "kind": "user",
    "methods": {},
    "version": 1
  },
  "storageLayout": {
    "storage": [
      {
        "astId": 129,
        "contract": "contracts/Umi.sol:Umi",
        "label": "_name",
        "offset": 0,
        "slot": "0",
        "type": "t_string_storage"
      },
      {
        "astId": 131,
        "contract": "contracts/Umi.sol:Umi",
        "label": "_symbol",
        "offset": 0,
        "slot": "1",
        "type": "t_string_storage"
      },
      {
        "astId": 135,
        "contract": "contracts/Umi.sol:Umi",
        "label": "_owners",
        "offset": 0,
        "slot": "2",
        "type": "t_mapping(t_uint256,t_address)"
      },
      {
        "astId": 139,
        "contract": "contracts/Umi.sol:Umi",
        "label": "_balances",
        "offset": 0,
        "slot": "3",
        "type": "t_mapping(t_address,t_uint256)"
      },
      {
        "astId": 143,
        "contract": "contracts/Umi.sol:Umi",
        "label": "_tokenApprovals",
        "offset": 0,
        "slot": "4",
        "type": "t_mapping(t_uint256,t_address)"
      },
      {
        "astId": 149,
        "contract": "contracts/Umi.sol:Umi",
        "label": "_operatorApprovals",
        "offset": 0,
        "slot": "5",
        "type": "t_mapping(t_address,t_mapping(t_address,t_bool))"
      },
      {
        "astId": 1066,
        "contract": "contracts/Umi.sol:Umi",
        "label": "_tokenURIs",
        "offset": 0,
        "slot": "6",
        "type": "t_mapping(t_uint256,t_string_storage)"
      },
      {
        "astId": 7,
        "contract": "contracts/Umi.sol:Umi",
        "label": "_owner",
        "offset": 0,
        "slot": "7",
        "type": "t_address"
      },
      {
        "astId": 1908,
        "contract": "contracts/Umi.sol:Umi",
        "label": "_tokenIds",
        "offset": 0,
        "slot": "8",
        "type": "t_struct(Counter)1533_storage"
      },
      {
        "astId": 1910,
        "contract": "contracts/Umi.sol:Umi",
        "label": "umi",
        "offset": 0,
        "slot": "9",
        "type": "t_address"
      },
      {
        "astId": 1935,
        "contract": "contracts/Umi.sol:Umi",
        "label": "adviceList",
        "offset": 0,
        "slot": "10",
        "type": "t_array(t_string_storage)4_storage"
      }
    ],
    "types": {
      "t_address": {
        "encoding": "inplace",
        "label": "address",
        "numberOfBytes": "20"
      },
      "t_array(t_string_storage)4_storage": {
        "base": "t_string_storage",
        "encoding": "inplace",
        "label": "string[4]",
        "numberOfBytes": "128"
      },
      "t_bool": {
        "encoding": "inplace",
        "label": "bool",
        "numberOfBytes": "1"
      },
      "t_mapping(t_address,t_bool)": {
        "encoding": "mapping",
        "key": "t_address",
        "label": "mapping(address => bool)",
        "numberOfBytes": "32",
        "value": "t_bool"
      },
      "t_mapping(t_address,t_mapping(t_address,t_bool))": {
        "encoding": "mapping",
        "key": "t_address",
        "label": "mapping(address => mapping(address => bool))",
        "numberOfBytes": "32",
        "value": "t_mapping(t_address,t_bool)"
      },
      "t_mapping(t_address,t_uint256)": {
        "encoding": "mapping",
        "key": "t_address",
        "label": "mapping(address => uint256)",
        "numberOfBytes": "32",
        "value": "t_uint256"
      },
      "t_mapping(t_uint256,t_address)": {
        "encoding": "mapping",
        "key": "t_uint256",
        "label": "mapping(uint256 => address)",
        "numberOfBytes": "32",
        "value": "t_address"
      },
      "t_mapping(t_uint256,t_string_storage)": {
        "encoding": "mapping",
        "key": "t_uint256",
        "label": "mapping(uint256 => string)",
        "numberOfBytes": "32",
        "value": "t_string_storage"
      },
      "t_string_storage": {
        "encoding": "bytes",
        "label": "string",
        "numberOfBytes": "32"
      },
      "t_struct(Counter)1533_storage": {
        "encoding": "inplace",
        "label": "struct Counters.Counter",
        "members": [
          {
            "astId": 1532,
            "contract": "contracts/Umi.sol:Umi",
            "label": "_value",
            "offset": 0,
            "slot": "0",
            "type": "t_uint256"
          }
        ],
        "numberOfBytes": "32"
      },
      "t_uint256": {
        "encoding": "inplace",
        "label": "uint256",
        "numberOfBytes": "32"
      }
    }
  }
}