{
  "address": "0x1E2433E6e4F0895B34834D47dc3B9B86b32c986A",
  "abi": [
    {
      "inputs": [
        {
          "internalType": "address",
          "name": "_umi",
          "type": "address"
        }
      ],
      "stateMutability": "nonpayable",
      "type": "constructor"
    },
    {
      "anonymous": false,
      "inputs": [
        {
          "indexed": true,
          "internalType": "address",
          "name": "owner",
          "type": "address"
        },
        {
          "indexed": true,
          "internalType": "address",
          "name": "approved",
          "type": "address"
        },
        {
          "indexed": true,
          "internalType": "uint256",
          "name": "tokenId",
          "type": "uint256"
        }
      ],
      "name": "Approval",
      "type": "event"
    },
    {
      "anonymous": false,
      "inputs": [
        {
          "indexed": true,
          "internalType": "address",
          "name": "owner",
          "type": "address"
        },
        {
          "indexed": true,
          "internalType": "address",
          "name": "operator",
          "type": "address"
        },
        {
          "indexed": false,
          "internalType": "bool",
          "name": "approved",
          "type": "bool"
        }
      ],
      "name": "ApprovalForAll",
      "type": "event"
    },
    {
      "anonymous": false,
      "inputs": [
        {
          "indexed": true,
          "internalType": "address",
          "name": "previousOwner",
          "type": "address"
        },
        {
          "indexed": true,
          "internalType": "address",
          "name": "newOwner",
          "type": "address"
        }
      ],
      "name": "OwnershipTransferred",
      "type": "event"
    },
    {
      "anonymous": false,
      "inputs": [
        {
          "indexed": true,
          "internalType": "address",
          "name": "from",
          "type": "address"
        },
        {
          "indexed": true,
          "internalType": "address",
          "name": "to",
          "type": "address"
        },
        {
          "indexed": true,
          "internalType": "uint256",
          "name": "tokenId",
          "type": "uint256"
        }
      ],
      "name": "Transfer",
      "type": "event"
    },
    {
      "inputs": [
        {
          "internalType": "uint256",
          "name": "",
          "type": "uint256"
        }
      ],
      "name": "adviceList",
      "outputs": [
        {
          "internalType": "string",
          "name": "",
          "type": "string"
        }
      ],
      "stateMutability": "view",
      "type": "function"
    },
    {
      "inputs": [
        {
          "internalType": "address",
          "name": "to",
          "type": "address"
        },
        {
          "internalType": "uint256",
          "name": "tokenId",
          "type": "uint256"
        }
      ],
      "name": "approve",
      "outputs": [],
      "stateMutability": "nonpayable",
      "type": "function"
    },
    {
      "inputs": [
        {
          "internalType": "address",
          "name": "owner",
          "type": "address"
        }
      ],
      "name": "balanceOf",
      "outputs": [
        {
          "internalType": "uint256",
          "name": "",
          "type": "uint256"
        }
      ],
      "stateMutability": "view",
      "type": "function"
    },
    {
      "inputs": [
        {
          "internalType": "uint256",
          "name": "",
          "type": "uint256"
        }
      ],
      "name": "bdayCount",
      "outputs": [
        {
          "internalType": "string",
          "name": "",
          "type": "string"
        }
      ],
      "stateMutability": "view",
      "type": "function"
    },
    {
      "inputs": [],
      "name": "createNFT",
      "outputs": [
        {
          "internalType": "uint256",
          "name": "",
          "type": "uint256"
        }
      ],
      "stateMutability": "nonpayable",
      "type": "function"
    },
    {
      "inputs": [],
      "name": "generateAdvice",
      "outputs": [
        {
          "internalType": "string",
          "name": "",
          "type": "string"
        }
      ],
      "stateMutability": "view",
      "type": "function"
    },
    {
      "inputs": [
        {
          "internalType": "uint256",
          "name": "tokenId",
          "type": "uint256"
        }
      ],
      "name": "getApproved",
      "outputs": [
        {
          "internalType": "address",
          "name": "",
          "type": "address"
        }
      ],
      "stateMutability": "view",
      "type": "function"
    },
    {
      "inputs": [
        {
          "internalType": "address",
          "name": "owner",
          "type": "address"
        },
        {
          "internalType": "address",
          "name": "operator",
          "type": "address"
        }
      ],
      "name": "isApprovedForAll",
      "outputs": [
        {
          "internalType": "bool",
          "name": "",
          "type": "bool"
        }
      ],
      "stateMutability": "view",
      "type": "function"
    },
    {
      "inputs": [],
      "name": "name",
      "outputs": [
        {
          "internalType": "string",
          "name": "",
          "type": "string"
        }
      ],
      "stateMutability": "view",
      "type": "function"
    },
    {
      "inputs": [],
      "name": "owner",
      "outputs": [
        {
          "internalType": "address",
          "name": "",
          "type": "address"
        }
      ],
      "stateMutability": "view",
      "type": "function"
    },
    {
      "inputs": [
        {
          "internalType": "uint256",
          "name": "tokenId",
          "type": "uint256"
        }
      ],
      "name": "ownerOf",
      "outputs": [
        {
          "internalType": "address",
          "name": "",
          "type": "address"
        }
      ],
      "stateMutability": "view",
      "type": "function"
    },
    {
      "inputs": [
        {
          "internalType": "uint256",
          "name": "_seed",
          "type": "uint256"
        }
      ],
      "name": "randomCoord",
      "outputs": [
        {
          "internalType": "string",
          "name": "coords",
          "type": "string"
        }
      ],
      "stateMutability": "view",
      "type": "function"
    },
    {
      "inputs": [],
      "name": "randomNumCircle",
      "outputs": [
        {
          "internalType": "uint256",
          "name": "",
          "type": "uint256"
        }
      ],
      "stateMutability": "view",
      "type": "function"
    },
    {
      "inputs": [
        {
          "internalType": "uint256",
          "name": "_seed",
          "type": "uint256"
        }
      ],
      "name": "randomRadius",
      "outputs": [
        {
          "internalType": "string",
          "name": "",
          "type": "string"
        }
      ],
      "stateMutability": "view",
      "type": "function"
    },
    {
      "inputs": [],
      "name": "renounceOwnership",
      "outputs": [],
      "stateMutability": "nonpayable",
      "type": "function"
    },
    {
      "inputs": [
        {
          "internalType": "address",
          "name": "from",
          "type": "address"
        },
        {
          "internalType": "address",
          "name": "to",
          "type": "address"
        },
        {
          "internalType": "uint256",
          "name": "tokenId",
          "type": "uint256"
        }
      ],
      "name": "safeTransferFrom",
      "outputs": [],
      "stateMutability": "nonpayable",
      "type": "function"
    },
    {
      "inputs": [
        {
          "internalType": "address",
          "name": "from",
          "type": "address"
        },
        {
          "internalType": "address",
          "name": "to",
          "type": "address"
        },
        {
          "internalType": "uint256",
          "name": "tokenId",
          "type": "uint256"
        },
        {
          "internalType": "bytes",
          "name": "_data",
          "type": "bytes"
        }
      ],
      "name": "safeTransferFrom",
      "outputs": [],
      "stateMutability": "nonpayable",
      "type": "function"
    },
    {
      "inputs": [
        {
          "internalType": "address",
          "name": "operator",
          "type": "address"
        },
        {
          "internalType": "bool",
          "name": "approved",
          "type": "bool"
        }
      ],
      "name": "setApprovalForAll",
      "outputs": [],
      "stateMutability": "nonpayable",
      "type": "function"
    },
    {
      "inputs": [
        {
          "internalType": "bytes4",
          "name": "interfaceId",
          "type": "bytes4"
        }
      ],
      "name": "supportsInterface",
      "outputs": [
        {
          "internalType": "bool",
          "name": "",
          "type": "bool"
        }
      ],
      "stateMutability": "view",
      "type": "function"
    },
    {
      "inputs": [],
      "name": "symbol",
      "outputs": [
        {
          "internalType": "string",
          "name": "",
          "type": "string"
        }
      ],
      "stateMutability": "view",
      "type": "function"
    },
    {
      "inputs": [
        {
          "internalType": "uint256",
          "name": "tokenId",
          "type": "uint256"
        }
      ],
      "name": "tokenURI",
      "outputs": [
        {
          "internalType": "string",
          "name": "",
          "type": "string"
        }
      ],
      "stateMutability": "view",
      "type": "function"
    },
    {
      "inputs": [
        {
          "internalType": "address",
          "name": "from",
          "type": "address"
        },
        {
          "internalType": "address",
          "name": "to",
          "type": "address"
        },
        {
          "internalType": "uint256",
          "name": "tokenId",
          "type": "uint256"
        }
      ],
      "name": "transferFrom",
      "outputs": [],
      "stateMutability": "nonpayable",
      "type": "function"
    },
    {
      "inputs": [
        {
          "internalType": "address",
          "name": "newOwner",
          "type": "address"
        }
      ],
      "name": "transferOwnership",
      "outputs": [],
      "stateMutability": "nonpayable",
      "type": "function"
    },
    {
      "inputs": [],
      "name": "umi",
      "outputs": [
        {
          "internalType": "address",
          "name": "",
          "type": "address"
        }
      ],
      "stateMutability": "view",
      "type": "function"
    }
  ],
  "transactionHash": "0xb80f78ce48e9d17fadf5fae32d5ced75fe60951e8391e89d5fc1c00f73632400",
  "args": [
    "0x22724d4Aae7aEfeC6CD63a71aDe0FC929329Af46"
  ],
  "solcInputHash": "08e694aa84c7625fbccecf59cf0fb477",
  "bytecode": "0x6080604052604051806104a001604052806040518060400160405280601581526020017f596f7572206d6f746865722069732072696768742e0000000000000000000000815250815260200160405180606001604052806021815260200162005af2602191398152602001604051806060016040528060308152602001620058d56030913981526020016040518060400160405280601e81526020017f576f726b20746f206265636f6d652c206e6f7420746f206171756972652e000081525081526020016040518060400160405280601381526020017f43616c6d20697320636f6e746167696f75732e0000000000000000000000000081525081526020016040518060400160405280601581526020017f44616e6365207769746820796f757220686970732e000000000000000000000081525081526020016040518060600160405280602b81526020016200594c602b913981526020016040518060400160405280601481526020017f4e6f207261696e2c206e6f207261696e626f772e00000000000000000000000081525081526020016040518060400160405280601f81526020017f416c776179732067697665206372656469742c2074616b6520626c616d652e0081525081526020016040518060400160405280601281526020017f446f6e27742074616b65206164766963652e0000000000000000000000000000815250815260200160405180606001604052806039815260200162005bc16039913981526020016040518060600160405280602a815260200162005ac8602a913981526020016040518060400160405280601e81526020017f416c776179732063757420617761792066726f6d20796f757273656c662e0000815250815260200160405180606001604052806038815260200162005b52603891398152602001604051806060016040528060218152602001620058416021913981526020016040518060400160405280601d81526020017f41727420697320696e207768617420796f75206c65617665206f75742e000000815250815260200160405180606001604052806033815260200162005c3f603391398152602001604051806060016040528060278152602001620057d960279139815260200160405180606001604052806037815260200162005b8a603791398152602001604051806060016040528060408152602001620058626040913981526020016040518060600160405280603e815260200162005977603e91398152602001604051806060016040528060348152602001620059f96034913981526020016040518060400160405280601f81526020017f446f6ee280997420747275737420616c6c2d707572706f736520676c75652e0081525081526020016040518060400160405280601e81526020017f53686f772075702c207468656e206b6565702073686f77696e672075702e00008152508152602001604051806080016040528060448152602001620059b5604491398152602001604051806060016040528060338152602001620058a26033913981526020016040518060600160405280603e815260200162005a8a603e9139815260200160405180606001604052806023815260200162005a2d6023913981526020016040518060600160405280603e815260200162005977603e913981526020016040518060600160405280603f815260200162005b13603f913981526020016040518060600160405280603b81526020016200579e603b91398152602001604051806080016040528060418152602001620058006041913981526020016040518060400160405280601f81526020017f416c7761797320736179206c657373207468616e206e65636573736172792e008152508152602001604051806080016040528060478152602001620059056047913981526020016040518060600160405280603a815260200162005a50603a9139815260200160405180608001604052806045815260200162005bfa6045913981526020016040518060400160405280602081526020017f50726f6d70746e6573732069732061207369676e206f6620726573706563742e815250815250600a9060256200060792919062000cca565b506040518061028001604052806040518060400160405280600381526020017f317374000000000000000000000000000000000000000000000000000000000081525081526020016040518060400160405280600381526020017f326e64000000000000000000000000000000000000000000000000000000000081525081526020016040518060400160405280600381526020017f337264000000000000000000000000000000000000000000000000000000000081525081526020016040518060400160405280600381526020017f347468000000000000000000000000000000000000000000000000000000000081525081526020016040518060400160405280600381526020017f357468000000000000000000000000000000000000000000000000000000000081525081526020016040518060400160405280600381526020017f367468000000000000000000000000000000000000000000000000000000000081525081526020016040518060400160405280600381526020017f377468000000000000000000000000000000000000000000000000000000000081525081526020016040518060400160405280600381526020017f387468000000000000000000000000000000000000000000000000000000000081525081526020016040518060400160405280600381526020017f397468000000000000000000000000000000000000000000000000000000000081525081526020016040518060400160405280600481526020017f313074680000000000000000000000000000000000000000000000000000000081525081526020016040518060400160405280600481526020017f313174680000000000000000000000000000000000000000000000000000000081525081526020016040518060400160405280600481526020017f313274680000000000000000000000000000000000000000000000000000000081525081526020016040518060400160405280600481526020017f313374680000000000000000000000000000000000000000000000000000000081525081526020016040518060400160405280600481526020017f313474680000000000000000000000000000000000000000000000000000000081525081526020016040518060400160405280600481526020017f313574680000000000000000000000000000000000000000000000000000000081525081526020016040518060400160405280600481526020017f313674680000000000000000000000000000000000000000000000000000000081525081526020016040518060400160405280600481526020017f313774680000000000000000000000000000000000000000000000000000000081525081526020016040518060400160405280600481526020017f313874680000000000000000000000000000000000000000000000000000000081525081526020016040518060400160405280600481526020017f313974680000000000000000000000000000000000000000000000000000000081525081526020016040518060400160405280600481526020017f3230746800000000000000000000000000000000000000000000000000000000815250815250600b90601462000ac092919062000d31565b5034801562000ace57600080fd5b5060405162005c7238038062005c72833981810160405281019062000af4919062000ec0565b6040518060400160405280600381526020017f556d6900000000000000000000000000000000000000000000000000000000008152506040518060400160405280600381526020017f554d490000000000000000000000000000000000000000000000000000000000815250816000908051906020019062000b7892919062000d8b565b50806001908051906020019062000b9192919062000d8b565b50505062000bb462000ba862000bfc60201b60201c565b62000c0460201b60201c565b80600960006101000a81548173ffffffffffffffffffffffffffffffffffffffff021916908373ffffffffffffffffffffffffffffffffffffffff1602179055505062000f9f565b600033905090565b6000600760009054906101000a900473ffffffffffffffffffffffffffffffffffffffff16905081600760006101000a81548173ffffffffffffffffffffffffffffffffffffffff021916908373ffffffffffffffffffffffffffffffffffffffff1602179055508173ffffffffffffffffffffffffffffffffffffffff168173ffffffffffffffffffffffffffffffffffffffff167f8be0079c531659141344cd1fd0a4f28419497f9722a3daafe3b4186f6b6457e060405160405180910390a35050565b82805482825590600052602060002090810192821562000d1e579160200282015b8281111562000d1d57825182908051906020019062000d0c92919062000d8b565b509160200191906001019062000ceb565b5b50905062000d2d919062000e1c565b5090565b826014810192821562000d78579160200282015b8281111562000d7757825182908051906020019062000d6692919062000d8b565b509160200191906001019062000d45565b5b50905062000d87919062000e1c565b5090565b82805462000d999062000f20565b90600052602060002090601f01602090048101928262000dbd576000855562000e09565b82601f1062000dd857805160ff191683800117855562000e09565b8280016001018555821562000e09579182015b8281111562000e0857825182559160200191906001019062000deb565b5b50905062000e18919062000e44565b5090565b5b8082111562000e40576000818162000e36919062000e63565b5060010162000e1d565b5090565b5b8082111562000e5f57600081600090555060010162000e45565b5090565b50805462000e719062000f20565b6000825580601f1062000e85575062000ea6565b601f01602090049060005260206000209081019062000ea5919062000e44565b5b50565b60008151905062000eba8162000f85565b92915050565b60006020828403121562000ed357600080fd5b600062000ee38482850162000ea9565b91505092915050565b600062000ef98262000f00565b9050919050565b600073ffffffffffffffffffffffffffffffffffffffff82169050919050565b6000600282049050600182168062000f3957607f821691505b6020821081141562000f505762000f4f62000f56565b5b50919050565b7f4e487b7100000000000000000000000000000000000000000000000000000000600052602260045260246000fd5b62000f908162000eec565b811462000f9c57600080fd5b50565b6147ef8062000faf6000396000f3fe608060405234801561001057600080fd5b50600436106101585760003560e01c80638a97ec2a116100c3578063b8e4e77f1161007c578063b8e4e77f146103c7578063c87b56dd146103f7578063c906689d14610427578063e985e9c514610445578063f2b57a7614610475578063f2fde38b146104a557610158565b80638a97ec2a146103175780638da5cb5b1461033557806394dd453a1461035357806395d89b4114610371578063a22cb4651461038f578063b88d4fde146103ab57610158565b806323b872dd1161011557806323b872dd1461025757806342842e0e146102735780634fc465191461028f5780636352211e146102ad57806370a08231146102dd578063715018a61461030d57610158565b806301ffc9a71461015d578063046a53341461018d57806306fdde03146101bd578063081812fc146101db578063095ea7b31461020b5780631d3b8b1714610227575b600080fd5b61017760048036038101906101729190612cce565b6104c1565b60405161018491906136b5565b60405180910390f35b6101a760048036038101906101a29190612d20565b6105a3565b6040516101b491906136d0565b60405180910390f35b6101c56106a6565b6040516101d291906136d0565b60405180910390f35b6101f560048036038101906101f09190612d20565b610738565b604051610202919061364e565b60405180910390f35b61022560048036038101906102209190612c92565b6107bd565b005b610241600480360381019061023c9190612d20565b6108d5565b60405161024e91906136d0565b60405180910390f35b610271600480360381019061026c9190612b8c565b610978565b005b61028d60048036038101906102889190612b8c565b6109d8565b005b6102976109f8565b6040516102a491906136d0565b60405180910390f35b6102c760048036038101906102c29190612d20565b610b37565b6040516102d4919061364e565b60405180910390f35b6102f760048036038101906102f29190612b27565b610be9565b6040516103049190613932565b60405180910390f35b610315610ca1565b005b61031f610d29565b60405161032c9190613932565b60405180910390f35b61033d610e2c565b60405161034a919061364e565b60405180910390f35b61035b610e56565b604051610368919061364e565b60405180910390f35b610379610e7c565b60405161038691906136d0565b60405180910390f35b6103a960048036038101906103a49190612c56565b610f0e565b005b6103c560048036038101906103c09190612bdb565b61108f565b005b6103e160048036038101906103dc9190612d20565b6110f1565b6040516103ee91906136d0565b60405180910390f35b610411600480360381019061040c9190612d20565b61116c565b60405161041e91906136d0565b60405180910390f35b61042f6112be565b60405161043c9190613932565b60405180910390f35b61045f600480360381019061045a9190612b50565b61132d565b60405161046c91906136b5565b60405180910390f35b61048f600480360381019061048a9190612d20565b6113c1565b60405161049c91906136d0565b60405180910390f35b6104bf60048036038101906104ba9190612b27565b61146d565b005b60007f80ac58cd000000000000000000000000000000000000000000000000000000007bffffffffffffffffffffffffffffffffffffffffffffffffffffffff1916827bffffffffffffffffffffffffffffffffffffffffffffffffffffffff1916148061058c57507f5b5e139f000000000000000000000000000000000000000000000000000000007bffffffffffffffffffffffffffffffffffffffffffffffffffffffff1916827bffffffffffffffffffffffffffffffffffffffffffffffffffffffff1916145b8061059c575061059b82611565565b5b9050919050565b6060600061060e61015e4442600960009054906101000a900473ffffffffffffffffffffffffffffffffffffffff16876040516020016105e69493929190613600565b6040516020818303038152906040528051906020012060001c6106099190613ce4565b6115cf565b9050600061067961015e4345600960009054906101000a900473ffffffffffffffffffffffffffffffffffffffff16886040516020016106519493929190613600565b6040516020818303038152906040528051906020012060001c6106749190613ce4565b6115cf565b9050818160405160200161068e9291906134d5565b60405160208183030381529060405292505050919050565b6060600080546106b590613c0a565b80601f01602080910402602001604051908101604052809291908181526020018280546106e190613c0a565b801561072e5780601f106107035761010080835404028352916020019161072e565b820191906000526020600020905b81548152906001019060200180831161071157829003601f168201915b5050505050905090565b6000610743826117a4565b610782576040517f08c379a000000000000000000000000000000000000000000000000000000000815260040161077990613872565b60405180910390fd5b6004600083815260200190815260200160002060009054906101000a900473ffffffffffffffffffffffffffffffffffffffff169050919050565b60006107c882610b37565b90508073ffffffffffffffffffffffffffffffffffffffff168373ffffffffffffffffffffffffffffffffffffffff161415610839576040517f08c379a0000000000000000000000000000000000000000000000000000000008152600401610830906138f2565b60405180910390fd5b8073ffffffffffffffffffffffffffffffffffffffff16610858611810565b73ffffffffffffffffffffffffffffffffffffffff161480610887575061088681610881611810565b61132d565b5b6108c6576040517f08c379a00000000000000000000000000000000000000000000000000000000081526004016108bd906137b2565b60405180910390fd5b6108d08383611818565b505050565b600b81601481106108e557600080fd5b0160009150905080546108f790613c0a565b80601f016020809104026020016040519081016040528092919081815260200182805461092390613c0a565b80156109705780601f1061094557610100808354040283529160200191610970565b820191906000526020600020905b81548152906001019060200180831161095357829003601f168201915b505050505081565b610989610983611810565b826118d1565b6109c8576040517f08c379a00000000000000000000000000000000000000000000000000000000081526004016109bf90613912565b60405180910390fd5b6109d38383836119af565b505050565b6109f38383836040518060200160405280600081525061108f565b505050565b60606000600a805490504442600960009054906101000a900473ffffffffffffffffffffffffffffffffffffffff16604051602001610a39939291906135c3565b6040516020818303038152906040528051906020012060001c610a5c9190613ce4565b90506000600a8281548110610a9a577f4e487b7100000000000000000000000000000000000000000000000000000000600052603260045260246000fd5b906000526020600020018054610aaf90613c0a565b80601f0160208091040260200160405190810160405280929190818152602001828054610adb90613c0a565b8015610b285780601f10610afd57610100808354040283529160200191610b28565b820191906000526020600020905b815481529060010190602001808311610b0b57829003601f168201915b50505050509050809250505090565b6000806002600084815260200190815260200160002060009054906101000a900473ffffffffffffffffffffffffffffffffffffffff169050600073ffffffffffffffffffffffffffffffffffffffff168173ffffffffffffffffffffffffffffffffffffffff161415610be0576040517f08c379a0000000000000000000000000000000000000000000000000000000008152600401610bd7906137f2565b60405180910390fd5b80915050919050565b60008073ffffffffffffffffffffffffffffffffffffffff168273ffffffffffffffffffffffffffffffffffffffff161415610c5a576040517f08c379a0000000000000000000000000000000000000000000000000000000008152600401610c51906137d2565b60405180910390fd5b600360008373ffffffffffffffffffffffffffffffffffffffff1673ffffffffffffffffffffffffffffffffffffffff168152602001908152602001600020549050919050565b610ca9611810565b73ffffffffffffffffffffffffffffffffffffffff16610cc7610e2c565b73ffffffffffffffffffffffffffffffffffffffff1614610d1d576040517f08c379a0000000000000000000000000000000000000000000000000000000008152600401610d1490613892565b60405180910390fd5b610d276000611c0b565b565b6000610d33611810565b73ffffffffffffffffffffffffffffffffffffffff16610d51610e2c565b73ffffffffffffffffffffffffffffffffffffffff1614610da7576040517f08c379a0000000000000000000000000000000000000000000000000000000008152600401610d9e90613892565b60405180910390fd5b610db16008611cd1565b6000610dbd6008611ce7565b90506000610dc9611cf5565b90506000610dd682611de4565b9050610e04600960009054906101000a900473ffffffffffffffffffffffffffffffffffffffff1684611e7d565b610e2383610e1e83600187610e199190613b13565b611e9b565b6120ae565b82935050505090565b6000600760009054906101000a900473ffffffffffffffffffffffffffffffffffffffff16905090565b600960009054906101000a900473ffffffffffffffffffffffffffffffffffffffff1681565b606060018054610e8b90613c0a565b80601f0160208091040260200160405190810160405280929190818152602001828054610eb790613c0a565b8015610f045780601f10610ed957610100808354040283529160200191610f04565b820191906000526020600020905b815481529060010190602001808311610ee757829003601f168201915b5050505050905090565b610f16611810565b73ffffffffffffffffffffffffffffffffffffffff168273ffffffffffffffffffffffffffffffffffffffff161415610f84576040517f08c379a0000000000000000000000000000000000000000000000000000000008152600401610f7b90613772565b60405180910390fd5b8060056000610f91611810565b73ffffffffffffffffffffffffffffffffffffffff1673ffffffffffffffffffffffffffffffffffffffff16815260200190815260200160002060008473ffffffffffffffffffffffffffffffffffffffff1673ffffffffffffffffffffffffffffffffffffffff16815260200190815260200160002060006101000a81548160ff0219169083151502179055508173ffffffffffffffffffffffffffffffffffffffff1661103e611810565b73ffffffffffffffffffffffffffffffffffffffff167f17307eab39ab6107e8899845ad3d59bd9653f200f220920489ca2b5937696c318360405161108391906136b5565b60405180910390a35050565b6110a061109a611810565b836118d1565b6110df576040517f08c379a00000000000000000000000000000000000000000000000000000000081526004016110d690613912565b60405180910390fd5b6110eb84848484612122565b50505050565b6060611165600a60734442600960009054906101000a900473ffffffffffffffffffffffffffffffffffffffff16876040516020016111339493929190613600565b6040516020818303038152906040528051906020012060001c6111569190613ce4565b61116091906139fb565b6115cf565b9050919050565b6060611177826117a4565b6111b6576040517f08c379a00000000000000000000000000000000000000000000000000000000081526004016111ad90613852565b60405180910390fd5b60006006600084815260200190815260200160002080546111d690613c0a565b80601f016020809104026020016040519081016040528092919081815260200182805461120290613c0a565b801561124f5780601f106112245761010080835404028352916020019161124f565b820191906000526020600020905b81548152906001019060200180831161123257829003601f168201915b50505050509050600061126061217e565b90506000815114156112765781925050506112b9565b6000825111156112ab5780826040516020016112939291906133c9565b604051602081830303815290604052925050506112b9565b6112b484612195565b925050505b919050565b6000600160034442600960009054906101000a900473ffffffffffffffffffffffffffffffffffffffff166040516020016112fb939291906135c3565b6040516020818303038152906040528051906020012060001c61131e9190613ce4565b61132891906139fb565b905090565b6000600560008473ffffffffffffffffffffffffffffffffffffffff1673ffffffffffffffffffffffffffffffffffffffff16815260200190815260200160002060008373ffffffffffffffffffffffffffffffffffffffff1673ffffffffffffffffffffffffffffffffffffffff16815260200190815260200160002060009054906101000a900460ff16905092915050565b600a81815481106113d157600080fd5b9060005260206000200160009150905080546113ec90613c0a565b80601f016020809104026020016040519081016040528092919081815260200182805461141890613c0a565b80156114655780601f1061143a57610100808354040283529160200191611465565b820191906000526020600020905b81548152906001019060200180831161144857829003601f168201915b505050505081565b611475611810565b73ffffffffffffffffffffffffffffffffffffffff16611493610e2c565b73ffffffffffffffffffffffffffffffffffffffff16146114e9576040517f08c379a00000000000000000000000000000000000000000000000000000000081526004016114e090613892565b60405180910390fd5b600073ffffffffffffffffffffffffffffffffffffffff168173ffffffffffffffffffffffffffffffffffffffff161415611559576040517f08c379a000000000000000000000000000000000000000000000000000000000815260040161155090613712565b60405180910390fd5b61156281611c0b565b50565b60007f01ffc9a7000000000000000000000000000000000000000000000000000000007bffffffffffffffffffffffffffffffffffffffffffffffffffffffff1916827bffffffffffffffffffffffffffffffffffffffffffffffffffffffff1916149050919050565b60606000821415611617576040518060400160405280600181526020017f3000000000000000000000000000000000000000000000000000000000000000815250905061179f565b600082905060005b6000821461164957808061163290613c6d565b915050600a826116429190613a88565b915061161f565b60008167ffffffffffffffff81111561168b577f4e487b7100000000000000000000000000000000000000000000000000000000600052604160045260246000fd5b6040519080825280601f01601f1916602001820160405280156116bd5781602001600182028036833780820191505090505b50905060008290505b60008614611797576001816116db9190613b13565b90506000600a80886116ed9190613a88565b6116f79190613ab9565b876117029190613b13565b603061170e9190613a51565b905060008160f81b905080848481518110611752577f4e487b7100000000000000000000000000000000000000000000000000000000600052603260045260246000fd5b60200101907effffffffffffffffffffffffffffffffffffffffffffffffffffffffffffff1916908160001a905350600a8861178e9190613a88565b975050506116c6565b819450505050505b919050565b60008073ffffffffffffffffffffffffffffffffffffffff166002600084815260200190815260200160002060009054906101000a900473ffffffffffffffffffffffffffffffffffffffff1673ffffffffffffffffffffffffffffffffffffffff1614159050919050565b600033905090565b816004600083815260200190815260200160002060006101000a81548173ffffffffffffffffffffffffffffffffffffffff021916908373ffffffffffffffffffffffffffffffffffffffff160217905550808273ffffffffffffffffffffffffffffffffffffffff1661188b83610b37565b73ffffffffffffffffffffffffffffffffffffffff167f8c5be1e5ebec7d5bd14f71427d1e84f3dd0314c0f7b2291e5b200ac8c7c3b92560405160405180910390a45050565b60006118dc826117a4565b61191b576040517f08c379a000000000000000000000000000000000000000000000000000000000815260040161191290613792565b60405180910390fd5b600061192683610b37565b90508073ffffffffffffffffffffffffffffffffffffffff168473ffffffffffffffffffffffffffffffffffffffff16148061199557508373ffffffffffffffffffffffffffffffffffffffff1661197d84610738565b73ffffffffffffffffffffffffffffffffffffffff16145b806119a657506119a5818561132d565b5b91505092915050565b8273ffffffffffffffffffffffffffffffffffffffff166119cf82610b37565b73ffffffffffffffffffffffffffffffffffffffff1614611a25576040517f08c379a0000000000000000000000000000000000000000000000000000000008152600401611a1c906138b2565b60405180910390fd5b600073ffffffffffffffffffffffffffffffffffffffff168273ffffffffffffffffffffffffffffffffffffffff161415611a95576040517f08c379a0000000000000000000000000000000000000000000000000000000008152600401611a8c90613752565b60405180910390fd5b611aa083838361223c565b611aab600082611818565b6001600360008573ffffffffffffffffffffffffffffffffffffffff1673ffffffffffffffffffffffffffffffffffffffff1681526020019081526020016000206000828254611afb9190613b13565b925050819055506001600360008473ffffffffffffffffffffffffffffffffffffffff1673ffffffffffffffffffffffffffffffffffffffff1681526020019081526020016000206000828254611b5291906139fb565b92505081905550816002600083815260200190815260200160002060006101000a81548173ffffffffffffffffffffffffffffffffffffffff021916908373ffffffffffffffffffffffffffffffffffffffff160217905550808273ffffffffffffffffffffffffffffffffffffffff168473ffffffffffffffffffffffffffffffffffffffff167fddf252ad1be2c89b69c2b068fc378daa952ba7f163c4a11628f55a4df523b3ef60405160405180910390a4505050565b6000600760009054906101000a900473ffffffffffffffffffffffffffffffffffffffff16905081600760006101000a81548173ffffffffffffffffffffffffffffffffffffffff021916908373ffffffffffffffffffffffffffffffffffffffff1602179055508173ffffffffffffffffffffffffffffffffffffffff168173ffffffffffffffffffffffffffffffffffffffff167f8be0079c531659141344cd1fd0a4f28419497f9722a3daafe3b4186f6b6457e060405160405180910390a35050565b6001816000016000828254019250508190555050565b600081600001549050919050565b6060604051602001611d06906135ae565b604051602081830303815290604052905080604051602001611d289190613440565b604051602081830303815290604052905060005b6003811015611d8a576000611d5082612241565b90508281604051602001611d659291906133c9565b6040516020818303038152906040529250508080611d8290613c6d565b915050611d3c565b506000611d956109f8565b9050600081604051602001611daa919061351a565b60405160208183030381529060405290508281604051602001611dce9291906133ed565b6040516020818303038152906040529250505090565b606060006040518060400160405280601a81526020017f646174613a696d6167652f7376672b786d6c3b6261736536342c00000000000081525090506000611e4a84604051602001611e3691906133b2565b604051602081830303815290604052612288565b905060008282604051602001611e619291906133c9565b6040516020818303038152906040529050809350505050919050565b611e97828260405180602001604052806000815250612433565b5050565b60608060138311611f7157600b8360148110611ee0577f4e487b7100000000000000000000000000000000000000000000000000000000600052603260045260246000fd5b018054611eec90613c0a565b80601f0160208091040260200160405190810160405280929190818152602001828054611f1890613c0a565b8015611f655780601f10611f3a57610100808354040283529160200191611f65565b820191906000526020600020905b815481529060010190602001808311611f4857829003601f168201915b5050505050905061205a565b60148310158015611f83575060638311155b15612017576000600a84611f979190613a88565b90506000600a85611fa89190613ce4565b9050611fb3826115cf565b600b8260148110611fed577f4e487b7100000000000000000000000000000000000000000000000000000000600052603260045260246000fd5b01604051602001611fff92919061341c565b60405160208183030381529060405292505050612059565b60648310612058576040518060400160405280600381526020017f39392b000000000000000000000000000000000000000000000000000000000081525090505b5b5b61208681828660405160200161207293929190613462565b604051602081830303815290604052612288565b604051602001612096919061358c565b60405160208183030381529060405291505092915050565b6120b7826117a4565b6120f6576040517f08c379a00000000000000000000000000000000000000000000000000000000081526004016120ed90613812565b60405180910390fd5b8060066000848152602001908152602001600020908051906020019061211d9291906129b3565b505050565b61212d8484846119af565b6121398484848461248e565b612178576040517f08c379a000000000000000000000000000000000000000000000000000000000815260040161216f906136f2565b60405180910390fd5b50505050565b606060405180602001604052806000815250905090565b60606121a0826117a4565b6121df576040517f08c379a00000000000000000000000000000000000000000000000000000000081526004016121d6906138d2565b60405180910390fd5b60006121e961217e565b905060008151116122095760405180602001604052806000815250612234565b8061221384612625565b6040516020016122249291906133c9565b6040516020818303038152906040525b915050919050565b505050565b6060600061224e836105a3565b9050600061225b846110f1565b90508181604051602001612270929190613547565b60405160208183030381529060405292505050919050565b60606000825114156122ab5760405180602001604052806000815250905061242e565b600060405180606001604052806040815260200161477a60409139905060006003600285516122da91906139fb565b6122e49190613a88565b60046122f09190613ab9565b9050600060208261230191906139fb565b67ffffffffffffffff811115612340577f4e487b7100000000000000000000000000000000000000000000000000000000600052604160045260246000fd5b6040519080825280601f01601f1916602001820160405280156123725781602001600182028036833780820191505090505b509050818152600183018586518101602084015b818310156123ed576003830192508251603f8160121c1685015160f81b8252600182019150603f81600c1c1685015160f81b8252600182019150603f8160061c1685015160f81b8252600182019150603f811685015160f81b825260018201915050612386565b600389510660018114612407576002811461241757612422565b613d3d60f01b6002830352612422565b603d60f81b60018303525b50505050508093505050505b919050565b61243d83836127d2565b61244a600084848461248e565b612489576040517f08c379a0000000000000000000000000000000000000000000000000000000008152600401612480906136f2565b60405180910390fd5b505050565b60006124af8473ffffffffffffffffffffffffffffffffffffffff166129a0565b15612618578373ffffffffffffffffffffffffffffffffffffffff1663150b7a026124d8611810565b8786866040518563ffffffff1660e01b81526004016124fa9493929190613669565b602060405180830381600087803b15801561251457600080fd5b505af192505050801561254557506040513d601f19601f820116820180604052508101906125429190612cf7565b60015b6125c8573d8060008114612575576040519150601f19603f3d011682016040523d82523d6000602084013e61257a565b606091505b506000815114156125c0576040517f08c379a00000000000000000000000000000000000000000000000000000000081526004016125b7906136f2565b60405180910390fd5b805181602001fd5b63150b7a0260e01b7bffffffffffffffffffffffffffffffffffffffffffffffffffffffff1916817bffffffffffffffffffffffffffffffffffffffffffffffffffffffff19161491505061261d565b600190505b949350505050565b6060600082141561266d576040518060400160405280600181526020017f300000000000000000000000000000000000000000000000000000000000000081525090506127cd565b600082905060005b6000821461269f57808061268890613c6d565b915050600a826126989190613a88565b9150612675565b60008167ffffffffffffffff8111156126e1577f4e487b7100000000000000000000000000000000000000000000000000000000600052604160045260246000fd5b6040519080825280601f01601f1916602001820160405280156127135781602001600182028036833780820191505090505b5090505b600085146127c65760018261272c9190613b13565b9150600a8561273b9190613ce4565b603061274791906139fb565b60f81b818381518110612783577f4e487b7100000000000000000000000000000000000000000000000000000000600052603260045260246000fd5b60200101907effffffffffffffffffffffffffffffffffffffffffffffffffffffffffffff1916908160001a905350600a856127bf9190613a88565b9450612717565b8093505050505b919050565b600073ffffffffffffffffffffffffffffffffffffffff168273ffffffffffffffffffffffffffffffffffffffff161415612842576040517f08c379a000000000000000000000000000000000000000000000000000000000815260040161283990613832565b60405180910390fd5b61284b816117a4565b1561288b576040517f08c379a000000000000000000000000000000000000000000000000000000000815260040161288290613732565b60405180910390fd5b6128976000838361223c565b6001600360008473ffffffffffffffffffffffffffffffffffffffff1673ffffffffffffffffffffffffffffffffffffffff16815260200190815260200160002060008282546128e791906139fb565b92505081905550816002600083815260200190815260200160002060006101000a81548173ffffffffffffffffffffffffffffffffffffffff021916908373ffffffffffffffffffffffffffffffffffffffff160217905550808273ffffffffffffffffffffffffffffffffffffffff16600073ffffffffffffffffffffffffffffffffffffffff167fddf252ad1be2c89b69c2b068fc378daa952ba7f163c4a11628f55a4df523b3ef60405160405180910390a45050565b600080823b905060008111915050919050565b8280546129bf90613c0a565b90600052602060002090601f0160209004810192826129e15760008555612a28565b82601f106129fa57805160ff1916838001178555612a28565b82800160010185558215612a28579182015b82811115612a27578251825591602001919060010190612a0c565b5b509050612a359190612a39565b5090565b5b80821115612a52576000816000905550600101612a3a565b5090565b6000612a69612a6484613972565b61394d565b905082815260208101848484011115612a8157600080fd5b612a8c848285613bc8565b509392505050565b600081359050612aa38161471d565b92915050565b600081359050612ab881614734565b92915050565b600081359050612acd8161474b565b92915050565b600081519050612ae28161474b565b92915050565b600082601f830112612af957600080fd5b8135612b09848260208601612a56565b91505092915050565b600081359050612b2181614762565b92915050565b600060208284031215612b3957600080fd5b6000612b4784828501612a94565b91505092915050565b60008060408385031215612b6357600080fd5b6000612b7185828601612a94565b9250506020612b8285828601612a94565b9150509250929050565b600080600060608486031215612ba157600080fd5b6000612baf86828701612a94565b9350506020612bc086828701612a94565b9250506040612bd186828701612b12565b9150509250925092565b60008060008060808587031215612bf157600080fd5b6000612bff87828801612a94565b9450506020612c1087828801612a94565b9350506040612c2187828801612b12565b925050606085013567ffffffffffffffff811115612c3e57600080fd5b612c4a87828801612ae8565b91505092959194509250565b60008060408385031215612c6957600080fd5b6000612c7785828601612a94565b9250506020612c8885828601612aa9565b9150509250929050565b60008060408385031215612ca557600080fd5b6000612cb385828601612a94565b9250506020612cc485828601612b12565b9150509250929050565b600060208284031215612ce057600080fd5b6000612cee84828501612abe565b91505092915050565b600060208284031215612d0957600080fd5b6000612d1784828501612ad3565b91505092915050565b600060208284031215612d3257600080fd5b6000612d4084828501612b12565b91505092915050565b612d5281613b47565b82525050565b612d69612d6482613b47565b613cb6565b82525050565b612d7881613b59565b82525050565b6000612d89826139b8565b612d9381856139ce565b9350612da3818560208601613bd7565b612dac81613dd1565b840191505092915050565b6000612dc2826139c3565b612dcc81856139df565b9350612ddc818560208601613bd7565b612de581613dd1565b840191505092915050565b6000612dfb826139c3565b612e0581856139f0565b9350612e15818560208601613bd7565b80840191505092915050565b60008154612e2e81613c0a565b612e3881866139f0565b94506001821660008114612e535760018114612e6457612e97565b60ff19831686528186019350612e97565b612e6d856139a3565b60005b83811015612e8f57815481890152600182019150602081019050612e70565b838801955050505b50505092915050565b6000612ead6047836139f0565b9150612eb882613def565b604782019050919050565b6000612ed06006836139f0565b9150612edb82613e64565b600682019050919050565b6000612ef36009836139f0565b9150612efe82613e8d565b600982019050919050565b6000612f16600b836139f0565b9150612f2182613eb6565b600b82019050919050565b6000612f396032836139df565b9150612f4482613edf565b604082019050919050565b6000612f5c6026836139df565b9150612f6782613f2e565b604082019050919050565b6000612f7f6004836139f0565b9150612f8a82613f7d565b600482019050919050565b6000612fa2601c836139df565b9150612fad82613fa6565b602082019050919050565b6000612fc56004836139f0565b9150612fd082613fcf565b600482019050919050565b6000612fe86024836139df565b9150612ff382613ff8565b604082019050919050565b600061300b6019836139df565b915061301682614047565b602082019050919050565b600061302e602c836139df565b915061303982614070565b604082019050919050565b60006130516053836139f0565b915061305c826140bf565b605382019050919050565b60006130746006836139f0565b915061307f82614134565b600682019050919050565b60006130976038836139df565b91506130a28261415d565b604082019050919050565b60006130ba6001836139f0565b91506130c5826141ac565b600182019050919050565b60006130dd607e836139f0565b91506130e8826141d5565b607e82019050919050565b6000613100602a836139df565b915061310b82614270565b604082019050919050565b60006131236029836139df565b915061312e826142bf565b604082019050919050565b6000613146602e836139df565b91506131518261430e565b604082019050919050565b6000613169600b836139f0565b91506131748261435d565b600b82019050919050565b600061318c6002836139f0565b915061319782614386565b600282019050919050565b60006131af6007836139f0565b91506131ba826143af565b600782019050919050565b60006131d26020836139df565b91506131dd826143d8565b602082019050919050565b60006131f56031836139df565b915061320082614401565b604082019050919050565b6000613218602c836139df565b915061322382614450565b604082019050919050565b600061323b6020836139df565b91506132468261449f565b602082019050919050565b600061325e6029836139df565b9150613269826144c8565b604082019050919050565b6000613281602f836139df565b915061328c82614517565b604082019050919050565b60006132a46021836139df565b91506132af82614566565b604082019050919050565b60006132c7601d836139f0565b91506132d2826145b5565b601d82019050919050565b60006132ea6041836139f0565b91506132f5826145de565b604182019050919050565b600061330d6031836139df565b915061331882614653565b604082019050919050565b60006133306016836139f0565b915061333b826146a2565b601682019050919050565b6000613353600e836139f0565b915061335e826146cb565b600e82019050919050565b60006133766006836139f0565b9150613381826146f4565b600682019050919050565b61339581613bb1565b82525050565b6133ac6133a782613bb1565b613cda565b82525050565b60006133be8284612df0565b915081905092915050565b60006133d58285612df0565b91506133e18284612df0565b91508190509392505050565b60006133f98285612df0565b91506134058284612df0565b915061341082613369565b91508190509392505050565b60006134288285612df0565b91506134348284612e21565b91508190509392505050565b600061344c8284612df0565b9150613457826130d0565b915081905092915050565b600061346d82612ee6565b915061347882613067565b91506134848286612df0565b915061348f82613346565b915061349a82612ea0565b91506134a68285612df0565b91506134b182612f09565b91506134bd8284612df0565b91506134c88261317f565b9150819050949350505050565b60006134e082612f72565b91506134ec8285612df0565b91506134f782612ec3565b91506135038284612df0565b915061350e826130ad565b91508190509392505050565b600061352582613044565b91506135318284612df0565b915061353c826131a2565b915081905092915050565b60006135528261315c565b915061355e8285612df0565b915061356982612fb8565b91506135758284612df0565b915061358082613323565b91508190509392505050565b6000613597826132ba565b91506135a38284612df0565b915081905092915050565b60006135b9826132dd565b9150819050919050565b60006135cf828661339b565b6020820191506135df828561339b565b6020820191506135ef8284612d58565b601482019150819050949350505050565b600061360c828761339b565b60208201915061361c828661339b565b60208201915061362c8285612d58565b60148201915061363c828461339b565b60208201915081905095945050505050565b60006020820190506136636000830184612d49565b92915050565b600060808201905061367e6000830187612d49565b61368b6020830186612d49565b613698604083018561338c565b81810360608301526136aa8184612d7e565b905095945050505050565b60006020820190506136ca6000830184612d6f565b92915050565b600060208201905081810360008301526136ea8184612db7565b905092915050565b6000602082019050818103600083015261370b81612f2c565b9050919050565b6000602082019050818103600083015261372b81612f4f565b9050919050565b6000602082019050818103600083015261374b81612f95565b9050919050565b6000602082019050818103600083015261376b81612fdb565b9050919050565b6000602082019050818103600083015261378b81612ffe565b9050919050565b600060208201905081810360008301526137ab81613021565b9050919050565b600060208201905081810360008301526137cb8161308a565b9050919050565b600060208201905081810360008301526137eb816130f3565b9050919050565b6000602082019050818103600083015261380b81613116565b9050919050565b6000602082019050818103600083015261382b81613139565b9050919050565b6000602082019050818103600083015261384b816131c5565b9050919050565b6000602082019050818103600083015261386b816131e8565b9050919050565b6000602082019050818103600083015261388b8161320b565b9050919050565b600060208201905081810360008301526138ab8161322e565b9050919050565b600060208201905081810360008301526138cb81613251565b9050919050565b600060208201905081810360008301526138eb81613274565b9050919050565b6000602082019050818103600083015261390b81613297565b9050919050565b6000602082019050818103600083015261392b81613300565b9050919050565b6000602082019050613947600083018461338c565b92915050565b6000613957613968565b90506139638282613c3c565b919050565b6000604051905090565b600067ffffffffffffffff82111561398d5761398c613da2565b5b61399682613dd1565b9050602081019050919050565b60008190508160005260206000209050919050565b600081519050919050565b600081519050919050565b600082825260208201905092915050565b600082825260208201905092915050565b600081905092915050565b6000613a0682613bb1565b9150613a1183613bb1565b9250827fffffffffffffffffffffffffffffffffffffffffffffffffffffffffffffffff03821115613a4657613a45613d15565b5b828201905092915050565b6000613a5c82613bbb565b9150613a6783613bbb565b92508260ff03821115613a7d57613a7c613d15565b5b828201905092915050565b6000613a9382613bb1565b9150613a9e83613bb1565b925082613aae57613aad613d44565b5b828204905092915050565b6000613ac482613bb1565b9150613acf83613bb1565b9250817fffffffffffffffffffffffffffffffffffffffffffffffffffffffffffffffff0483118215151615613b0857613b07613d15565b5b828202905092915050565b6000613b1e82613bb1565b9150613b2983613bb1565b925082821015613b3c57613b3b613d15565b5b828203905092915050565b6000613b5282613b91565b9050919050565b60008115159050919050565b60007fffffffff0000000000000000000000000000000000000000000000000000000082169050919050565b600073ffffffffffffffffffffffffffffffffffffffff82169050919050565b6000819050919050565b600060ff82169050919050565b82818337600083830152505050565b60005b83811015613bf5578082015181840152602081019050613bda565b83811115613c04576000848401525b50505050565b60006002820490506001821680613c2257607f821691505b60208210811415613c3657613c35613d73565b5b50919050565b613c4582613dd1565b810181811067ffffffffffffffff82111715613c6457613c63613da2565b5b80604052505050565b6000613c7882613bb1565b91507fffffffffffffffffffffffffffffffffffffffffffffffffffffffffffffffff821415613cab57613caa613d15565b5b600182019050919050565b6000613cc182613cc8565b9050919050565b6000613cd382613de2565b9050919050565b6000819050919050565b6000613cef82613bb1565b9150613cfa83613bb1565b925082613d0a57613d09613d44565b5b828206905092915050565b7f4e487b7100000000000000000000000000000000000000000000000000000000600052601160045260246000fd5b7f4e487b7100000000000000000000000000000000000000000000000000000000600052601260045260246000fd5b7f4e487b7100000000000000000000000000000000000000000000000000000000600052602260045260246000fd5b7f4e487b7100000000000000000000000000000000000000000000000000000000600052604160045260246000fd5b6000601f19601f8301169050919050565b60008160601b9050919050565b7f222c20226465736372697074696f6e223a22556e736f6c69636974656420616460008201527f76696365206f6e20796f75722062697274686461792e222c202261747472696260208201527f75746573223a2200000000000000000000000000000000000000000000000000604082015250565b7f222063793d220000000000000000000000000000000000000000000000000000600082015250565b7f7b226e616d65223a220000000000000000000000000000000000000000000000600082015250565b7f222c22696d616765223a22000000000000000000000000000000000000000000600082015250565b7f4552433732313a207472616e7366657220746f206e6f6e20455243373231526560008201527f63656976657220696d706c656d656e7465720000000000000000000000000000602082015250565b7f4f776e61626c653a206e6577206f776e657220697320746865207a65726f206160008201527f6464726573730000000000000000000000000000000000000000000000000000602082015250565b7f63783d2200000000000000000000000000000000000000000000000000000000600082015250565b7f4552433732313a20746f6b656e20616c7265616479206d696e74656400000000600082015250565b7f20723d2200000000000000000000000000000000000000000000000000000000600082015250565b7f4552433732313a207472616e7366657220746f20746865207a65726f2061646460008201527f7265737300000000000000000000000000000000000000000000000000000000602082015250565b7f4552433732313a20617070726f766520746f2063616c6c657200000000000000600082015250565b7f4552433732313a206f70657261746f7220717565727920666f72206e6f6e657860008201527f697374656e7420746f6b656e0000000000000000000000000000000000000000602082015250565b7f3c7465787420783d223530252220793d223530252220646f6d696e616e742d6260008201527f6173656c696e653d226d6964646c652220746578742d616e63686f723d226d6960208201527f64646c652220636c6173733d2262617365223e00000000000000000000000000604082015250565b7f4861707079200000000000000000000000000000000000000000000000000000600082015250565b7f4552433732313a20617070726f76652063616c6c6572206973206e6f74206f7760008201527f6e6572206e6f7220617070726f76656420666f7220616c6c0000000000000000602082015250565b7f2200000000000000000000000000000000000000000000000000000000000000600082015250565b7f3c7374796c653e2e62617365207b2066696c6c3a20626c61636b3b20666f6e7460008201527f2d66616d696c793a2073616e732d73657269663b20666f6e742d73697a653a2060208201527f313170783b207d3c2f7374796c653e3c726563742077696474683d223130302560408201527f22206865696768743d2231303025222066696c6c3d227768697465222f3e0000606082015250565b7f4552433732313a2062616c616e636520717565727920666f7220746865207a6560008201527f726f206164647265737300000000000000000000000000000000000000000000602082015250565b7f4552433732313a206f776e657220717565727920666f72206e6f6e657869737460008201527f656e7420746f6b656e0000000000000000000000000000000000000000000000602082015250565b7f45524337323155524953746f726167653a2055524920736574206f66206e6f6e60008201527f6578697374656e7420746f6b656e000000000000000000000000000000000000602082015250565b7f3c673e3c636972636c6520000000000000000000000000000000000000000000600082015250565b7f227d000000000000000000000000000000000000000000000000000000000000600082015250565b7f3c2f746578743e00000000000000000000000000000000000000000000000000600082015250565b7f4552433732313a206d696e7420746f20746865207a65726f2061646472657373600082015250565b7f45524337323155524953746f726167653a2055524920717565727920666f722060008201527f6e6f6e6578697374656e7420746f6b656e000000000000000000000000000000602082015250565b7f4552433732313a20617070726f76656420717565727920666f72206e6f6e657860008201527f697374656e7420746f6b656e0000000000000000000000000000000000000000602082015250565b7f4f776e61626c653a2063616c6c6572206973206e6f7420746865206f776e6572600082015250565b7f4552433732313a207472616e73666572206f6620746f6b656e2074686174206960008201527f73206e6f74206f776e0000000000000000000000000000000000000000000000602082015250565b7f4552433732314d657461646174613a2055524920717565727920666f72206e6f60008201527f6e6578697374656e7420746f6b656e0000000000000000000000000000000000602082015250565b7f4552433732313a20617070726f76616c20746f2063757272656e74206f776e6560008201527f7200000000000000000000000000000000000000000000000000000000000000602082015250565b7f646174613a6170706c69636174696f6e2f6a736f6e3b6261736536342c000000600082015250565b7f3c7376672077696474683d2233353022206865696768743d223335302220786d60008201527f6c6e733d22687474703a2f2f7777772e77332e6f72672f323030302f7376672260208201527f3e00000000000000000000000000000000000000000000000000000000000000604082015250565b7f4552433732313a207472616e736665722063616c6c6572206973206e6f74206f60008201527f776e6572206e6f7220617070726f766564000000000000000000000000000000602082015250565b7f222066696c6c3d2223464643413432222f3e3c2f673e00000000000000000000600082015250565b7f2042697274686461792c20556d69000000000000000000000000000000000000600082015250565b7f3c2f7376673e0000000000000000000000000000000000000000000000000000600082015250565b61472681613b47565b811461473157600080fd5b50565b61473d81613b59565b811461474857600080fd5b50565b61475481613b65565b811461475f57600080fd5b50565b61476b81613bb1565b811461477657600080fd5b5056fe4142434445464748494a4b4c4d4e4f505152535455565758595a6162636465666768696a6b6c6d6e6f707172737475767778797a303132333435363738392b2fa26469706673582212205db5234b3512a7197df6d0fa8fea874849b8e5356406e28bf6235d8cd915049464736f6c634300080400334576656e20696e207468652074726f70696373206974206765747320636f6c646572206174206e69676874207468616e20796f75207468696e6b2e41207661636174696f6e202b2061206469736173746572203d20616e20616476656e747572652e49676e6f72652077686174206f7468657273206d6179206265207468696e6b696e67206f6620796f752c20626563617573652074686579206172656ee28099742e446f6ee28099742062652074686520626573742e20426520746865206f6e6c792e496620796f7520617265206e6f742066616c6c696e6720646f776e206f63636173696f6e616c6c792c20796f7520617265206a75737420636f617374696e672e546865206d6f726520796f75206769766520746f206f74686572732c20746865206d6f726520796f75e280996c6c206765742e426520737472696374207769746820796f757273656c6620616e6420666f72676976696e67206f66206f74686572732e446f6ee28099742074726561742070656f706c65206173206261642061732074686579206172652e205472656174207468656d20617320676f6f6420617320796f75206172652e54686520677265617465737420746561636865722069732063616c6c656420e2809c646f696e67e2809d2e436f6d706c696d656e742070656f706c6520626568696e64207468656972206261636b2e204974e280996c6c20636f6d65206261636b20746f20796f752e5768696c6520796f7520696e76656e742c20646f6ee28099742073656c6563742e205768696c6520796f7520736b657463682c20646f6ee280997420696e73706563742e4265696e672077697365206d65616e7320686176696e67206d6f7265207175657374696f6e73207468616e20616e73776572732e5375737461696e6564206f757472616765206d616b657320796f75207374757069642e596f752063616e2065617420616e79206465737365727420796f752077616e7420696620796f752074616b65206f6e6c7920332062697465732e4c6561726e20686f7720746f2074616b6520612032302d6d696e75746520706f776572206e617020776974686f757420656d626172726173736d656e742e546f20717569657420612063726f7764206f722061206472756e6b2c206a75737420776869737065722e456e746875736961736d20697320776f72746820323520495120706f696e74732e5768656e20686974636868696b696e672c206c6f6f6b206c696b652074686520706572736f6e20796f752077616e7420746f207069636b20796f752075702e41206d756c746974756465206f6620626164206964656173206973206e656365737361727920666f72206f6e6520676f6f6420696465612e456c696d696e6174696e6720636c7574746572206d616b657320726f6f6d20666f7220796f75722074727565207472656173757265732e496620796f752063616ee28099742074656c6c207768617420796f75206e6565642c206974e28099732070726f6261626c7920736c6565702e426164207468696e67732063616e2068617070656e20666173742c2062757420616c6d6f737420616c6c20676f6f64207468696e67732068617070656e20736c6f776c792e486f7720746f2061706f6c6f67697a653a20517569636b6c792c207370656369666963616c6c792c2073696e636572656c792e",
  "devdoc": {
    "kind": "dev",
    "methods": {
      "approve(address,uint256)": {
        "details": "See {IERC721-approve}."
      },
      "balanceOf(address)": {
        "details": "See {IERC721-balanceOf}."
      },
      "getApproved(uint256)": {
        "details": "See {IERC721-getApproved}."
      },
      "isApprovedForAll(address,address)": {
        "details": "See {IERC721-isApprovedForAll}."
      },
      "name()": {
        "details": "See {IERC721Metadata-name}."
      },
      "owner()": {
        "details": "Returns the address of the current owner."
      },
      "ownerOf(uint256)": {
        "details": "See {IERC721-ownerOf}."
      },
      "renounceOwnership()": {
        "details": "Leaves the contract without owner. It will not be possible to call `onlyOwner` functions anymore. Can only be called by the current owner. NOTE: Renouncing ownership will leave the contract without an owner, thereby removing any functionality that is only available to the owner."
      },
      "safeTransferFrom(address,address,uint256)": {
        "details": "See {IERC721-safeTransferFrom}."
      },
      "safeTransferFrom(address,address,uint256,bytes)": {
        "details": "See {IERC721-safeTransferFrom}."
      },
      "setApprovalForAll(address,bool)": {
        "details": "See {IERC721-setApprovalForAll}."
      },
      "supportsInterface(bytes4)": {
        "details": "See {IERC165-supportsInterface}."
      },
      "symbol()": {
        "details": "See {IERC721Metadata-symbol}."
      },
      "tokenURI(uint256)": {
        "details": "See {IERC721Metadata-tokenURI}."
      },
      "transferFrom(address,address,uint256)": {
        "details": "See {IERC721-transferFrom}."
      },
      "transferOwnership(address)": {
        "details": "Transfers ownership of the contract to a new account (`newOwner`). Can only be called by the current owner."
      }
    },
    "version": 1
  },
  "userdoc": {
    "kind": "user",
    "methods": {},
    "version": 1
  },
  "storageLayout": {
    "storage": [
      {
        "astId": 129,
        "contract": "contracts/Umi.sol:Umi",
        "label": "_name",
        "offset": 0,
        "slot": "0",
        "type": "t_string_storage"
      },
      {
        "astId": 131,
        "contract": "contracts/Umi.sol:Umi",
        "label": "_symbol",
        "offset": 0,
        "slot": "1",
        "type": "t_string_storage"
      },
      {
        "astId": 135,
        "contract": "contracts/Umi.sol:Umi",
        "label": "_owners",
        "offset": 0,
        "slot": "2",
        "type": "t_mapping(t_uint256,t_address)"
      },
      {
        "astId": 139,
        "contract": "contracts/Umi.sol:Umi",
        "label": "_balances",
        "offset": 0,
        "slot": "3",
        "type": "t_mapping(t_address,t_uint256)"
      },
      {
        "astId": 143,
        "contract": "contracts/Umi.sol:Umi",
        "label": "_tokenApprovals",
        "offset": 0,
        "slot": "4",
        "type": "t_mapping(t_uint256,t_address)"
      },
      {
        "astId": 149,
        "contract": "contracts/Umi.sol:Umi",
        "label": "_operatorApprovals",
        "offset": 0,
        "slot": "5",
        "type": "t_mapping(t_address,t_mapping(t_address,t_bool))"
      },
      {
        "astId": 1066,
        "contract": "contracts/Umi.sol:Umi",
        "label": "_tokenURIs",
        "offset": 0,
        "slot": "6",
        "type": "t_mapping(t_uint256,t_string_storage)"
      },
      {
        "astId": 7,
        "contract": "contracts/Umi.sol:Umi",
        "label": "_owner",
        "offset": 0,
        "slot": "7",
        "type": "t_address"
      },
      {
        "astId": 1907,
        "contract": "contracts/Umi.sol:Umi",
        "label": "_tokenIds",
        "offset": 0,
        "slot": "8",
        "type": "t_struct(Counter)1533_storage"
      },
      {
        "astId": 1909,
        "contract": "contracts/Umi.sol:Umi",
        "label": "umi",
        "offset": 0,
        "slot": "9",
        "type": "t_address"
      },
      {
        "astId": 1966,
        "contract": "contracts/Umi.sol:Umi",
        "label": "adviceList",
        "offset": 0,
        "slot": "10",
        "type": "t_array(t_string_storage)dyn_storage"
      },
      {
        "astId": 1991,
        "contract": "contracts/Umi.sol:Umi",
        "label": "bdayCount",
        "offset": 0,
        "slot": "11",
        "type": "t_array(t_string_storage)20_storage"
      }
    ],
    "types": {
      "t_address": {
        "encoding": "inplace",
        "label": "address",
        "numberOfBytes": "20"
      },
      "t_array(t_string_storage)20_storage": {
        "base": "t_string_storage",
        "encoding": "inplace",
        "label": "string[20]",
        "numberOfBytes": "640"
      },
      "t_array(t_string_storage)dyn_storage": {
        "base": "t_string_storage",
        "encoding": "dynamic_array",
        "label": "string[]",
        "numberOfBytes": "32"
      },
      "t_bool": {
        "encoding": "inplace",
        "label": "bool",
        "numberOfBytes": "1"
      },
      "t_mapping(t_address,t_bool)": {
        "encoding": "mapping",
        "key": "t_address",
        "label": "mapping(address => bool)",
        "numberOfBytes": "32",
        "value": "t_bool"
      },
      "t_mapping(t_address,t_mapping(t_address,t_bool))": {
        "encoding": "mapping",
        "key": "t_address",
        "label": "mapping(address => mapping(address => bool))",
        "numberOfBytes": "32",
        "value": "t_mapping(t_address,t_bool)"
      },
      "t_mapping(t_address,t_uint256)": {
        "encoding": "mapping",
        "key": "t_address",
        "label": "mapping(address => uint256)",
        "numberOfBytes": "32",
        "value": "t_uint256"
      },
      "t_mapping(t_uint256,t_address)": {
        "encoding": "mapping",
        "key": "t_uint256",
        "label": "mapping(uint256 => address)",
        "numberOfBytes": "32",
        "value": "t_address"
      },
      "t_mapping(t_uint256,t_string_storage)": {
        "encoding": "mapping",
        "key": "t_uint256",
        "label": "mapping(uint256 => string)",
        "numberOfBytes": "32",
        "value": "t_string_storage"
      },
      "t_string_storage": {
        "encoding": "bytes",
        "label": "string",
        "numberOfBytes": "32"
      },
      "t_struct(Counter)1533_storage": {
        "encoding": "inplace",
        "label": "struct Counters.Counter",
        "members": [
          {
            "astId": 1532,
            "contract": "contracts/Umi.sol:Umi",
            "label": "_value",
            "offset": 0,
            "slot": "0",
            "type": "t_uint256"
          }
        ],
        "numberOfBytes": "32"
      },
      "t_uint256": {
        "encoding": "inplace",
        "label": "uint256",
        "numberOfBytes": "32"
      }
    }
  }
}